{
  "contractName": "AggregatorFacade",
  "abi": [
    {
      "inputs": [
        {
          "internalType": "address",
          "name": "_aggregator",
          "type": "address"
        },
        {
          "internalType": "uint8",
          "name": "_decimals",
          "type": "uint8"
        },
        {
          "internalType": "string",
          "name": "_description",
          "type": "string"
        }
      ],
      "stateMutability": "nonpayable",
      "type": "constructor"
    },
    {
      "anonymous": false,
      "inputs": [
        {
          "indexed": true,
          "internalType": "int256",
          "name": "current",
          "type": "int256"
        },
        {
          "indexed": true,
          "internalType": "uint256",
          "name": "roundId",
          "type": "uint256"
        },
        {
          "indexed": false,
          "internalType": "uint256",
          "name": "updatedAt",
          "type": "uint256"
        }
      ],
      "name": "AnswerUpdated",
      "type": "event"
    },
    {
      "anonymous": false,
      "inputs": [
        {
          "indexed": true,
          "internalType": "uint256",
          "name": "roundId",
          "type": "uint256"
        },
        {
          "indexed": true,
          "internalType": "address",
          "name": "startedBy",
          "type": "address"
        },
        {
          "indexed": false,
          "internalType": "uint256",
          "name": "startedAt",
          "type": "uint256"
        }
      ],
      "name": "NewRound",
      "type": "event"
    },
    {
      "inputs": [],
      "name": "aggregator",
      "outputs": [
        {
          "internalType": "contract AggregatorInterface",
          "name": "",
          "type": "address"
        }
      ],
      "stateMutability": "view",
      "type": "function"
    },
    {
      "inputs": [],
      "name": "decimals",
      "outputs": [
        {
          "internalType": "uint8",
          "name": "",
          "type": "uint8"
        }
      ],
      "stateMutability": "view",
      "type": "function"
    },
    {
      "inputs": [],
      "name": "description",
      "outputs": [
        {
          "internalType": "string",
          "name": "",
          "type": "string"
        }
      ],
      "stateMutability": "view",
      "type": "function"
    },
    {
      "inputs": [],
      "name": "version",
      "outputs": [
        {
          "internalType": "uint256",
          "name": "",
          "type": "uint256"
        }
      ],
      "stateMutability": "view",
      "type": "function"
    },
    {
      "inputs": [],
      "name": "latestRound",
      "outputs": [
        {
          "internalType": "uint256",
          "name": "",
          "type": "uint256"
        }
      ],
      "stateMutability": "view",
      "type": "function"
    },
    {
      "inputs": [],
      "name": "latestAnswer",
      "outputs": [
        {
          "internalType": "int256",
          "name": "",
          "type": "int256"
        }
      ],
      "stateMutability": "view",
      "type": "function"
    },
    {
      "inputs": [],
      "name": "latestTimestamp",
      "outputs": [
        {
          "internalType": "uint256",
          "name": "",
          "type": "uint256"
        }
      ],
      "stateMutability": "view",
      "type": "function"
    },
    {
      "inputs": [],
      "name": "latestRoundData",
      "outputs": [
        {
          "internalType": "uint80",
          "name": "roundId",
          "type": "uint80"
        },
        {
          "internalType": "int256",
          "name": "answer",
          "type": "int256"
        },
        {
          "internalType": "uint256",
          "name": "startedAt",
          "type": "uint256"
        },
        {
          "internalType": "uint256",
          "name": "updatedAt",
          "type": "uint256"
        },
        {
          "internalType": "uint80",
          "name": "answeredInRound",
          "type": "uint80"
        }
      ],
      "stateMutability": "view",
      "type": "function"
    },
    {
      "inputs": [
        {
          "internalType": "uint256",
          "name": "_roundId",
          "type": "uint256"
        }
      ],
      "name": "getAnswer",
      "outputs": [
        {
          "internalType": "int256",
          "name": "",
          "type": "int256"
        }
      ],
      "stateMutability": "view",
      "type": "function"
    },
    {
      "inputs": [
        {
          "internalType": "uint256",
          "name": "_roundId",
          "type": "uint256"
        }
      ],
      "name": "getTimestamp",
      "outputs": [
        {
          "internalType": "uint256",
          "name": "",
          "type": "uint256"
        }
      ],
      "stateMutability": "view",
      "type": "function"
    },
    {
      "inputs": [
        {
          "internalType": "uint80",
          "name": "_roundId",
          "type": "uint80"
        }
      ],
      "name": "getRoundData",
      "outputs": [
        {
          "internalType": "uint80",
          "name": "roundId",
          "type": "uint80"
        },
        {
          "internalType": "int256",
          "name": "answer",
          "type": "int256"
        },
        {
          "internalType": "uint256",
          "name": "startedAt",
          "type": "uint256"
        },
        {
          "internalType": "uint256",
          "name": "updatedAt",
          "type": "uint256"
        },
        {
          "internalType": "uint80",
          "name": "answeredInRound",
          "type": "uint80"
        }
      ],
      "stateMutability": "view",
      "type": "function"
    }
  ],
  "bytecode": "0x608060405234801561001057600080fd5b5060405162000db238038062000db28339818101604052606081101561003557600080fd5b8101908080519060200190929190805190602001909291908051604051939291908464010000000082111561006957600080fd5b8382019150602082018581111561007f57600080fd5b825186600182028301116401000000008211171561009c57600080fd5b8083526020830192505050908051906020019080838360005b838110156100d05780820151818401526020810190506100b5565b50505050905090810190601f1680156100fd5780820380516001836020036101000a031916815260200191505b50604052505050826000806101000a81548173ffffffffffffffffffffffffffffffffffffffff021916908373ffffffffffffffffffffffffffffffffffffffff16021790555081600060146101000a81548160ff021916908360ff160217905550806001908051906020019061017592919061017e565b50505050610223565b828054600181600116156101000203166002900490600052602060002090601f016020900481019282601f106101bf57805160ff19168380011785556101ed565b828001600101855582156101ed579182015b828111156101ec5782518255916020019190600101906101d1565b5b5090506101fa91906101fe565b5090565b61022091905b8082111561021c576000816000905550600101610204565b5090565b90565b610b7f80620002336000396000f3fe608060405234801561001057600080fd5b50600436106100a95760003560e01c80637284e416116100715780637284e416146101765780638205bf6a146101f95780639a6fc8f514610217578063b5ab58dc146102b1578063b633620c146102f3578063feaf968c14610335576100a9565b8063245a7bfc146100ae578063313ce567146100f857806350d25bcd1461011c57806354fd4d501461013a578063668a0f0214610158575b600080fd5b6100b661039f565b604051808273ffffffffffffffffffffffffffffffffffffffff1673ffffffffffffffffffffffffffffffffffffffff16815260200191505060405180910390f35b6101006103c4565b604051808260ff1660ff16815260200191505060405180910390f35b6101246103d7565b6040518082815260200191505060405180910390f35b610142610480565b6040518082815260200191505060405180910390f35b610160610485565b6040518082815260200191505060405180910390f35b61017e61052e565b6040518080602001828103825283818151815260200191508051906020019080838360005b838110156101be5780820151818401526020810190506101a3565b50505050905090810190601f1680156101eb5780820380516001836020036101000a031916815260200191505b509250505060405180910390f35b6102016105cc565b6040518082815260200191505060405180910390f35b61024f6004803603602081101561022d57600080fd5b81019080803569ffffffffffffffffffff169060200190929190505050610675565b604051808669ffffffffffffffffffff1669ffffffffffffffffffff1681526020018581526020018481526020018381526020018269ffffffffffffffffffff1669ffffffffffffffffffff1681526020019550505050505060405180910390f35b6102dd600480360360208110156102c757600080fd5b8101908080359060200190929190505050610699565b6040518082815260200191505060405180910390f35b61031f6004803603602081101561030957600080fd5b810190808035906020019092919050505061074f565b6040518082815260200191505060405180910390f35b61033d610805565b604051808669ffffffffffffffffffff1669ffffffffffffffffffff1681526020018581526020018481526020018381526020018269ffffffffffffffffffff1669ffffffffffffffffffff1681526020019550505050505060405180910390f35b6000809054906101000a900473ffffffffffffffffffffffffffffffffffffffff1681565b600060149054906101000a900460ff1681565b60008060009054906101000a900473ffffffffffffffffffffffffffffffffffffffff1673ffffffffffffffffffffffffffffffffffffffff166350d25bcd6040518163ffffffff1660e01b815260040160206040518083038186803b15801561044057600080fd5b505afa158015610454573d6000803e3d6000fd5b505050506040513d602081101561046a57600080fd5b8101908080519060200190929190505050905090565b600281565b60008060009054906101000a900473ffffffffffffffffffffffffffffffffffffffff1673ffffffffffffffffffffffffffffffffffffffff1663668a0f026040518163ffffffff1660e01b815260040160206040518083038186803b1580156104ee57600080fd5b505afa158015610502573d6000803e3d6000fd5b505050506040513d602081101561051857600080fd5b8101908080519060200190929190505050905090565b60018054600181600116156101000203166002900480601f0160208091040260200160405190810160405280929190818152602001828054600181600116156101000203166002900480156105c45780601f10610599576101008083540402835291602001916105c4565b820191906000526020600020905b8154815290600101906020018083116105a757829003601f168201915b505050505081565b60008060009054906101000a900473ffffffffffffffffffffffffffffffffffffffff1673ffffffffffffffffffffffffffffffffffffffff16638205bf6a6040518163ffffffff1660e01b815260040160206040518083038186803b15801561063557600080fd5b505afa158015610649573d6000803e3d6000fd5b505050506040513d602081101561065f57600080fd5b8101908080519060200190929190505050905090565b6000806000806000610686866108c8565b9450945094509450945091939590929450565b60008060009054906101000a900473ffffffffffffffffffffffffffffffffffffffff1673ffffffffffffffffffffffffffffffffffffffff1663b5ab58dc836040518263ffffffff1660e01b81526004018082815260200191505060206040518083038186803b15801561070d57600080fd5b505afa158015610721573d6000803e3d6000fd5b505050506040513d602081101561073757600080fd5b81019080805190602001909291905050509050919050565b60008060009054906101000a900473ffffffffffffffffffffffffffffffffffffffff1673ffffffffffffffffffffffffffffffffffffffff1663b633620c836040518263ffffffff1660e01b81526004018082815260200191505060206040518083038186803b1580156107c357600080fd5b505afa1580156107d7573d6000803e3d6000fd5b505050506040513d60208110156107ed57600080fd5b81019080805190602001909291905050509050919050565b60008060008060006108b76000809054906101000a900473ffffffffffffffffffffffffffffffffffffffff1673ffffffffffffffffffffffffffffffffffffffff1663668a0f026040518163ffffffff1660e01b815260040160206040518083038186803b15801561087757600080fd5b505afa15801561088b573d6000803e3d6000fd5b505050506040513d60208110156108a157600080fd5b81019080805190602001909291905050506108c8565b945094509450945094509091929394565b60008060008060008060009054906101000a900473ffffffffffffffffffffffffffffffffffffffff1673ffffffffffffffffffffffffffffffffffffffff1663b5ab58dc876040518263ffffffff1660e01b8152600401808269ffffffffffffffffffff16815260200191505060206040518083038186803b15801561094e57600080fd5b505afa158015610962573d6000803e3d6000fd5b505050506040513d602081101561097857600080fd5b810190808051906020019092919050505093506000809054906101000a900473ffffffffffffffffffffffffffffffffffffffff1673ffffffffffffffffffffffffffffffffffffffff1663b633620c876040518263ffffffff1660e01b8152600401808269ffffffffffffffffffff16815260200191505060206040518083038186803b158015610a0957600080fd5b505afa158015610a1d573d6000803e3d6000fd5b505050506040513d6020811015610a3357600080fd5b810190808051906020019092919050505067ffffffffffffffff169150600082116040518060400160405280600f81526020017f4e6f20646174612070726573656e74000000000000000000000000000000000081525090610b30576040517f08c379a00000000000000000000000000000000000000000000000000000000081526004018080602001828103825283818151815260200191508051906020019080838360005b83811015610af5578082015181840152602081019050610ada565b50505050905090810190601f168015610b225780820380516001836020036101000a031916815260200191505b509250505060405180910390fd5b508584838489945094509450945094509193959092945056fea264697066735822122035115e2181020c965767b672ce7dbecd22e0e89883444824ecc0a03b8591009064736f6c63430006060033",
  "immutableReferences": {},
  "source": "// SPDX-License-Identifier: MIT\npragma solidity 0.6.6;\n\nimport \"./interfaces/AggregatorV2V3Interface.sol\";\n\n/**\n * @title A facade forAggregator versions to conform to the new v0.6\n * Aggregator V3 interface.\n */\ncontract AggregatorFacade is AggregatorV2V3Interface {\n\n  AggregatorInterface public aggregator;\n  uint8 public override decimals;\n  string public override description;\n\n  uint256 constant public override version = 2;\n\n  // An error specific to the Aggregator V3 Interface, to prevent possible\n  // confusion around accidentally reading unset values as reported values.\n  string constant private V3_NO_DATA_ERROR = \"No data present\";\n\n  constructor(\n    address _aggregator,\n    uint8 _decimals,\n    string memory _description\n  ) public {\n    aggregator = AggregatorInterface(_aggregator);\n    decimals = _decimals;\n    description = _description;\n  }\n\n  /**\n   * @notice get the latest completed round where the answer was updated\n   * @dev #[deprecated]. Use latestRoundData instead. This does not error if no\n   * answer has been reached, it will simply return 0. Either wait to point to\n   * an already answered Aggregator or use the recommended latestRoundData\n   * instead which includes better verification information.\n   */\n  function latestRound()\n    external\n    view\n    virtual\n    override\n    returns (uint256)\n  {\n    return aggregator.latestRound();\n  }\n\n  /**\n   * @notice Reads the current answer from aggregator delegated to.\n   *\n   * @dev #[deprecated] Use latestRoundData instead. This does not error if no\n   * answer has been reached, it will simply return 0. Either wait to point to\n   * an already answered Aggregator or use the recommended latestRoundData\n   * instead which includes better verification information.\n   */\n  function latestAnswer()\n    external\n    view\n    virtual\n    override\n    returns (int256)\n  {\n    return aggregator.latestAnswer();\n  }\n\n  /**\n   * @notice Reads the last updated height from aggregator delegated to.\n   *\n   * @dev #[deprecated] Use latestRoundData instead. This does not error if no\n   * answer has been reached, it will simply return 0. Either wait to point to\n   * an already answered Aggregator or use the recommended latestRoundData\n   * instead which includes better verification information.\n   */\n  function latestTimestamp()\n    external\n    view\n    virtual\n    override\n    returns (uint256)\n  {\n    return aggregator.latestTimestamp();\n  }\n\n  /**\n   * @notice get data about the latest round. Consumers are encouraged to check\n   * that they're receiving fresh data by inspecting the updatedAt value.\n   * @return roundId is the round ID for which data was retrieved\n   * @return answer is the answer for the given round\n   * @return startedAt is always equal to updatedAt because the underlying\n   * Aggregator contract does not expose this information.\n   * @return updatedAt is the timestamp when the round last was updated (i.e.\n   * answer was last computed)\n   * @return answeredInRound is always equal to roundId because the underlying\n   * Aggregator contract does not expose this information.\n   * @dev Note that for rounds that haven't yet received responses from all\n   * oracles, answer and updatedAt may change between queries.\n   */\n  function latestRoundData()\n    external\n    view\n    virtual\n    override\n    returns (\n      uint80 roundId,\n      int256 answer,\n      uint256 startedAt,\n      uint256 updatedAt,\n      uint80 answeredInRound\n    )\n  {\n    return _getRoundData(uint80(aggregator.latestRound()));\n  }\n\n  /**\n   * @notice get past rounds answers\n   * @param _roundId the answer number to retrieve the answer for\n   *\n   * @dev #[deprecated] Use getRoundData instead. This does not error if no\n   * answer has been reached, it will simply return 0. Either wait to point to\n   * an already answered Aggregator or use the recommended getRoundData\n   * instead which includes better verification information.\n   */\n  function getAnswer(uint256 _roundId)\n    external\n    view\n    virtual\n    override\n    returns (int256)\n  {\n    return aggregator.getAnswer(_roundId);\n  }\n\n  /**\n   * @notice get block timestamp when an answer was last updated\n   * @param _roundId the answer number to retrieve the updated timestamp for\n   *\n   * @dev #[deprecated] Use getRoundData instead. This does not error if no\n   * answer has been reached, it will simply return 0. Either wait to point to\n   * an already answered Aggregator or use the recommended getRoundData\n   * instead which includes better verification information.\n   */\n  function getTimestamp(uint256 _roundId)\n    external\n    view\n    virtual\n    override\n    returns (uint256)\n  {\n    return aggregator.getTimestamp(_roundId);\n  }\n\n  /**\n   * @notice get data about a round. Consumers are encouraged to check\n   * that they're receiving fresh data by inspecting the updatedAt value.\n   * @param _roundId the round ID to retrieve the round data for\n   * @return roundId is the round ID for which data was retrieved\n   * @return answer is the answer for the given round\n   * @return startedAt is always equal to updatedAt because the underlying\n   * Aggregator contract does not expose this information.\n   * @return updatedAt is the timestamp when the round last was updated (i.e.\n   * answer was last computed)\n   * @return answeredInRound is always equal to roundId because the underlying\n   * Aggregator contract does not expose this information.\n   * @dev Note that for rounds that haven't yet received responses from all\n   * oracles, answer and updatedAt may change between queries.\n   */\n  function getRoundData(uint80 _roundId)\n    external\n    view\n    virtual\n    override\n    returns (\n      uint80 roundId,\n      int256 answer,\n      uint256 startedAt,\n      uint256 updatedAt,\n      uint80 answeredInRound\n    )\n  {\n    return _getRoundData(_roundId);\n  }\n\n\n  /*\n   * Internal\n   */\n\n  function _getRoundData(uint80 _roundId)\n    internal\n    view\n    returns (\n      uint80 roundId,\n      int256 answer,\n      uint256 startedAt,\n      uint256 updatedAt,\n      uint80 answeredInRound\n    )\n  {\n    answer = aggregator.getAnswer(_roundId);\n    updatedAt = uint64(aggregator.getTimestamp(_roundId));\n\n    require(updatedAt > 0, V3_NO_DATA_ERROR);\n\n    return (_roundId, answer, updatedAt, updatedAt, _roundId);\n  }\n\n}\n",
  "sourcePath": "/home/rol/Desktop/lotteryVue/lottery/contracts/v0.6/AggregatorFacade.sol",
  "compiler": {
    "name": "solc",
    "version": "0.6.6+commit.6c089d02.Emscripten.clang"
  },
  "schemaVersion": "3.4.1",
  "updatedAt": "2021-07-24T09:01:27.999Z",
  "devdoc": {
    "methods": {
      "getAnswer(uint256)": {
        "details": "#[deprecated] Use getRoundData instead. This does not error if no answer has been reached, it will simply return 0. Either wait to point to an already answered Aggregator or use the recommended getRoundData instead which includes better verification information.",
        "params": {
          "_roundId": "the answer number to retrieve the answer for"
        }
      },
      "getRoundData(uint80)": {
        "details": "Note that for rounds that haven't yet received responses from all oracles, answer and updatedAt may change between queries.",
        "params": {
          "_roundId": "the round ID to retrieve the round data for"
        },
        "returns": {
          "answer": "is the answer for the given round",
          "answeredInRound": "is always equal to roundId because the underlying Aggregator contract does not expose this information.",
          "roundId": "is the round ID for which data was retrieved",
          "startedAt": "is always equal to updatedAt because the underlying Aggregator contract does not expose this information.",
          "updatedAt": "is the timestamp when the round last was updated (i.e. answer was last computed)"
        }
      },
      "getTimestamp(uint256)": {
        "details": "#[deprecated] Use getRoundData instead. This does not error if no answer has been reached, it will simply return 0. Either wait to point to an already answered Aggregator or use the recommended getRoundData instead which includes better verification information.",
        "params": {
          "_roundId": "the answer number to retrieve the updated timestamp for"
        }
      },
      "latestAnswer()": {
        "details": "#[deprecated] Use latestRoundData instead. This does not error if no answer has been reached, it will simply return 0. Either wait to point to an already answered Aggregator or use the recommended latestRoundData instead which includes better verification information."
      },
      "latestRound()": {
        "details": "#[deprecated]. Use latestRoundData instead. This does not error if no answer has been reached, it will simply return 0. Either wait to point to an already answered Aggregator or use the recommended latestRoundData instead which includes better verification information."
      },
      "latestRoundData()": {
        "details": "Note that for rounds that haven't yet received responses from all oracles, answer and updatedAt may change between queries.",
        "returns": {
          "answer": "is the answer for the given round",
          "answeredInRound": "is always equal to roundId because the underlying Aggregator contract does not expose this information.",
          "roundId": "is the round ID for which data was retrieved",
          "startedAt": "is always equal to updatedAt because the underlying Aggregator contract does not expose this information.",
          "updatedAt": "is the timestamp when the round last was updated (i.e. answer was last computed)"
        }
      },
      "latestTimestamp()": {
        "details": "#[deprecated] Use latestRoundData instead. This does not error if no answer has been reached, it will simply return 0. Either wait to point to an already answered Aggregator or use the recommended latestRoundData instead which includes better verification information."
      }
    },
    "title": "A facade forAggregator versions to conform to the new v0.6 Aggregator V3 interface."
  },
  "userdoc": {
    "methods": {
      "getAnswer(uint256)": {
        "notice": "get past rounds answers"
      },
      "getRoundData(uint80)": {
        "notice": "get data about a round. Consumers are encouraged to check that they're receiving fresh data by inspecting the updatedAt value."
      },
      "getTimestamp(uint256)": {
        "notice": "get block timestamp when an answer was last updated"
      },
      "latestAnswer()": {
        "notice": "Reads the current answer from aggregator delegated to."
      },
      "latestRound()": {
        "notice": "get the latest completed round where the answer was updated"
      },
      "latestRoundData()": {
        "notice": "get data about the latest round. Consumers are encouraged to check that they're receiving fresh data by inspecting the updatedAt value."
      },
      "latestTimestamp()": {
        "notice": "Reads the last updated height from aggregator delegated to."
      }
    }
  }
}