{
  "contractName": "DeviationFlaggingValidator",
  "abi": [
    {
      "inputs": [
        {
          "internalType": "address",
          "name": "_flags",
          "type": "address"
        },
        {
          "internalType": "uint24",
          "name": "_flaggingThreshold",
          "type": "uint24"
        }
      ],
      "stateMutability": "nonpayable",
      "type": "constructor"
    },
    {
      "anonymous": false,
      "inputs": [
        {
          "indexed": true,
          "internalType": "uint24",
          "name": "previous",
          "type": "uint24"
        },
        {
          "indexed": true,
          "internalType": "uint24",
          "name": "current",
          "type": "uint24"
        }
      ],
      "name": "FlaggingThresholdUpdated",
      "type": "event"
    },
    {
      "anonymous": false,
      "inputs": [
        {
          "indexed": true,
          "internalType": "address",
          "name": "previous",
          "type": "address"
        },
        {
          "indexed": true,
          "internalType": "address",
          "name": "current",
          "type": "address"
        }
      ],
      "name": "FlagsAddressUpdated",
      "type": "event"
    },
    {
      "anonymous": false,
      "inputs": [
        {
          "indexed": true,
          "internalType": "address",
          "name": "from",
          "type": "address"
        },
        {
          "indexed": true,
          "internalType": "address",
          "name": "to",
          "type": "address"
        }
      ],
      "name": "OwnershipTransferRequested",
      "type": "event"
    },
    {
      "anonymous": false,
      "inputs": [
        {
          "indexed": true,
          "internalType": "address",
          "name": "from",
          "type": "address"
        },
        {
          "indexed": true,
          "internalType": "address",
          "name": "to",
          "type": "address"
        }
      ],
      "name": "OwnershipTransferred",
      "type": "event"
    },
    {
      "inputs": [],
      "name": "THRESHOLD_MULTIPLIER",
      "outputs": [
        {
          "internalType": "uint32",
          "name": "",
          "type": "uint32"
        }
      ],
      "stateMutability": "view",
      "type": "function"
    },
    {
      "inputs": [],
      "name": "acceptOwnership",
      "outputs": [],
      "stateMutability": "nonpayable",
      "type": "function"
    },
    {
      "inputs": [],
      "name": "flaggingThreshold",
      "outputs": [
        {
          "internalType": "uint32",
          "name": "",
          "type": "uint32"
        }
      ],
      "stateMutability": "view",
      "type": "function"
    },
    {
      "inputs": [],
      "name": "flags",
      "outputs": [
        {
          "internalType": "contract FlagsInterface",
          "name": "",
          "type": "address"
        }
      ],
      "stateMutability": "view",
      "type": "function"
    },
    {
      "inputs": [],
      "name": "owner",
      "outputs": [
        {
          "internalType": "address",
          "name": "",
          "type": "address"
        }
      ],
      "stateMutability": "view",
      "type": "function"
    },
    {
      "inputs": [
        {
          "internalType": "address",
          "name": "_to",
          "type": "address"
        }
      ],
      "name": "transferOwnership",
      "outputs": [],
      "stateMutability": "nonpayable",
      "type": "function"
    },
    {
      "inputs": [
        {
          "internalType": "uint256",
          "name": "_previousRoundId",
          "type": "uint256"
        },
        {
          "internalType": "int256",
          "name": "_previousAnswer",
          "type": "int256"
        },
        {
          "internalType": "uint256",
          "name": "_roundId",
          "type": "uint256"
        },
        {
          "internalType": "int256",
          "name": "_answer",
          "type": "int256"
        }
      ],
      "name": "validate",
      "outputs": [
        {
          "internalType": "bool",
          "name": "",
          "type": "bool"
        }
      ],
      "stateMutability": "nonpayable",
      "type": "function"
    },
    {
      "inputs": [
        {
          "internalType": "uint256",
          "name": "",
          "type": "uint256"
        },
        {
          "internalType": "int256",
          "name": "_previousAnswer",
          "type": "int256"
        },
        {
          "internalType": "uint256",
          "name": "",
          "type": "uint256"
        },
        {
          "internalType": "int256",
          "name": "_answer",
          "type": "int256"
        }
      ],
      "name": "isValid",
      "outputs": [
        {
          "internalType": "bool",
          "name": "",
          "type": "bool"
        }
      ],
      "stateMutability": "view",
      "type": "function"
    },
    {
      "inputs": [
        {
          "internalType": "uint24",
          "name": "_flaggingThreshold",
          "type": "uint24"
        }
      ],
      "name": "setFlaggingThreshold",
      "outputs": [],
      "stateMutability": "nonpayable",
      "type": "function"
    },
    {
      "inputs": [
        {
          "internalType": "address",
          "name": "_flags",
          "type": "address"
        }
      ],
      "name": "setFlagsAddress",
      "outputs": [],
      "stateMutability": "nonpayable",
      "type": "function"
    }
  ],
  "bytecode": "0x608060405234801561001057600080fd5b506040516111a43803806111a48339818101604052604081101561003357600080fd5b810190808051906020019092919080519060200190929190505050336000806101000a81548173ffffffffffffffffffffffffffffffffffffffff021916908373ffffffffffffffffffffffffffffffffffffffff16021790555061009d826100b360201b60201c565b6100ac8161026f60201b60201c565b50506103bc565b6000809054906101000a900473ffffffffffffffffffffffffffffffffffffffff1673ffffffffffffffffffffffffffffffffffffffff163373ffffffffffffffffffffffffffffffffffffffff1614610175576040517f08c379a00000000000000000000000000000000000000000000000000000000081526004018080602001828103825260168152602001807f4f6e6c792063616c6c61626c65206279206f776e65720000000000000000000081525060200191505060405180910390fd5b6000600260009054906101000a900473ffffffffffffffffffffffffffffffffffffffff1690508173ffffffffffffffffffffffffffffffffffffffff168173ffffffffffffffffffffffffffffffffffffffff161461026b5781600260006101000a81548173ffffffffffffffffffffffffffffffffffffffff021916908373ffffffffffffffffffffffffffffffffffffffff1602179055508173ffffffffffffffffffffffffffffffffffffffff168173ffffffffffffffffffffffffffffffffffffffff167f900aa01828592ab069e4d44e7a36c70ebd476e35f567c7db6a691e503b8029d860405160405180910390a35b5050565b6000809054906101000a900473ffffffffffffffffffffffffffffffffffffffff1673ffffffffffffffffffffffffffffffffffffffff163373ffffffffffffffffffffffffffffffffffffffff1614610331576040517f08c379a00000000000000000000000000000000000000000000000000000000081526004018080602001828103825260168152602001807f4f6e6c792063616c6c61626c65206279206f776e65720000000000000000000081525060200191505060405180910390fd5b6000600160149054906101000a900463ffffffff1690508162ffffff168162ffffff16146103b8578162ffffff16600160146101000a81548163ffffffff021916908363ffffffff1602179055508162ffffff168162ffffff167f985b87e809fd5992ec257eac36f25777ce308055dd9249a0182123d7b5d6633a60405160405180910390a35b5050565b610dd9806103cb6000396000f3fe608060405234801561001057600080fd5b506004361061009e5760003560e01c8063eed8a1de11610066578063eed8a1de146101cf578063f198769514610202578063f2c0ea9214610246578063f2fde38b14610270578063ffd93670146102b45761009e565b80630910ce4a146100a357806364cc4aa5146100cd57806379ba5097146101175780638da5cb5b14610121578063beed9b511461016b575b600080fd5b6100ab610318565b604051808263ffffffff1663ffffffff16815260200191505060405180910390f35b6100d561032e565b604051808273ffffffffffffffffffffffffffffffffffffffff1673ffffffffffffffffffffffffffffffffffffffff16815260200191505060405180910390f35b61011f610354565b005b61012961051c565b604051808273ffffffffffffffffffffffffffffffffffffffff1673ffffffffffffffffffffffffffffffffffffffff16815260200191505060405180910390f35b6101b56004803603608081101561018157600080fd5b8101908080359060200190929190803590602001909291908035906020019092919080359060200190929190505050610541565b604051808215151515815260200191505060405180910390f35b610200600480360360208110156101e557600080fd5b81019080803562ffffff169060200190929190505050610622565b005b6102446004803603602081101561021857600080fd5b81019080803573ffffffffffffffffffffffffffffffffffffffff16906020019092919050505061076f565b005b61024e61092b565b604051808263ffffffff1663ffffffff16815260200191505060405180910390f35b6102b26004803603602081101561028657600080fd5b81019080803573ffffffffffffffffffffffffffffffffffffffff169060200190929190505050610932565b005b6102fe600480360360808110156102ca57600080fd5b8101908080359060200190929190803590602001909291908035906020019092919080359060200190929190505050610ab3565b604051808215151515815260200191505060405180910390f35b600160149054906101000a900463ffffffff1681565b600260009054906101000a900473ffffffffffffffffffffffffffffffffffffffff1681565b600160009054906101000a900473ffffffffffffffffffffffffffffffffffffffff1673ffffffffffffffffffffffffffffffffffffffff163373ffffffffffffffffffffffffffffffffffffffff1614610417576040517f08c379a00000000000000000000000000000000000000000000000000000000081526004018080602001828103825260168152602001807f4d7573742062652070726f706f736564206f776e65720000000000000000000081525060200191505060405180910390fd5b60008060009054906101000a900473ffffffffffffffffffffffffffffffffffffffff169050336000806101000a81548173ffffffffffffffffffffffffffffffffffffffff021916908373ffffffffffffffffffffffffffffffffffffffff1602179055506000600160006101000a81548173ffffffffffffffffffffffffffffffffffffffff021916908373ffffffffffffffffffffffffffffffffffffffff1602179055503373ffffffffffffffffffffffffffffffffffffffff168173ffffffffffffffffffffffffffffffffffffffff167f8be0079c531659141344cd1fd0a4f28419497f9722a3daafe3b4186f6b6457e060405160405180910390a350565b6000809054906101000a900473ffffffffffffffffffffffffffffffffffffffff1681565b600061054f85858585610ab3565b61061557600260009054906101000a900473ffffffffffffffffffffffffffffffffffffffff1673ffffffffffffffffffffffffffffffffffffffff1663d74af263336040518263ffffffff1660e01b8152600401808273ffffffffffffffffffffffffffffffffffffffff1673ffffffffffffffffffffffffffffffffffffffff168152602001915050600060405180830381600087803b1580156105f457600080fd5b505af1158015610608573d6000803e3d6000fd5b505050506000905061061a565b600190505b949350505050565b6000809054906101000a900473ffffffffffffffffffffffffffffffffffffffff1673ffffffffffffffffffffffffffffffffffffffff163373ffffffffffffffffffffffffffffffffffffffff16146106e4576040517f08c379a00000000000000000000000000000000000000000000000000000000081526004018080602001828103825260168152602001807f4f6e6c792063616c6c61626c65206279206f776e65720000000000000000000081525060200191505060405180910390fd5b6000600160149054906101000a900463ffffffff1690508162ffffff168162ffffff161461076b578162ffffff16600160146101000a81548163ffffffff021916908363ffffffff1602179055508162ffffff168162ffffff167f985b87e809fd5992ec257eac36f25777ce308055dd9249a0182123d7b5d6633a60405160405180910390a35b5050565b6000809054906101000a900473ffffffffffffffffffffffffffffffffffffffff1673ffffffffffffffffffffffffffffffffffffffff163373ffffffffffffffffffffffffffffffffffffffff1614610831576040517f08c379a00000000000000000000000000000000000000000000000000000000081526004018080602001828103825260168152602001807f4f6e6c792063616c6c61626c65206279206f776e65720000000000000000000081525060200191505060405180910390fd5b6000600260009054906101000a900473ffffffffffffffffffffffffffffffffffffffff1690508173ffffffffffffffffffffffffffffffffffffffff168173ffffffffffffffffffffffffffffffffffffffff16146109275781600260006101000a81548173ffffffffffffffffffffffffffffffffffffffff021916908373ffffffffffffffffffffffffffffffffffffffff1602179055508173ffffffffffffffffffffffffffffffffffffffff168173ffffffffffffffffffffffffffffffffffffffff167f900aa01828592ab069e4d44e7a36c70ebd476e35f567c7db6a691e503b8029d860405160405180910390a35b5050565b620186a081565b6000809054906101000a900473ffffffffffffffffffffffffffffffffffffffff1673ffffffffffffffffffffffffffffffffffffffff163373ffffffffffffffffffffffffffffffffffffffff16146109f4576040517f08c379a00000000000000000000000000000000000000000000000000000000081526004018080602001828103825260168152602001807f4f6e6c792063616c6c61626c65206279206f776e65720000000000000000000081525060200191505060405180910390fd5b80600160006101000a81548173ffffffffffffffffffffffffffffffffffffffff021916908373ffffffffffffffffffffffffffffffffffffffff1602179055508073ffffffffffffffffffffffffffffffffffffffff166000809054906101000a900473ffffffffffffffffffffffffffffffffffffffff1673ffffffffffffffffffffffffffffffffffffffff167fed8889f560326eb138920d842192f0eb3dd22b4f139c87a2c57538e05bae127860405160405180910390a350565b600080841415610ac65760019050610b78565b600080610adc8487610b8090919063ffffffff16565b91509150600080610aff620186a063ffffffff1685610bd690919063ffffffff16565b91509150600080610b198a85610c8b90919063ffffffff16565b91509150600080610b2984610d26565b91509150868015610b375750845b8015610b405750825b8015610b495750805b8015610b6d5750600160149054906101000a900463ffffffff1663ffffffff168211155b985050505050505050505b949350505050565b60008060008385039050600084128015610b9a5750848113155b80610bb1575060008412158015610bb057508481135b5b15610bc6576000808191509250925050610bcf565b80600192509250505b9250929050565b6000806000841415610bf2576000600181915091509150610c84565b7fffffffffffffffffffffffffffffffffffffffffffffffffffffffffffffffff84148015610c4057507f800000000000000000000000000000000000000000000000000000000000000083145b15610c545760008081915091509150610c84565b6000838502905083858281610c6557fe5b0514610c7b576000808191509250925050610c84565b80600192509250505b9250929050565b6000806000831415610ca65760008081915091509150610d1f565b7fffffffffffffffffffffffffffffffffffffffffffffffffffffffffffffffff83148015610cf457507f800000000000000000000000000000000000000000000000000000000000000084145b15610d085760008081915091509150610d1f565b6000838581610d1357fe5b05905080600192509250505b9250929050565b60008060008312610d3d5782600191509150610d9e565b7f8000000000000000000000000000000000000000000000000000000000000000831415610d745760008081915091509150610d9e565b7fffffffffffffffffffffffffffffffffffffffffffffffffffffffffffffffff83026001915091505b91509156fea2646970667358221220dbbdb3a1d93a8edae079edb98bdd1b4adca556ed30d72c25d1cf868fa45d730d64736f6c63430006060033",
  "immutableReferences": {},
  "source": "// SPDX-License-Identifier: MIT\npragma solidity 0.6.6;\n\nimport \"./Owned.sol\";\nimport \"./CheckedMath.sol\";\nimport \"./interfaces/AggregatorValidatorInterface.sol\";\nimport \"./interfaces/FlagsInterface.sol\";\n\n/**\n * @title The Deviation Flagging Validator contract\n * @notice Checks the current value against the previous value, and makes sure\n * that it does not deviate outside of some relative range. If the deviation\n * threshold is passed then the validator raises a flag on the designated\n * flag contract.\n */\ncontract DeviationFlaggingValidator is Owned, AggregatorValidatorInterface {\n  using CheckedMath for int256;\n\n  uint32 constant public THRESHOLD_MULTIPLIER = 100000;\n\n  uint32 public flaggingThreshold;\n  FlagsInterface public flags;\n\n  event FlaggingThresholdUpdated(\n    uint24 indexed previous,\n    uint24 indexed current\n  );\n  event FlagsAddressUpdated(\n    address indexed previous,\n    address indexed current\n  );\n\n  int256 constant private INT256_MIN = -2**255;\n\n  /**\n   * @notice sets up the validator with its threshold and flag address.\n   * @param _flags sets the address of the flags contract\n   * @param _flaggingThreshold sets the threshold that will trigger a flag to be\n   * raised. Setting the value of 100,000 is equivalent to tolerating a 100%\n   * change compared to the previous price.\n   */\n  constructor(\n    address _flags,\n    uint24 _flaggingThreshold\n  )\n    public\n  {\n    setFlagsAddress(_flags);\n    setFlaggingThreshold(_flaggingThreshold);\n  }\n\n  /**\n   * @notice checks whether the parameters count as valid by comparing the\n   * difference change to the flagging threshold.\n   * @param _previousRoundId is ignored.\n   * @param _previousAnswer is used as the median of the difference with the\n   * current answer to determine if the deviation threshold has been exceeded.\n   * @param _roundId is ignored.\n   * @param _answer is the latest answer which is compared for a ratio of change\n   * to make sure it has not execeeded the flagging threshold.\n   */\n  function validate(\n    uint256 _previousRoundId,\n    int256 _previousAnswer,\n    uint256 _roundId,\n    int256 _answer\n  )\n    external\n    override\n    returns (bool)\n  {\n    if (!isValid(_previousRoundId, _previousAnswer, _roundId, _answer)) {\n      flags.raiseFlag(msg.sender);\n      return false;\n    }\n\n    return true;\n  }\n\n  /**\n   * @notice checks whether the parameters count as valid by comparing the\n   * difference change to the flagging threshold and raises a flag on the\n   * flagging contract if so.\n   * @param _previousAnswer is used as the median of the difference with the\n   * current answer to determine if the deviation threshold has been exceeded.\n   * @param _answer is the current answer which is compared for a ratio of\n   * change * to make sure it has not execeeded the flagging threshold.\n   */\n  function isValid(\n    uint256 ,\n    int256 _previousAnswer,\n    uint256 ,\n    int256 _answer\n  )\n    public\n    view\n    returns (bool)\n  {\n    if (_previousAnswer == 0) return true;\n\n    (int256 change, bool changeOk) = _previousAnswer.sub(_answer);\n    (int256 ratioNumerator, bool numOk) = change.mul(THRESHOLD_MULTIPLIER);\n    (int256 ratio, bool ratioOk) = ratioNumerator.div(_previousAnswer);\n    (uint256 absRatio, bool absOk) = abs(ratio);\n\n    return changeOk && numOk && ratioOk && absOk && absRatio <= flaggingThreshold;\n  }\n\n  /**\n   * @notice updates the flagging threshold\n   * @param _flaggingThreshold sets the threshold that will trigger a flag to be\n   * raised. Setting the value of 100,000 is equivalent to tolerating a 100%\n   * change compared to the previous price.\n   */\n  function setFlaggingThreshold(uint24 _flaggingThreshold)\n    public\n    onlyOwner()\n  {\n    uint24 previousFT = uint24(flaggingThreshold);\n\n    if (previousFT != _flaggingThreshold) {\n      flaggingThreshold = _flaggingThreshold;\n\n      emit FlaggingThresholdUpdated(previousFT, _flaggingThreshold);\n    }\n  }\n\n  /**\n   * @notice updates the flagging contract address for raising flags\n   * @param _flags sets the address of the flags contract\n   */\n  function setFlagsAddress(address _flags)\n    public\n    onlyOwner()\n  {\n    address previous = address(flags);\n\n    if (previous != _flags) {\n      flags = FlagsInterface(_flags);\n\n      emit FlagsAddressUpdated(previous, _flags);\n    }\n  }\n\n\n  // PRIVATE\n\n  function abs(\n    int256 value\n  )\n    private\n    pure\n    returns (uint256, bool)\n  {\n    if (value >= 0) return (uint256(value), true);\n    if (value == CheckedMath.INT256_MIN) return (0, false);\n    return (uint256(value * -1), true);\n  }\n\n}\n",
  "sourcePath": "/home/rol/Desktop/lotteryVue/lottery/contracts/v0.6/DeviationFlaggingValidator.sol",
  "compiler": {
    "name": "solc",
    "version": "0.6.6+commit.6c089d02.Emscripten.clang"
  },
  "schemaVersion": "3.4.1",
  "updatedAt": "2021-07-24T09:01:28.018Z",
  "devdoc": {
    "methods": {
      "acceptOwnership()": {
        "details": "Allows an ownership transfer to be completed by the recipient."
      },
      "constructor": {
        "params": {
          "_flaggingThreshold": "sets the threshold that will trigger a flag to be raised. Setting the value of 100,000 is equivalent to tolerating a 100% change compared to the previous price.",
          "_flags": "sets the address of the flags contract"
        }
      },
      "isValid(uint256,int256,uint256,int256)": {
        "params": {
          "_answer": "is the current answer which is compared for a ratio of change * to make sure it has not execeeded the flagging threshold.",
          "_previousAnswer": "is used as the median of the difference with the current answer to determine if the deviation threshold has been exceeded."
        }
      },
      "setFlaggingThreshold(uint24)": {
        "params": {
          "_flaggingThreshold": "sets the threshold that will trigger a flag to be raised. Setting the value of 100,000 is equivalent to tolerating a 100% change compared to the previous price."
        }
      },
      "setFlagsAddress(address)": {
        "params": {
          "_flags": "sets the address of the flags contract"
        }
      },
      "transferOwnership(address)": {
        "details": "Allows an owner to begin transferring ownership to a new address, pending."
      },
      "validate(uint256,int256,uint256,int256)": {
        "params": {
          "_answer": "is the latest answer which is compared for a ratio of change to make sure it has not execeeded the flagging threshold.",
          "_previousAnswer": "is used as the median of the difference with the current answer to determine if the deviation threshold has been exceeded.",
          "_previousRoundId": "is ignored.",
          "_roundId": "is ignored."
        }
      }
    },
    "title": "The Deviation Flagging Validator contract"
  },
  "userdoc": {
    "methods": {
      "constructor": "sets up the validator with its threshold and flag address.",
      "isValid(uint256,int256,uint256,int256)": {
        "notice": "checks whether the parameters count as valid by comparing the difference change to the flagging threshold and raises a flag on the flagging contract if so."
      },
      "setFlaggingThreshold(uint24)": {
        "notice": "updates the flagging threshold"
      },
      "setFlagsAddress(address)": {
        "notice": "updates the flagging contract address for raising flags"
      },
      "validate(uint256,int256,uint256,int256)": {
        "notice": "checks whether the parameters count as valid by comparing the difference change to the flagging threshold."
      }
    },
    "notice": "Checks the current value against the previous value, and makes sure that it does not deviate outside of some relative range. If the deviation threshold is passed then the validator raises a flag on the designated flag contract."
  }
}