{
  "contractName": "PickupLottery",
  "abi": [
    {
      "inputs": [],
      "stateMutability": "nonpayable",
      "type": "constructor"
    },
    {
      "anonymous": false,
      "inputs": [
        {
          "indexed": false,
          "internalType": "uint256",
          "name": "oldBonus",
          "type": "uint256"
        },
        {
          "indexed": false,
          "internalType": "uint256",
          "name": "newBonus",
          "type": "uint256"
        }
      ],
      "name": "BonusPercentageChanged",
      "type": "event"
    },
    {
      "anonymous": false,
      "inputs": [
        {
          "indexed": false,
          "internalType": "uint256",
          "name": "numberOfPicks",
          "type": "uint256"
        }
      ],
      "name": "CardPicked",
      "type": "event"
    },
    {
      "anonymous": false,
      "inputs": [
        {
          "indexed": false,
          "internalType": "uint256",
          "name": "oldFee",
          "type": "uint256"
        },
        {
          "indexed": false,
          "internalType": "uint256",
          "name": "newFee",
          "type": "uint256"
        }
      ],
      "name": "FeeChanged",
      "type": "event"
    },
    {
      "anonymous": false,
      "inputs": [
        {
          "indexed": false,
          "internalType": "uint256",
          "name": "startedTime",
          "type": "uint256"
        }
      ],
      "name": "GameStarted",
      "type": "event"
    },
    {
      "anonymous": false,
      "inputs": [
        {
          "indexed": false,
          "internalType": "uint256",
          "name": "startedTime",
          "type": "uint256"
        },
        {
          "indexed": false,
          "internalType": "uint256",
          "name": "stoppedTime",
          "type": "uint256"
        }
      ],
      "name": "GameStopped",
      "type": "event"
    },
    {
      "anonymous": false,
      "inputs": [
        {
          "indexed": true,
          "internalType": "address",
          "name": "previousOwner",
          "type": "address"
        },
        {
          "indexed": true,
          "internalType": "address",
          "name": "newOwner",
          "type": "address"
        }
      ],
      "name": "OwnershipTransferred",
      "type": "event"
    },
    {
      "anonymous": false,
      "inputs": [
        {
          "indexed": false,
          "internalType": "uint8",
          "name": "oldLimit",
          "type": "uint8"
        },
        {
          "indexed": false,
          "internalType": "uint8",
          "name": "newLimit",
          "type": "uint8"
        }
      ],
      "name": "PickupLimitChanged",
      "type": "event"
    },
    {
      "anonymous": false,
      "inputs": [
        {
          "indexed": false,
          "internalType": "uint256",
          "name": "oldLimit",
          "type": "uint256"
        },
        {
          "indexed": false,
          "internalType": "uint256",
          "name": "newLimit",
          "type": "uint256"
        }
      ],
      "name": "TimeLimitChanged",
      "type": "event"
    },
    {
      "anonymous": false,
      "inputs": [
        {
          "indexed": false,
          "internalType": "uint8",
          "name": "oldCard",
          "type": "uint8"
        },
        {
          "indexed": false,
          "internalType": "uint8",
          "name": "newCard",
          "type": "uint8"
        }
      ],
      "name": "WinningCardChanged",
      "type": "event"
    },
    {
      "inputs": [],
      "name": "bonusPercentage",
      "outputs": [
        {
          "internalType": "uint256",
          "name": "",
          "type": "uint256"
        }
      ],
      "stateMutability": "view",
      "type": "function",
      "constant": true
    },
    {
      "inputs": [],
      "name": "endTime",
      "outputs": [
        {
          "internalType": "uint256",
          "name": "",
          "type": "uint256"
        }
      ],
      "stateMutability": "view",
      "type": "function",
      "constant": true
    },
    {
      "inputs": [],
      "name": "fee",
      "outputs": [
        {
          "internalType": "uint256",
          "name": "",
          "type": "uint256"
        }
      ],
      "stateMutability": "view",
      "type": "function",
      "constant": true
    },
    {
      "inputs": [],
      "name": "owner",
      "outputs": [
        {
          "internalType": "address",
          "name": "",
          "type": "address"
        }
      ],
      "stateMutability": "view",
      "type": "function",
      "constant": true
    },
    {
      "inputs": [],
      "name": "pickupLimit",
      "outputs": [
        {
          "internalType": "uint8",
          "name": "",
          "type": "uint8"
        }
      ],
      "stateMutability": "view",
      "type": "function",
      "constant": true
    },
    {
      "inputs": [],
      "name": "renounceOwnership",
      "outputs": [],
      "stateMutability": "nonpayable",
      "type": "function"
    },
    {
      "inputs": [],
      "name": "started",
      "outputs": [
        {
          "internalType": "bool",
          "name": "",
          "type": "bool"
        }
      ],
      "stateMutability": "view",
      "type": "function",
      "constant": true
    },
    {
      "inputs": [],
      "name": "startedTime",
      "outputs": [
        {
          "internalType": "uint256",
          "name": "",
          "type": "uint256"
        }
      ],
      "stateMutability": "view",
      "type": "function",
      "constant": true
    },
    {
      "inputs": [],
      "name": "timeLimit",
      "outputs": [
        {
          "internalType": "uint256",
          "name": "",
          "type": "uint256"
        }
      ],
      "stateMutability": "view",
      "type": "function",
      "constant": true
    },
    {
      "inputs": [
        {
          "internalType": "address",
          "name": "newOwner",
          "type": "address"
        }
      ],
      "name": "transferOwnership",
      "outputs": [],
      "stateMutability": "nonpayable",
      "type": "function"
    },
    {
      "inputs": [
        {
          "internalType": "uint256",
          "name": "",
          "type": "uint256"
        }
      ],
      "name": "winners",
      "outputs": [
        {
          "internalType": "string",
          "name": "",
          "type": "string"
        }
      ],
      "stateMutability": "view",
      "type": "function",
      "constant": true
    },
    {
      "inputs": [],
      "name": "winningCard",
      "outputs": [
        {
          "internalType": "uint8",
          "name": "",
          "type": "uint8"
        }
      ],
      "stateMutability": "view",
      "type": "function",
      "constant": true
    },
    {
      "inputs": [
        {
          "internalType": "uint256",
          "name": "_fee",
          "type": "uint256"
        }
      ],
      "name": "updateFee",
      "outputs": [],
      "stateMutability": "nonpayable",
      "type": "function"
    },
    {
      "inputs": [
        {
          "internalType": "uint8",
          "name": "_card",
          "type": "uint8"
        }
      ],
      "name": "updateWinningCard",
      "outputs": [],
      "stateMutability": "nonpayable",
      "type": "function"
    },
    {
      "inputs": [
        {
          "internalType": "uint8",
          "name": "_limit",
          "type": "uint8"
        }
      ],
      "name": "updatePickupLimit",
      "outputs": [],
      "stateMutability": "nonpayable",
      "type": "function"
    },
    {
      "inputs": [
        {
          "internalType": "uint256",
          "name": "_limit",
          "type": "uint256"
        }
      ],
      "name": "updateTimeLimit",
      "outputs": [],
      "stateMutability": "nonpayable",
      "type": "function"
    },
    {
      "inputs": [
        {
          "internalType": "uint256",
          "name": "_bonus",
          "type": "uint256"
        }
      ],
      "name": "updateBonusPercentage",
      "outputs": [],
      "stateMutability": "nonpayable",
      "type": "function"
    },
    {
      "inputs": [],
      "name": "startGame",
      "outputs": [],
      "stateMutability": "nonpayable",
      "type": "function"
    },
    {
      "inputs": [],
      "name": "stopGame",
      "outputs": [],
      "stateMutability": "nonpayable",
      "type": "function"
    },
    {
      "inputs": [],
      "name": "cancel",
      "outputs": [],
      "stateMutability": "nonpayable",
      "type": "function"
    },
    {
      "inputs": [
        {
          "internalType": "address payable",
          "name": "recipient",
          "type": "address"
        },
        {
          "internalType": "uint256",
          "name": "amount",
          "type": "uint256"
        }
      ],
      "name": "transfer",
      "outputs": [],
      "stateMutability": "nonpayable",
      "type": "function"
    },
    {
      "inputs": [
        {
          "internalType": "bytes",
          "name": "nickName",
          "type": "bytes"
        }
      ],
      "name": "pick",
      "outputs": [
        {
          "internalType": "uint8",
          "name": "card",
          "type": "uint8"
        }
      ],
      "stateMutability": "payable",
      "type": "function",
      "payable": true
    },
    {
      "inputs": [],
      "name": "picked",
      "outputs": [
        {
          "internalType": "uint8",
          "name": "card",
          "type": "uint8"
        }
      ],
      "stateMutability": "view",
      "type": "function",
      "constant": true
    },
    {
      "inputs": [
        {
          "internalType": "uint256",
          "name": "amount",
          "type": "uint256"
        }
      ],
      "name": "withdraw",
      "outputs": [],
      "stateMutability": "nonpayable",
      "type": "function"
    },
    {
      "inputs": [],
      "name": "leftTime",
      "outputs": [
        {
          "internalType": "uint256",
          "name": "",
          "type": "uint256"
        }
      ],
      "stateMutability": "view",
      "type": "function",
      "constant": true
    },
    {
      "inputs": [],
      "name": "progress",
      "outputs": [
        {
          "internalType": "uint256",
          "name": "",
          "type": "uint256"
        }
      ],
      "stateMutability": "view",
      "type": "function",
      "constant": true
    },
    {
      "inputs": [],
      "name": "allPickedUp",
      "outputs": [
        {
          "internalType": "uint8[]",
          "name": "",
          "type": "uint8[]"
        }
      ],
      "stateMutability": "view",
      "type": "function",
      "constant": true
    },
    {
      "inputs": [],
      "name": "winner",
      "outputs": [
        {
          "internalType": "string",
          "name": "",
          "type": "string"
        }
      ],
      "stateMutability": "view",
      "type": "function",
      "constant": true
    },
    {
      "inputs": [],
      "name": "winnersCount",
      "outputs": [
        {
          "internalType": "uint256",
          "name": "",
          "type": "uint256"
        }
      ],
      "stateMutability": "view",
      "type": "function",
      "constant": true
    }
  ],
  "bytecode": "0x6080604052662386f26fc100006003556001600460006101000a81548160ff021916908360ff1602179055506028600460016101000a81548160ff021916908360ff16021790555063240c8400600555605a6006556000600760006101000a81548160ff0219169083151502179055503480156200007c57600080fd5b5060006200008f6200028460201b60201c565b905080600260006101000a81548173ffffffffffffffffffffffffffffffffffffffff021916908373ffffffffffffffffffffffffffffffffffffffff1602179055508073ffffffffffffffffffffffffffffffffffffffff16600073ffffffffffffffffffffffffffffffffffffffff167f8be0079c531659141344cd1fd0a4f28419497f9722a3daafe3b4186f6b6457e060405160405180910390a350601080600181540180825580915050600190039060005260206000200160006040518060400160405280600381526020017f53616d0000000000000000000000000000000000000000000000000000000000815250909190915090805190602001906200019d9291906200028c565b50601080600181540180825580915050600190039060005260206000200160006040518060400160405280600481526020017f4a6f686e00000000000000000000000000000000000000000000000000000000815250909190915090805190602001906200020d9291906200028c565b50601080600181540180825580915050600190039060005260206000200160006040518060400160405280600a81526020017f436f6e736f727469756d00000000000000000000000000000000000000000000815250909190915090805190602001906200027d9291906200028c565b5062000332565b600033905090565b828054600181600116156101000203166002900490600052602060002090601f016020900481019282601f10620002cf57805160ff191683800117855562000300565b8280016001018555821562000300579182015b82811115620002ff578251825591602001919060010190620002e2565b5b5090506200030f919062000313565b5090565b5b808211156200032e57600081600090555060010162000314565b5090565b612eaf80620003426000396000f3fe6080604052600436106101c25760003560e01c8063a2fb1175116100f7578063d78317bf11610095578063ee17b95911610064578063ee17b9591461080e578063f2fde38b1461084c578063f8351daf1461089d578063fcd95a1a146108cb576101c2565b8063d78317bf14610711578063ddca3f431461073c578063dfbf53ae14610767578063ea8a1af0146107f7576101c2565b8063c08d1fe5116100d1578063c08d1fe514610676578063cca38d44146106a1578063cebc6ad5146106cf578063d65ab5f2146106fa576101c2565b8063a2fb11751461052c578063a312ac97146105e0578063a9059cbb1461061b576101c2565b8063577bd3361161016457806383bd72ba1161013e57806383bd72ba1461046b5780638aa83721146104825780638da5cb5b146104b05780639012c4a8146104f1576101c2565b8063577bd336146103fe578063715018a614610429578063813d6c9a14610440576101c2565b8063338d3e9a116101a0578063338d3e9a1461025a57806334cf95c7146102c65780633bb4e2621461030157806349713811146103d3576101c2565b80631f2698ab146101c75780632e1a7d4d146101f45780633197cbb61461022f575b600080fd5b3480156101d357600080fd5b506101dc610909565b60405180821515815260200191505060405180910390f35b34801561020057600080fd5b5061022d6004803603602081101561021757600080fd5b810190808035906020019092919050505061091c565b005b34801561023b57600080fd5b50610244610a67565b6040518082815260200191505060405180910390f35b34801561026657600080fd5b5061026f610a6d565b6040518080602001828103825283818151815260200191508051906020019060200280838360005b838110156102b2578082015181840152602081019050610297565b505050509050019250505060405180910390f35b3480156102d257600080fd5b506102ff600480360360208110156102e957600080fd5b8101908080359060200190929190505050610ba2565b005b6103ba6004803603602081101561031757600080fd5b810190808035906020019064010000000081111561033457600080fd5b82018360208201111561034657600080fd5b8035906020019184600183028401116401000000008311171561036857600080fd5b91908080601f016020809104026020016040519081016040528093929190818152602001838380828437600081840152601f19601f820116905080830192505050505050509192919290505050610d36565b604051808260ff16815260200191505060405180910390f35b3480156103df57600080fd5b506103e86110e1565b6040518082815260200191505060405180910390f35b34801561040a57600080fd5b506104136110ee565b6040518082815260200191505060405180910390f35b34801561043557600080fd5b5061043e6110fb565b005b34801561044c57600080fd5b50610455611286565b6040518082815260200191505060405180910390f35b34801561047757600080fd5b5061048061128c565b005b34801561048e57600080fd5b506104976113ac565b604051808260ff16815260200191505060405180910390f35b3480156104bc57600080fd5b506104c5611400565b604051808273ffffffffffffffffffffffffffffffffffffffff16815260200191505060405180910390f35b3480156104fd57600080fd5b5061052a6004803603602081101561051457600080fd5b810190808035906020019092919050505061142a565b005b34801561053857600080fd5b506105656004803603602081101561054f57600080fd5b81019080803590602001909291905050506115cf565b6040518080602001828103825283818151815260200191508051906020019080838360005b838110156105a557808201518184015260208101905061058a565b50505050905090810190601f1680156105d25780820380516001836020036101000a031916815260200191505b509250505060405180910390f35b3480156105ec57600080fd5b506106196004803603602081101561060357600080fd5b8101908080359060200190929190505050611688565b005b34801561062757600080fd5b506106746004803603604081101561063e57600080fd5b81019080803573ffffffffffffffffffffffffffffffffffffffff16906020019092919080359060200190929190505050611822565b005b34801561068257600080fd5b5061068b6119ac565b6040518082815260200191505060405180910390f35b3480156106ad57600080fd5b506106b66119b2565b604051808260ff16815260200191505060405180910390f35b3480156106db57600080fd5b506106e46119c5565b6040518082815260200191505060405180910390f35b34801561070657600080fd5b5061070f6119cb565b005b34801561071d57600080fd5b50610726611c88565b6040518082815260200191505060405180910390f35b34801561074857600080fd5b50610751611cdd565b6040518082815260200191505060405180910390f35b34801561077357600080fd5b5061077c611ce3565b6040518080602001828103825283818151815260200191508051906020019080838360005b838110156107bc5780820151818401526020810190506107a1565b50505050905090810190601f1680156107e95780820380516001836020036101000a031916815260200191505b509250505060405180910390f35b34801561080357600080fd5b5061080c611dd7565b005b34801561081a57600080fd5b5061084a6004803603602081101561083157600080fd5b81019080803560ff169060200190929190505050611eef565b005b34801561085857600080fd5b5061089b6004803603602081101561086f57600080fd5b81019080803573ffffffffffffffffffffffffffffffffffffffff1690602001909291905050506120b0565b005b3480156108a957600080fd5b506108b26122c0565b604051808260ff16815260200191505060405180910390f35b3480156108d757600080fd5b50610907600480360360208110156108ee57600080fd5b81019080803560ff1690602001909291905050506122d3565b005b600760009054906101000a900460ff1681565b80600f60003373ffffffffffffffffffffffffffffffffffffffff1673ffffffffffffffffffffffffffffffffffffffff16815260200190815260200160002054116109d0576040517f08c379a00000000000000000000000000000000000000000000000000000000081526004018080602001828103825260138152602001807f496e73756666696369656e742066756e64732e0000000000000000000000000081525060200191505060405180910390fd5b80600f60003373ffffffffffffffffffffffffffffffffffffffff1673ffffffffffffffffffffffffffffffffffffffff168152602001908152602001600020600082825403925050819055503373ffffffffffffffffffffffffffffffffffffffff166108fc829081150290604051600060405180830381858888f19350505050158015610a63573d6000803e3d6000fd5b5050565b60095481565b6060600760009054906101000a900460ff1615610a8957600080fd5b6060600b8054905067ffffffffffffffff81118015610aa757600080fd5b50604051908082528060200260200182016040528015610ad65781602001602082028036833780820191505090505b50905060005b600b80549050811015610b9a57600c6000600b8381548110610afa57fe5b9060005260206000200160009054906101000a900473ffffffffffffffffffffffffffffffffffffffff1673ffffffffffffffffffffffffffffffffffffffff1673ffffffffffffffffffffffffffffffffffffffff16815260200190815260200160002060009054906101000a900460ff16828281518110610b7957fe5b602002602001019060ff16908160ff16815250508080600101915050610adc565b508091505090565b610baa6124b3565b73ffffffffffffffffffffffffffffffffffffffff16600260009054906101000a900473ffffffffffffffffffffffffffffffffffffffff1673ffffffffffffffffffffffffffffffffffffffff1614610c6c576040517f08c379a00000000000000000000000000000000000000000000000000000000081526004018080602001828103825260208152602001807f4f776e61626c653a2063616c6c6572206973206e6f7420746865206f776e657281525060200191505060405180910390fd5b600760009054906101000a900460ff1615610c8657600080fd5b600081118015610c965750605f81105b610ceb576040517f08c379a0000000000000000000000000000000000000000000000000000000008152600401808060200182810382526036815260200180612da96036913960400191505060405180910390fd5b7f6eac2ff5c5b54b2d9f88ca9f70f648236dd7f8cfc02b14fb78b9f8165bb2f73a60065482604051808381526020018281526020019250505060405180910390a18060068190555050565b6000600760009054906101000a900460ff168015610d5957506005546008540142105b8015610d7b5750600460019054906101000a900460ff1660ff16600b80549050105b610d8457600080fd5b6000600c60003373ffffffffffffffffffffffffffffffffffffffff1673ffffffffffffffffffffffffffffffffffffffff16815260200190815260200160002060009054906101000a900460ff1660ff1614610e49576040517f08c379a00000000000000000000000000000000000000000000000000000000081526004018080602001828103825260208152602001807f506c617965722063616e207069636b2075702063617264206174206f6e63652e81525060200191505060405180910390fd5b600354341015610ea4576040517f08c379a0000000000000000000000000000000000000000000000000000000008152600401808060200182810382526022815260200180612ddf6022913960400191505060405180910390fd5b600082511115610f035781600e60003373ffffffffffffffffffffffffffffffffffffffff1673ffffffffffffffffffffffffffffffffffffffff1681526020019081526020016000209080519060200190610f01929190612c44565b505b6000600b8054905060368110610f1557fe5b602091828204019190069054906101000a900460ff16600c60003373ffffffffffffffffffffffffffffffffffffffff1673ffffffffffffffffffffffffffffffffffffffff16815260200190815260200160002060006101000a81548160ff021916908360ff160217905550600b339080600181540180825580915050600190039060005260206000200160009091909190916101000a81548173ffffffffffffffffffffffffffffffffffffffff021916908373ffffffffffffffffffffffffffffffffffffffff16021790555034600d60003373ffffffffffffffffffffffffffffffffffffffff1673ffffffffffffffffffffffffffffffffffffffff168152602001908152602001600020819055507fee4358dfced78623283b935cd31843787339483c153fa8d4a72e53ba9fdd885d600b805490506040518082815260200191505060405180910390a1600460019054906101000a900460ff1660ff16600b80549050141561108d5761108c6124bb565b5b600c60003373ffffffffffffffffffffffffffffffffffffffff1673ffffffffffffffffffffffffffffffffffffffff16815260200190815260200160002060009054906101000a900460ff169050919050565b6000601080549050905090565b6000600b80549050905090565b6111036124b3565b73ffffffffffffffffffffffffffffffffffffffff16600260009054906101000a900473ffffffffffffffffffffffffffffffffffffffff1673ffffffffffffffffffffffffffffffffffffffff16146111c5576040517f08c379a00000000000000000000000000000000000000000000000000000000081526004018080602001828103825260208152602001807f4f776e61626c653a2063616c6c6572206973206e6f7420746865206f776e657281525060200191505060405180910390fd5b600073ffffffffffffffffffffffffffffffffffffffff16600260009054906101000a900473ffffffffffffffffffffffffffffffffffffffff1673ffffffffffffffffffffffffffffffffffffffff167f8be0079c531659141344cd1fd0a4f28419497f9722a3daafe3b4186f6b6457e060405160405180910390a36000600260006101000a81548173ffffffffffffffffffffffffffffffffffffffff021916908373ffffffffffffffffffffffffffffffffffffffff160217905550565b60065481565b6112946124b3565b73ffffffffffffffffffffffffffffffffffffffff16600260009054906101000a900473ffffffffffffffffffffffffffffffffffffffff1673ffffffffffffffffffffffffffffffffffffffff1614611356576040517f08c379a00000000000000000000000000000000000000000000000000000000081526004018080602001828103825260208152602001807f4f776e61626c653a2063616c6c6572206973206e6f7420746865206f776e657281525060200191505060405180910390fd5b600760009054906101000a900460ff16801561137757506005546008540142105b80156113995750600460019054906101000a900460ff1660ff16600b80549050105b6113a257600080fd5b6113aa6124bb565b565b6000600c60003373ffffffffffffffffffffffffffffffffffffffff1673ffffffffffffffffffffffffffffffffffffffff16815260200190815260200160002060009054906101000a900460ff16905090565b6000600260009054906101000a900473ffffffffffffffffffffffffffffffffffffffff16905090565b6114326124b3565b73ffffffffffffffffffffffffffffffffffffffff16600260009054906101000a900473ffffffffffffffffffffffffffffffffffffffff1673ffffffffffffffffffffffffffffffffffffffff16146114f4576040517f08c379a00000000000000000000000000000000000000000000000000000000081526004018080602001828103825260208152602001807f4f776e61626c653a2063616c6c6572206973206e6f7420746865206f776e657281525060200191505060405180910390fd5b600760009054906101000a900460ff161561150e57600080fd5b60008111611584576040517f08c379a00000000000000000000000000000000000000000000000000000000081526004018080602001828103825260178152602001807f4665652073686f756c64206e6f74206265207a65726f2e00000000000000000081525060200191505060405180910390fd5b7f5fc463da23c1b063e66f9e352006a7fbe8db7223c455dc429e881a2dfe2f94f160035482604051808381526020018281526020019250505060405180910390a18060038190555050565b601081815481106115dc57fe5b906000526020600020016000915090508054600181600116156101000203166002900480601f0160208091040260200160405190810160405280929190818152602001828054600181600116156101000203166002900480156116805780601f1061165557610100808354040283529160200191611680565b820191906000526020600020905b81548152906001019060200180831161166357829003601f168201915b505050505081565b6116906124b3565b73ffffffffffffffffffffffffffffffffffffffff16600260009054906101000a900473ffffffffffffffffffffffffffffffffffffffff1673ffffffffffffffffffffffffffffffffffffffff1614611752576040517f08c379a00000000000000000000000000000000000000000000000000000000081526004018080602001828103825260208152602001807f4f776e61626c653a2063616c6c6572206973206e6f7420746865206f776e657281525060200191505060405180910390fd5b600760009054906101000a900460ff161561176c57600080fd5b620493e081118015611782575064039ef8b00081105b6117d7576040517f08c379a0000000000000000000000000000000000000000000000000000000008152600401808060200182810382526034815260200180612e466034913960400191505060405180910390fd5b7f37ed38756959b798a76773d88a831f6ae750221b3199808c4700d970754aea5360055482604051808381526020018281526020019250505060405180910390a18060058190555050565b61182a6124b3565b73ffffffffffffffffffffffffffffffffffffffff16600260009054906101000a900473ffffffffffffffffffffffffffffffffffffffff1673ffffffffffffffffffffffffffffffffffffffff16146118ec576040517f08c379a00000000000000000000000000000000000000000000000000000000081526004018080602001828103825260208152602001807f4f776e61626c653a2063616c6c6572206973206e6f7420746865206f776e657281525060200191505060405180910390fd5b804711611961576040517f08c379a00000000000000000000000000000000000000000000000000000000081526004018080602001828103825260158152602001807f496e73756666696369656e742062616c616e63652e000000000000000000000081525060200191505060405180910390fd5b8173ffffffffffffffffffffffffffffffffffffffff166108fc829081150290604051600060405180830381858888f193505050501580156119a7573d6000803e3d6000fd5b505050565b60055481565b600460019054906101000a900460ff1681565b60085481565b6119d36124b3565b73ffffffffffffffffffffffffffffffffffffffff16600260009054906101000a900473ffffffffffffffffffffffffffffffffffffffff1673ffffffffffffffffffffffffffffffffffffffff1614611a95576040517f08c379a00000000000000000000000000000000000000000000000000000000081526004018080602001828103825260208152602001807f4f776e61626c653a2063616c6c6572206973206e6f7420746865206f776e657281525060200191505060405180910390fd5b600760009054906101000a900460ff1615611aaf57600080fd5b60005b600b80549050811015611bcc57600d6000600b8381548110611ad057fe5b9060005260206000200160009054906101000a900473ffffffffffffffffffffffffffffffffffffffff1673ffffffffffffffffffffffffffffffffffffffff1673ffffffffffffffffffffffffffffffffffffffff16815260200190815260200160002060009055600c6000600b8381548110611b4a57fe5b9060005260206000200160009054906101000a900473ffffffffffffffffffffffffffffffffffffffff1673ffffffffffffffffffffffffffffffffffffffff1673ffffffffffffffffffffffffffffffffffffffff16815260200190815260200160002060006101000a81549060ff02191690558080600101915050611ab2565b506000600a60006101000a81548173ffffffffffffffffffffffffffffffffffffffff021916908373ffffffffffffffffffffffffffffffffffffffff160217905550600960009055600b6000611c239190612cc4565b611c2b6128bf565b6001600760006101000a81548160ff021916908315150217905550426008819055507f50ad08f58a27f2851d7e3a1b3a6a46b290f2ce677e99642d30ff639721e777906008546040518082815260200191505060405180910390a1565b600042611ca26005546008546128c990919063ffffffff16565b11611cae576000611cd8565b611cd742611cc96005546008546128c990919063ffffffff16565b61295190919063ffffffff16565b5b905090565b60035481565b6060600760009054906101000a900460ff1615611cff57600080fd5b600e6000600a60009054906101000a900473ffffffffffffffffffffffffffffffffffffffff1673ffffffffffffffffffffffffffffffffffffffff1673ffffffffffffffffffffffffffffffffffffffff1681526020019081526020016000206040516020018082805460018160011615610100020316600290048015611dbe5780601f10611d9c576101008083540402835291820191611dbe565b820191906000526020600020905b815481529060010190602001808311611daa575b5050915050604051602081830303815290604052905090565b611ddf6124b3565b73ffffffffffffffffffffffffffffffffffffffff16600260009054906101000a900473ffffffffffffffffffffffffffffffffffffffff1673ffffffffffffffffffffffffffffffffffffffff1614611ea1576040517f08c379a00000000000000000000000000000000000000000000000000000000081526004018080602001828103825260208152602001807f4f776e61626c653a2063616c6c6572206973206e6f7420746865206f776e657281525060200191505060405180910390fd5b600760009054906101000a900460ff168015611ec257506005546008540142105b8015611ee45750600460019054906101000a900460ff1660ff16600b80549050105b611eed57600080fd5b565b611ef76124b3565b73ffffffffffffffffffffffffffffffffffffffff16600260009054906101000a900473ffffffffffffffffffffffffffffffffffffffff1673ffffffffffffffffffffffffffffffffffffffff1614611fb9576040517f08c379a00000000000000000000000000000000000000000000000000000000081526004018080602001828103825260208152602001807f4f776e61626c653a2063616c6c6572206973206e6f7420746865206f776e657281525060200191505060405180910390fd5b600760009054906101000a900460ff1615611fd357600080fd5b60008160ff16118015611fe9575060378160ff16105b61203e576040517f08c379a0000000000000000000000000000000000000000000000000000000008152600401808060200182810382526024815260200180612e016024913960400191505060405180910390fd5b7f08ffe957ce49f65f4bfbd9022e67ee04ea50cbae69381ee6a4b992088e92baf2600460019054906101000a900460ff1682604051808360ff1681526020018260ff1681526020019250505060405180910390a180600460016101000a81548160ff021916908360ff16021790555050565b6120b86124b3565b73ffffffffffffffffffffffffffffffffffffffff16600260009054906101000a900473ffffffffffffffffffffffffffffffffffffffff1673ffffffffffffffffffffffffffffffffffffffff161461217a576040517f08c379a00000000000000000000000000000000000000000000000000000000081526004018080602001828103825260208152602001807f4f776e61626c653a2063616c6c6572206973206e6f7420746865206f776e657281525060200191505060405180910390fd5b600073ffffffffffffffffffffffffffffffffffffffff168173ffffffffffffffffffffffffffffffffffffffff161415612200576040517f08c379a0000000000000000000000000000000000000000000000000000000008152600401808060200182810382526026815260200180612d836026913960400191505060405180910390fd5b8073ffffffffffffffffffffffffffffffffffffffff16600260009054906101000a900473ffffffffffffffffffffffffffffffffffffffff1673ffffffffffffffffffffffffffffffffffffffff167f8be0079c531659141344cd1fd0a4f28419497f9722a3daafe3b4186f6b6457e060405160405180910390a380600260006101000a81548173ffffffffffffffffffffffffffffffffffffffff021916908373ffffffffffffffffffffffffffffffffffffffff16021790555050565b600460009054906101000a900460ff1681565b6122db6124b3565b73ffffffffffffffffffffffffffffffffffffffff16600260009054906101000a900473ffffffffffffffffffffffffffffffffffffffff1673ffffffffffffffffffffffffffffffffffffffff161461239d576040517f08c379a00000000000000000000000000000000000000000000000000000000081526004018080602001828103825260208152602001807f4f776e61626c653a2063616c6c6572206973206e6f7420746865206f776e657281525060200191505060405180910390fd5b600760009054906101000a900460ff16156123b757600080fd5b8060008160ff161180156123ce575060378160ff16105b612440576040517f08c379a000000000000000000000000000000000000000000000000000000000815260040180806020018281038252601f8152602001807f436172642073686f756c64206265206265747765656e203120616e642035340081525060200191505060405180910390fd5b7fd22b6c3345433538a352435840df7684278d269505c0582991d5d5bc6895663e600460009054906101000a900460ff1683604051808360ff1681526020018260ff1681526020019250505060405180910390a181600460006101000a81548160ff021916908360ff1602179055505050565b600033905090565b600760009054906101000a900460ff1680156124dc57506005546008540142105b80156124fe5750600460019054906101000a900460ff1660ff16600b80549050105b61250757600080fd5b6000600760006101000a81548160ff02191690831515021790555042600981905550600080600090505b600b8054905081101561267d576000600b828154811061254d57fe5b9060005260206000200160009054906101000a900473ffffffffffffffffffffffffffffffffffffffff169050600d60008273ffffffffffffffffffffffffffffffffffffffff1673ffffffffffffffffffffffffffffffffffffffff16815260200190815260200160002054830192506000600c60008373ffffffffffffffffffffffffffffffffffffffff1673ffffffffffffffffffffffffffffffffffffffff16815260200190815260200160002060009054906101000a900460ff169050600460009054906101000a900460ff1660ff168160ff16141561266e5781600a60006101000a81548173ffffffffffffffffffffffffffffffffffffffff021916908373ffffffffffffffffffffffffffffffffffffffff1602179055505b50508080600101915050612531565b50600073ffffffffffffffffffffffffffffffffffffffff16600a60009054906101000a900473ffffffffffffffffffffffffffffffffffffffff1673ffffffffffffffffffffffffffffffffffffffff1614612879576126fc60646126ee6006548461299b90919063ffffffff16565b612a2190919063ffffffff16565b600f6000600a60009054906101000a900473ffffffffffffffffffffffffffffffffffffffff1673ffffffffffffffffffffffffffffffffffffffff1673ffffffffffffffffffffffffffffffffffffffff168152602001908152602001600020600082825401925050819055506010600e6000600a60009054906101000a900473ffffffffffffffffffffffffffffffffffffffff1673ffffffffffffffffffffffffffffffffffffffff1673ffffffffffffffffffffffffffffffffffffffff168152602001908152602001600020604051602001808280546001816001161561010002031660029004801561282b5780601f1061280957610100808354040283529182019161282b565b820191906000526020600020905b815481529060010190602001808311612817575b5050915050604051602081830303815290604052908060018154018082558091505060019003906000526020600020016000909190919091509080519060200190612877929190612ce5565b505b7f51f7785f5272b0852134145e42b1101dcee2a73ce47a4723e65c2ac5d8458110600854600954604051808381526020018281526020019250505060405180910390a150565b6128c7612a6b565b565b600080828401905083811015612947576040517f08c379a000000000000000000000000000000000000000000000000000000000815260040180806020018281038252601b8152602001807f536166654d6174683a206164646974696f6e206f766572666c6f77000000000081525060200191505060405180910390fd5b8091505092915050565b600061299383836040518060400160405280601e81526020017f536166654d6174683a207375627472616374696f6e206f766572666c6f770000815250612abe565b905092915050565b6000808314156129ae5760009050612a1b565b60008284029050828482816129bf57fe5b0414612a16576040517f08c379a0000000000000000000000000000000000000000000000000000000008152600401808060200182810382526021815260200180612e256021913960400191505060405180910390fd5b809150505b92915050565b6000612a6383836040518060400160405280601a81526020017f536166654d6174683a206469766973696f6e206279207a65726f000000000000815250612b7e565b905092915050565b60005b60368160ff161015612abb576001810160008260ff1660368110612a8e57fe5b602091828204019190066101000a81548160ff021916908360ff1602179055508080600101915050612a6e565b50565b6000838311158290612b6b576040517f08c379a00000000000000000000000000000000000000000000000000000000081526004018080602001828103825283818151815260200191508051906020019080838360005b83811015612b30578082015181840152602081019050612b15565b50505050905090810190601f168015612b5d5780820380516001836020036101000a031916815260200191505b509250505060405180910390fd5b5060008385039050809150509392505050565b60008083118290612c2a576040517f08c379a00000000000000000000000000000000000000000000000000000000081526004018080602001828103825283818151815260200191508051906020019080838360005b83811015612bef578082015181840152602081019050612bd4565b50505050905090810190601f168015612c1c5780820380516001836020036101000a031916815260200191505b509250505060405180910390fd5b506000838581612c3657fe5b049050809150509392505050565b828054600181600116156101000203166002900490600052602060002090601f016020900481019282601f10612c8557805160ff1916838001178555612cb3565b82800160010185558215612cb3579182015b82811115612cb2578251825591602001919060010190612c97565b5b509050612cc09190612d65565b5090565b5080546000825590600052602060002090810190612ce29190612d65565b50565b828054600181600116156101000203166002900490600052602060002090601f016020900481019282601f10612d2657805160ff1916838001178555612d54565b82800160010185558215612d54579182015b82811115612d53578251825591602001919060010190612d38565b5b509050612d619190612d65565b5090565b5b80821115612d7e576000816000905550600101612d66565b509056fe4f776e61626c653a206e6577206f776e657220697320746865207a65726f206164647265737357696e6e6572277320626f6e75732073686f756c64206265206c657373207468616e20393525206f6620616c6c20696e636f6d65732e506c61796572206d7573742070617920746f207069636b207570206120636172642e5069636b7570206c696d69742073686f756c64206265206c657373207468616e2035342e536166654d6174683a206d756c7469706c69636174696f6e206f766572666c6f7754696d65206c696d69742073686f756c64206265206265747765656e2035206d696e7574657320616e642036206d6f6e7468732ea2646970667358221220149f59287c89b1a24b7612b826735a399e3662b0e279857b28bc00197f4e7af164736f6c634300060c0033",
  "immutableReferences": {},
  "source": "// SPDX-License-Identifier: MIT\n\npragma solidity ^0.6.2;\n\nimport \"./WithCards.sol\";\nimport \"./SafeMath.sol\";\nimport \"./Ownable.sol\";\n\n/**\n    [[[ Simple Playing Card Lottery Game ]]]\n*/\ncontract PickupLottery is WithCards, Ownable {\n    using SafeMath for uint256;\n    \n    uint256 public fee = 0.01 * (10**18);\n    uint8 public winningCard = 1;\n    uint8 public pickupLimit = 40;\n    // 1 week limit for single game\n    uint256 public timeLimit = 7 * 24 * 60 * 60 * 1000;\n    uint256 public bonusPercentage = 90;\n\n    uint256 private constant MAX_TIME_LIMIT = 6 * 30 * 24 * 60 * 60 * 1000;\n    uint256 private constant MIN_TIME_LIMIT = 5 * 60 * 1000;\n    uint256 private constant MAX_BONUS_PERCENTAGE = 95;\n\n    bool public started = false;\n    uint256 public startedTime;\n    uint256 public endTime;\n\n    address private _winner;\n\n    address [] private players;\n\n    // player address + picked-up card\n    mapping (address => uint8) private pickupStatus;\n\n    // player address + paid fee\n    mapping (address => uint256) private balances;\n\n    // player address + nick name\n    mapping (address => bytes) private nicknames;\n\n    // player address + awarded bonus amount\n    mapping (address => uint256) private bonuses;\n\n    string[] public winners;\n\n    constructor() public {\n        winners.push('Sam');\n        winners.push('John');\n        winners.push('Consortium');\n    }\n\n    modifier onlyStopped() {\n        require (!started);\n        _;\n    }\n\n    modifier onlyStarted() {\n        require (\n            started && \n            (block.timestamp < startedTime + timeLimit) && \n            (players.length < pickupLimit)\n        );\n        _;\n    }\n\n    event GameStarted(uint256 startedTime);\n    event GameStopped(uint256 startedTime, uint256 stoppedTime);\n\n    event FeeChanged(uint256 oldFee, uint256 newFee);\n    event WinningCardChanged(uint8 oldCard, uint8 newCard);\n    event PickupLimitChanged(uint8 oldLimit, uint8 newLimit);\n    event TimeLimitChanged(uint256 oldLimit, uint256 newLimit);\n    event BonusPercentageChanged(uint256 oldBonus, uint256 newBonus);\n\n    event CardPicked(uint256 numberOfPicks);\n\n    /**\n        Owner's role\n     */\n    function updateFee(uint256 _fee) external onlyOwner onlyStopped {\n        require(_fee > 0, \"Fee should not be zero.\");\n        emit FeeChanged(fee, _fee);\n        fee = _fee;\n    }\n\n    function updateWinningCard(uint8 _card) external onlyOwner onlyStopped onlyValidCard(_card) {\n        emit WinningCardChanged(winningCard, _card);\n        winningCard = _card;\n    }\n\n    function updatePickupLimit(uint8 _limit) external onlyOwner onlyStopped {\n        require(_limit > 0 && _limit < 55, \"Pickup limit should be less than 54.\");\n        emit PickupLimitChanged(pickupLimit, _limit);\n        pickupLimit = _limit;\n    }\n\n    function updateTimeLimit(uint256 _limit) external onlyOwner onlyStopped {\n        require(\n            _limit > MIN_TIME_LIMIT && _limit < MAX_TIME_LIMIT,\n            \"Time limit should be between 5 minutes and 6 months.\"\n        );\n        emit TimeLimitChanged(timeLimit, _limit);\n\n        timeLimit = _limit;\n    }\n\n    function updateBonusPercentage(uint256 _bonus) external onlyOwner onlyStopped {\n        require(\n            _bonus > 0 && _bonus < MAX_BONUS_PERCENTAGE,\n            \"Winner's bonus should be less than 95% of all incomes.\"\n        );\n        emit BonusPercentageChanged(bonusPercentage, _bonus);\n        bonusPercentage = _bonus;\n    }\n\n    // startGame()\n    // generate randomized cards list\n    // and record start time\n    function startGame() external onlyOwner onlyStopped {\n        // clear previous status\n        for (uint i; i < players.length; i++) {\n            delete balances[players[i]];\n            delete pickupStatus[players[i]];\n        }\n        _winner = address(0);\n        delete endTime;\n        delete players;\n\n        // reset new game\n        generateCardsList();\n        started = true;\n        startedTime = block.timestamp;\n\n        emit GameStarted(startedTime);\n    }\n\n    function stopGame() external onlyOwner onlyStarted {\n        _stopGame();\n    }\n\n    function _stopGame() internal onlyStarted {\n        started = false;\n        endTime = block.timestamp;\n\n        // calculate total income, and find winner\n        uint256 totalIncome;\n        for (uint i = 0; i < players.length; i++) {\n            address player = players[i];\n            totalIncome += balances[player];\n\n            uint8 card = pickupStatus[player];\n            if (card == winningCard) {\n                _winner = player;\n            }\n        }\n\n        if (_winner != address(0)) {\n            bonuses[_winner] += totalIncome.mul(bonusPercentage).div(100);\n            winners.push(string(abi.encodePacked(nicknames[_winner])));\n        }\n\n        emit GameStopped(startedTime, endTime);\n    }\n\n    // This will finish the game unexpectedly, so it will refund all balances to card holders\n    // and reset all status\n    function cancel() external onlyOwner onlyStarted {\n\n    }\n\n    function transfer(address payable recipient, uint256 amount) external onlyOwner{\n        require(address(this).balance > amount, \"Insufficient balance.\");\n        recipient.transfer(amount);\n    }\n\n    /**\n        Player's role\n     */\n    function pick(bytes memory nickName) external payable onlyStarted returns (uint8 card) {\n        require(pickupStatus[msg.sender] == 0, \"Player can pick up card at once.\");\n        require(msg.value >= fee, \"Player must pay to pick up a card.\");\n\n        // upgrade nick name\n        if (nickName.length > 0) {\n            nicknames[msg.sender] = nickName;\n        }\n\n        pickupStatus[msg.sender] = _cardsList[players.length];\n        players.push(msg.sender);\n        balances[msg.sender] = msg.value;\n        emit CardPicked(players.length);\n\n        if (players.length == pickupLimit) {\n            _stopGame();\n        }\n        card = pickupStatus[msg.sender];\n    }\n\n    function picked() external view returns (uint8 card) {\n        return pickupStatus[msg.sender];\n    }\n\n    function withdraw(uint256 amount) external {\n        require(bonuses[msg.sender] > amount, \"Insufficient funds.\");\n        bonuses[msg.sender] -= amount;\n        payable(msg.sender).transfer(amount);\n    }\n\n    /**\n        Public role\n     */\n    function leftTime() external view returns (uint256) {\n        return (startedTime.add(timeLimit) > block.timestamp) ? \n            startedTime.add(timeLimit).sub(block.timestamp) :\n            0;\n    }\n\n    function progress() external view returns (uint) {\n        return players.length;\n    }\n\n    // returns all picked-up cards, without holders address\n    function allPickedUp() external view onlyStopped returns (uint8[] memory) {\n        uint8[] memory cards = new uint8[](players.length);\n        for (uint i; i < players.length; i++) {\n            cards[i] = pickupStatus[players[i]];\n        }\n        return cards;\n    }\n\n    function winner() external view onlyStopped returns (string memory) {\n        return string(abi.encodePacked(nicknames[_winner]));\n    }\n\n    function winnersCount() external view returns (uint256) {\n        return winners.length;\n    }\n}\n",
  "sourcePath": "/home/rol/Desktop/lottery/contracts/PickupLottery.sol",
  "compiler": {
    "name": "solc",
    "version": "0.6.12+commit.27d51765.Emscripten.clang"
  },
  "schemaVersion": "3.4.1",
  "updatedAt": "2021-07-21T08:17:41.430Z",
  "networkType": "ethereum",
  "devdoc": {
    "kind": "dev",
    "methods": {
      "owner()": {
        "details": "Returns the address of the current owner."
      },
      "renounceOwnership()": {
        "details": "Leaves the contract without owner. It will not be possible to call `onlyOwner` functions anymore. Can only be called by the current owner. NOTE: Renouncing ownership will leave the contract without an owner, thereby removing any functionality that is only available to the owner."
      },
      "transferOwnership(address)": {
        "details": "Transfers ownership of the contract to a new account (`newOwner`). Can only be called by the current owner."
      }
    },
    "version": 1
  },
  "userdoc": {
    "kind": "user",
    "methods": {
      "leftTime()": {
        "notice": "Public role"
      },
      "pick(bytes)": {
        "notice": "Player's role"
      },
      "updateFee(uint256)": {
        "notice": "Owner's role"
      }
    },
    "notice": "[[[ Simple Playing Card Lottery Game ]]]",
    "version": 1
  }
}