{
  "contractName": "PickupLottery",
  "abi": [
    {
      "anonymous": false,
      "inputs": [
        {
          "indexed": false,
          "internalType": "uint256",
          "name": "oldBonus",
          "type": "uint256"
        },
        {
          "indexed": false,
          "internalType": "uint256",
          "name": "newBonus",
          "type": "uint256"
        }
      ],
      "name": "BonusPercentageChanged",
      "type": "event"
    },
    {
      "anonymous": false,
      "inputs": [
        {
          "indexed": false,
          "internalType": "uint256",
          "name": "numberOfPicks",
          "type": "uint256"
        }
      ],
      "name": "CardPicked",
      "type": "event"
    },
    {
      "anonymous": false,
      "inputs": [
        {
          "indexed": false,
          "internalType": "uint256",
          "name": "oldFee",
          "type": "uint256"
        },
        {
          "indexed": false,
          "internalType": "uint256",
          "name": "newFee",
          "type": "uint256"
        }
      ],
      "name": "FeeChanged",
      "type": "event"
    },
    {
      "anonymous": false,
      "inputs": [
        {
          "indexed": true,
          "internalType": "address",
          "name": "previousOwner",
          "type": "address"
        },
        {
          "indexed": true,
          "internalType": "address",
          "name": "newOwner",
          "type": "address"
        }
      ],
      "name": "OwnershipTransferred",
      "type": "event"
    },
    {
      "anonymous": false,
      "inputs": [
        {
          "indexed": false,
          "internalType": "uint8",
          "name": "oldLimit",
          "type": "uint8"
        },
        {
          "indexed": false,
          "internalType": "uint8",
          "name": "newLimit",
          "type": "uint8"
        }
      ],
      "name": "PickupLimitChanged",
      "type": "event"
    },
    {
      "anonymous": false,
      "inputs": [
        {
          "indexed": false,
          "internalType": "uint256",
          "name": "startedTime",
          "type": "uint256"
        }
      ],
      "name": "Started",
      "type": "event"
    },
    {
      "anonymous": false,
      "inputs": [
        {
          "indexed": false,
          "internalType": "uint256",
          "name": "startedTime",
          "type": "uint256"
        },
        {
          "indexed": false,
          "internalType": "uint256",
          "name": "stoppedTime",
          "type": "uint256"
        }
      ],
      "name": "Stopped",
      "type": "event"
    },
    {
      "anonymous": false,
      "inputs": [
        {
          "indexed": false,
          "internalType": "uint256",
          "name": "oldLimit",
          "type": "uint256"
        },
        {
          "indexed": false,
          "internalType": "uint256",
          "name": "newLimit",
          "type": "uint256"
        }
      ],
      "name": "TimeLimitChanged",
      "type": "event"
    },
    {
      "anonymous": false,
      "inputs": [
        {
          "indexed": false,
          "internalType": "uint8",
          "name": "oldCard",
          "type": "uint8"
        },
        {
          "indexed": false,
          "internalType": "uint8",
          "name": "newCard",
          "type": "uint8"
        }
      ],
      "name": "WinningCardChanged",
      "type": "event"
    },
    {
      "inputs": [],
      "name": "bonusPercentage",
      "outputs": [
        {
          "internalType": "uint256",
          "name": "",
          "type": "uint256"
        }
      ],
      "stateMutability": "view",
      "type": "function",
      "constant": true
    },
    {
      "inputs": [],
      "name": "endedAt",
      "outputs": [
        {
          "internalType": "uint256",
          "name": "",
          "type": "uint256"
        }
      ],
      "stateMutability": "view",
      "type": "function",
      "constant": true
    },
    {
      "inputs": [],
      "name": "fee",
      "outputs": [
        {
          "internalType": "uint256",
          "name": "",
          "type": "uint256"
        }
      ],
      "stateMutability": "view",
      "type": "function",
      "constant": true
    },
    {
      "inputs": [],
      "name": "owner",
      "outputs": [
        {
          "internalType": "address",
          "name": "",
          "type": "address"
        }
      ],
      "stateMutability": "view",
      "type": "function",
      "constant": true
    },
    {
      "inputs": [],
      "name": "pickupLimit",
      "outputs": [
        {
          "internalType": "uint8",
          "name": "",
          "type": "uint8"
        }
      ],
      "stateMutability": "view",
      "type": "function",
      "constant": true
    },
    {
      "inputs": [],
      "name": "renounceOwnership",
      "outputs": [],
      "stateMutability": "nonpayable",
      "type": "function"
    },
    {
      "inputs": [],
      "name": "started",
      "outputs": [
        {
          "internalType": "bool",
          "name": "",
          "type": "bool"
        }
      ],
      "stateMutability": "view",
      "type": "function",
      "constant": true
    },
    {
      "inputs": [],
      "name": "startedAt",
      "outputs": [
        {
          "internalType": "uint256",
          "name": "",
          "type": "uint256"
        }
      ],
      "stateMutability": "view",
      "type": "function",
      "constant": true
    },
    {
      "inputs": [],
      "name": "timeLimit",
      "outputs": [
        {
          "internalType": "uint256",
          "name": "",
          "type": "uint256"
        }
      ],
      "stateMutability": "view",
      "type": "function",
      "constant": true
    },
    {
      "inputs": [
        {
          "internalType": "address",
          "name": "newOwner",
          "type": "address"
        }
      ],
      "name": "transferOwnership",
      "outputs": [],
      "stateMutability": "nonpayable",
      "type": "function"
    },
    {
      "inputs": [
        {
          "internalType": "uint256",
          "name": "",
          "type": "uint256"
        }
      ],
      "name": "winners",
      "outputs": [
        {
          "internalType": "string",
          "name": "",
          "type": "string"
        }
      ],
      "stateMutability": "view",
      "type": "function",
      "constant": true
    },
    {
      "inputs": [],
      "name": "winningCard",
      "outputs": [
        {
          "internalType": "uint8",
          "name": "",
          "type": "uint8"
        }
      ],
      "stateMutability": "view",
      "type": "function",
      "constant": true
    },
    {
      "inputs": [
        {
          "internalType": "uint256",
          "name": "_fee",
          "type": "uint256"
        }
      ],
      "name": "setFee",
      "outputs": [],
      "stateMutability": "nonpayable",
      "type": "function"
    },
    {
      "inputs": [
        {
          "internalType": "uint8",
          "name": "_card",
          "type": "uint8"
        }
      ],
      "name": "setWinningCard",
      "outputs": [],
      "stateMutability": "nonpayable",
      "type": "function"
    },
    {
      "inputs": [
        {
          "internalType": "uint8",
          "name": "_limit",
          "type": "uint8"
        }
      ],
      "name": "setPickupLimit",
      "outputs": [],
      "stateMutability": "nonpayable",
      "type": "function"
    },
    {
      "inputs": [
        {
          "internalType": "uint256",
          "name": "_limit",
          "type": "uint256"
        }
      ],
      "name": "setTimeLimit",
      "outputs": [],
      "stateMutability": "nonpayable",
      "type": "function"
    },
    {
      "inputs": [
        {
          "internalType": "uint256",
          "name": "_bonusPercentage",
          "type": "uint256"
        }
      ],
      "name": "setBonusPercentage",
      "outputs": [],
      "stateMutability": "nonpayable",
      "type": "function"
    },
    {
      "inputs": [],
      "name": "start",
      "outputs": [],
      "stateMutability": "nonpayable",
      "type": "function"
    },
    {
      "inputs": [],
      "name": "stop",
      "outputs": [],
      "stateMutability": "nonpayable",
      "type": "function"
    },
    {
      "inputs": [],
      "name": "cancel",
      "outputs": [],
      "stateMutability": "nonpayable",
      "type": "function"
    },
    {
      "inputs": [
        {
          "internalType": "address payable",
          "name": "recipient",
          "type": "address"
        },
        {
          "internalType": "uint256",
          "name": "amount",
          "type": "uint256"
        }
      ],
      "name": "transfer",
      "outputs": [],
      "stateMutability": "nonpayable",
      "type": "function"
    },
    {
      "inputs": [
        {
          "internalType": "bytes",
          "name": "nickName",
          "type": "bytes"
        }
      ],
      "name": "pick",
      "outputs": [
        {
          "internalType": "uint8",
          "name": "card",
          "type": "uint8"
        }
      ],
      "stateMutability": "payable",
      "type": "function",
      "payable": true
    },
    {
      "inputs": [],
      "name": "picked",
      "outputs": [
        {
          "internalType": "uint8",
          "name": "card",
          "type": "uint8"
        }
      ],
      "stateMutability": "view",
      "type": "function",
      "constant": true
    },
    {
      "inputs": [],
      "name": "bonus",
      "outputs": [
        {
          "internalType": "uint256",
          "name": "",
          "type": "uint256"
        }
      ],
      "stateMutability": "view",
      "type": "function",
      "constant": true
    },
    {
      "inputs": [],
      "name": "withdraw",
      "outputs": [
        {
          "internalType": "bool",
          "name": "",
          "type": "bool"
        }
      ],
      "stateMutability": "nonpayable",
      "type": "function"
    },
    {
      "inputs": [],
      "name": "leftTime",
      "outputs": [
        {
          "internalType": "uint256",
          "name": "",
          "type": "uint256"
        }
      ],
      "stateMutability": "view",
      "type": "function",
      "constant": true
    },
    {
      "inputs": [],
      "name": "progress",
      "outputs": [
        {
          "internalType": "uint256",
          "name": "",
          "type": "uint256"
        }
      ],
      "stateMutability": "view",
      "type": "function",
      "constant": true
    },
    {
      "inputs": [],
      "name": "all",
      "outputs": [
        {
          "internalType": "uint8[]",
          "name": "",
          "type": "uint8[]"
        }
      ],
      "stateMutability": "view",
      "type": "function",
      "constant": true
    },
    {
      "inputs": [],
      "name": "winner",
      "outputs": [
        {
          "internalType": "string",
          "name": "result",
          "type": "string"
        }
      ],
      "stateMutability": "view",
      "type": "function",
      "constant": true
    }
  ],
  "bytecode": "0x6080604052662386f26fc100006003556001600460006101000a81548160ff021916908360ff1602179055506028600460016101000a81548160ff021916908360ff16021790555063240c8400600555605a6006556000600760006101000a81548160ff02191690831515021790555034801561007b57600080fd5b50600061008c61013060201b60201c565b905080600260006101000a81548173ffffffffffffffffffffffffffffffffffffffff021916908373ffffffffffffffffffffffffffffffffffffffff1602179055508073ffffffffffffffffffffffffffffffffffffffff16600073ffffffffffffffffffffffffffffffffffffffff167f8be0079c531659141344cd1fd0a4f28419497f9722a3daafe3b4186f6b6457e060405160405180910390a350610138565b600033905090565b61337880620001486000396000f3fe6080604052600436106101c25760003560e01c80638da5cb5b116100f7578063ddca3f4311610095578063eb696d4f11610064578063eb696d4f14610813578063f21f537d14610851578063f2fde38b1461087c578063f8351daf146108cd576101c2565b8063ddca3f4314610706578063dfbf53ae14610731578063e2889c82146107c1578063ea8a1af0146107fc576101c2565b8063be9a6555116100d1578063be9a65551461066b578063c08d1fe514610682578063cca38d44146106ad578063d78317bf146106db576101c2565b80638da5cb5b1461051b578063a2fb11751461055c578063a9059cbb14610610576101c2565b8063577bd3361161016457806372b414fc1161013e57806372b414fc1461045c57806375b4d78c14610497578063813d6c9a146104c25780638aa83721146104ed576101c2565b8063577bd336146103df57806369fe0e2d1461040a578063715018a614610445576101c2565b80632e7ce3e8116101a05780632e7ce3e8146102775780633bb4e262146102b55780633ccfd60b146103875780633d6a71e4146103b4576101c2565b806307da68f5146101c757806310c4e8b0146101de5780631f2698ab1461024a575b600080fd5b3480156101d357600080fd5b506101dc6108fb565b005b3480156101ea57600080fd5b506101f3610a67565b6040518080602001828103825283818151815260200191508051906020019060200280838360005b8381101561023657808201518184015260208101905061021b565b505050509050019250505060405180910390f35b34801561025657600080fd5b5061025f610c7b565b60405180821515815260200191505060405180910390f35b34801561028357600080fd5b506102b36004803603602081101561029a57600080fd5b81019080803560ff169060200190929190505050610c8e565b005b61036e600480360360208110156102cb57600080fd5b81019080803590602001906401000000008111156102e857600080fd5b8201836020820111156102fa57600080fd5b8035906020019184600183028401116401000000008311171561031c57600080fd5b91908080601f016020809104026020016040519081016040528093929190818152602001838380828437600081840152601f19601f820116905080830192505050505050509192919290505050610eba565b604051808260ff16815260200191505060405180910390f35b34801561039357600080fd5b5061039c611360565b60405180821515815260200191505060405180910390f35b3480156103c057600080fd5b506103c96114ee565b6040518082815260200191505060405180910390f35b3480156103eb57600080fd5b506103f46114f4565b6040518082815260200191505060405180910390f35b34801561041657600080fd5b506104436004803603602081101561042d57600080fd5b8101908080359060200190929190505050611501565b005b34801561045157600080fd5b5061045a6116f2565b005b34801561046857600080fd5b506104956004803603602081101561047f57600080fd5b810190808035906020019092919050505061187d565b005b3480156104a357600080fd5b506104ac611a5d565b6040518082815260200191505060405180910390f35b3480156104ce57600080fd5b506104d7611aa4565b6040518082815260200191505060405180910390f35b3480156104f957600080fd5b50610502611aaa565b604051808260ff16815260200191505060405180910390f35b34801561052757600080fd5b50610530611afe565b604051808273ffffffffffffffffffffffffffffffffffffffff16815260200191505060405180910390f35b34801561056857600080fd5b506105956004803603602081101561057f57600080fd5b8101908080359060200190929190505050611b28565b6040518080602001828103825283818151815260200191508051906020019080838360005b838110156105d55780820151818401526020810190506105ba565b50505050905090810190601f1680156106025780820380516001836020036101000a031916815260200191505b509250505060405180910390f35b34801561061c57600080fd5b506106696004803603604081101561063357600080fd5b81019080803573ffffffffffffffffffffffffffffffffffffffff16906020019092919080359060200190929190505050611be1565b005b34801561067757600080fd5b50610680611d6b565b005b34801561068e57600080fd5b50610697612031565b6040518082815260200191505060405180910390f35b3480156106b957600080fd5b506106c2612037565b604051808260ff16815260200191505060405180910390f35b3480156106e757600080fd5b506106f061204a565b6040518082815260200191505060405180910390f35b34801561071257600080fd5b5061071b61209f565b6040518082815260200191505060405180910390f35b34801561073d57600080fd5b506107466120a5565b6040518080602001828103825283818151815260200191508051906020019080838360005b8381101561078657808201518184015260208101905061076b565b50505050905090810190601f1680156107b35780820380516001836020036101000a031916815260200191505b509250505060405180910390f35b3480156107cd57600080fd5b506107fa600480360360208110156107e457600080fd5b81019080803590602001909291905050506121df565b005b34801561080857600080fd5b506108116123c5565b005b34801561081f57600080fd5b5061084f6004803603602081101561083657600080fd5b81019080803560ff169060200190929190505050612529565b005b34801561085d57600080fd5b50610866612736565b6040518082815260200191505060405180910390f35b34801561088857600080fd5b506108cb6004803603602081101561089f57600080fd5b81019080803573ffffffffffffffffffffffffffffffffffffffff16906020019092919050505061273c565b005b3480156108d957600080fd5b506108e261294c565b604051808260ff16815260200191505060405180910390f35b61090361295f565b73ffffffffffffffffffffffffffffffffffffffff16600260009054906101000a900473ffffffffffffffffffffffffffffffffffffffff1673ffffffffffffffffffffffffffffffffffffffff16146109c5576040517f08c379a00000000000000000000000000000000000000000000000000000000081526004018080602001828103825260208152602001807f4f776e61626c653a2063616c6c6572206973206e6f7420746865206f776e657281525060200191505060405180910390fd5b600760009054906101000a900460ff1680156109e657506005546008540142105b8015610a085750600460019054906101000a900460ff1660ff16600a80549050105b610a5d576040517f08c379a000000000000000000000000000000000000000000000000000000000815260040180806020018281038252602981526020018061327d6029913960400191505060405180910390fd5b610a65612967565b565b606080600a8054905067ffffffffffffffff81118015610a8657600080fd5b50604051908082528060200260200182016040528015610ab55781602001602082028036833780820191505090505b50905060005b600a80549050811015610c7357600760009054906101000a900460ff1615610bc1573373ffffffffffffffffffffffffffffffffffffffff16600a8281548110610b0157fe5b9060005260206000200160009054906101000a900473ffffffffffffffffffffffffffffffffffffffff1673ffffffffffffffffffffffffffffffffffffffff1614610b4e576000610b9c565b600b60003373ffffffffffffffffffffffffffffffffffffffff1673ffffffffffffffffffffffffffffffffffffffff16815260200190815260200160002060009054906101000a900460ff165b828281518110610ba857fe5b602002602001019060ff16908160ff1681525050610c66565b600b6000600a8381548110610bd257fe5b9060005260206000200160009054906101000a900473ffffffffffffffffffffffffffffffffffffffff1673ffffffffffffffffffffffffffffffffffffffff1673ffffffffffffffffffffffffffffffffffffffff16815260200190815260200160002060009054906101000a900460ff16828281518110610c5157fe5b602002602001019060ff16908160ff16815250505b8080600101915050610abb565b508091505090565b600760009054906101000a900460ff1681565b610c9661295f565b73ffffffffffffffffffffffffffffffffffffffff16600260009054906101000a900473ffffffffffffffffffffffffffffffffffffffff1673ffffffffffffffffffffffffffffffffffffffff1614610d58576040517f08c379a00000000000000000000000000000000000000000000000000000000081526004018080602001828103825260208152602001807f4f776e61626c653a2063616c6c6572206973206e6f7420746865206f776e657281525060200191505060405180910390fd5b600760009054906101000a900460ff1615610dbe576040517f08c379a00000000000000000000000000000000000000000000000000000000081526004018080602001828103825260298152602001806131d66029913960400191505060405180910390fd5b8060008160ff16118015610dd5575060378160ff16105b610e47576040517f08c379a000000000000000000000000000000000000000000000000000000000815260040180806020018281038252601f8152602001807f436172642073686f756c64206265206265747765656e203120616e642035340081525060200191505060405180910390fd5b7fd22b6c3345433538a352435840df7684278d269505c0582991d5d5bc6895663e600460009054906101000a900460ff1683604051808360ff1681526020018260ff1681526020019250505060405180910390a181600460006101000a81548160ff021916908360ff1602179055505050565b6000600760009054906101000a900460ff168015610edd57506005546008540142105b8015610eff5750600460019054906101000a900460ff1660ff16600a80549050105b610f54576040517f08c379a000000000000000000000000000000000000000000000000000000000815260040180806020018281038252602981526020018061327d6029913960400191505060405180910390fd5b6000600b60003373ffffffffffffffffffffffffffffffffffffffff1673ffffffffffffffffffffffffffffffffffffffff16815260200190815260200160002060009054906101000a900460ff1660ff1614611019576040517f08c379a00000000000000000000000000000000000000000000000000000000081526004018080602001828103825260208152602001807f506c617965722063616e207069636b2075702063617264206174206f6e63652e81525060200191505060405180910390fd5b600354341015611074576040517f08c379a000000000000000000000000000000000000000000000000000000000815260040180806020018281038252602281526020018061325b6022913960400191505060405180910390fd5b4261108c600554600854612d1290919063ffffffff16565b1015611124577f52b6b9d1672a7686b4e4fc93956fe428e964937964b8b188b55166f2ad86cd5460085442604051808381526020018281526020019250505060405180910390a16040517f08c379a00000000000000000000000000000000000000000000000000000000081526004018080602001828103825260248152602001806132a66024913960400191505060405180910390fd5b6000825111156111835781600d60003373ffffffffffffffffffffffffffffffffffffffff1673ffffffffffffffffffffffffffffffffffffffff1681526020019081526020016000209080519060200190611181929190613097565b505b6000600a805490506036811061119557fe5b602091828204019190069054906101000a900460ff16600b60003373ffffffffffffffffffffffffffffffffffffffff1673ffffffffffffffffffffffffffffffffffffffff16815260200190815260200160002060006101000a81548160ff021916908360ff160217905550600a339080600181540180825580915050600190039060005260206000200160009091909190916101000a81548173ffffffffffffffffffffffffffffffffffffffff021916908373ffffffffffffffffffffffffffffffffffffffff16021790555034600c60003373ffffffffffffffffffffffffffffffffffffffff1673ffffffffffffffffffffffffffffffffffffffff168152602001908152602001600020819055507fee4358dfced78623283b935cd31843787339483c153fa8d4a72e53ba9fdd885d600a805490506040518082815260200191505060405180910390a1600460019054906101000a900460ff1660ff16600a805490501061130c5761130b612967565b5b600b60003373ffffffffffffffffffffffffffffffffffffffff1673ffffffffffffffffffffffffffffffffffffffff16815260200190815260200160002060009054906101000a900460ff169050919050565b600080600e60003373ffffffffffffffffffffffffffffffffffffffff1673ffffffffffffffffffffffffffffffffffffffff1681526020019081526020016000205411611416576040517f08c379a00000000000000000000000000000000000000000000000000000000081526004018080602001828103825260138152602001807f496e73756666696369656e742066756e64732e0000000000000000000000000081525060200191505060405180910390fd5b6000600e60003373ffffffffffffffffffffffffffffffffffffffff1673ffffffffffffffffffffffffffffffffffffffff1681526020019081526020016000205490506000600e60003373ffffffffffffffffffffffffffffffffffffffff1673ffffffffffffffffffffffffffffffffffffffff168152602001908152602001600020819055503373ffffffffffffffffffffffffffffffffffffffff166108fc829081150290604051600060405180830381858888f193505050501580156114e5573d6000803e3d6000fd5b50600191505090565b60095481565b6000600a80549050905090565b61150961295f565b73ffffffffffffffffffffffffffffffffffffffff16600260009054906101000a900473ffffffffffffffffffffffffffffffffffffffff1673ffffffffffffffffffffffffffffffffffffffff16146115cb576040517f08c379a00000000000000000000000000000000000000000000000000000000081526004018080602001828103825260208152602001807f4f776e61626c653a2063616c6c6572206973206e6f7420746865206f776e657281525060200191505060405180910390fd5b600760009054906101000a900460ff1615611631576040517f08c379a00000000000000000000000000000000000000000000000000000000081526004018080602001828103825260298152602001806131d66029913960400191505060405180910390fd5b600081116116a7576040517f08c379a00000000000000000000000000000000000000000000000000000000081526004018080602001828103825260178152602001807f4665652073686f756c64206e6f74206265207a65726f2e00000000000000000081525060200191505060405180910390fd5b7f5fc463da23c1b063e66f9e352006a7fbe8db7223c455dc429e881a2dfe2f94f160035482604051808381526020018281526020019250505060405180910390a18060038190555050565b6116fa61295f565b73ffffffffffffffffffffffffffffffffffffffff16600260009054906101000a900473ffffffffffffffffffffffffffffffffffffffff1673ffffffffffffffffffffffffffffffffffffffff16146117bc576040517f08c379a00000000000000000000000000000000000000000000000000000000081526004018080602001828103825260208152602001807f4f776e61626c653a2063616c6c6572206973206e6f7420746865206f776e657281525060200191505060405180910390fd5b600073ffffffffffffffffffffffffffffffffffffffff16600260009054906101000a900473ffffffffffffffffffffffffffffffffffffffff1673ffffffffffffffffffffffffffffffffffffffff167f8be0079c531659141344cd1fd0a4f28419497f9722a3daafe3b4186f6b6457e060405160405180910390a36000600260006101000a81548173ffffffffffffffffffffffffffffffffffffffff021916908373ffffffffffffffffffffffffffffffffffffffff160217905550565b61188561295f565b73ffffffffffffffffffffffffffffffffffffffff16600260009054906101000a900473ffffffffffffffffffffffffffffffffffffffff1673ffffffffffffffffffffffffffffffffffffffff1614611947576040517f08c379a00000000000000000000000000000000000000000000000000000000081526004018080602001828103825260208152602001807f4f776e61626c653a2063616c6c6572206973206e6f7420746865206f776e657281525060200191505060405180910390fd5b600760009054906101000a900460ff16156119ad576040517f08c379a00000000000000000000000000000000000000000000000000000000081526004018080602001828103825260298152602001806131d66029913960400191505060405180910390fd5b6000811180156119bd5750605f81105b611a12576040517f08c379a00000000000000000000000000000000000000000000000000000000081526004018080602001828103825260368152602001806132256036913960400191505060405180910390fd5b7f6eac2ff5c5b54b2d9f88ca9f70f648236dd7f8cfc02b14fb78b9f8165bb2f73a60065482604051808381526020018281526020019250505060405180910390a18060068190555050565b6000600e60003373ffffffffffffffffffffffffffffffffffffffff1673ffffffffffffffffffffffffffffffffffffffff16815260200190815260200160002054905090565b60065481565b6000600b60003373ffffffffffffffffffffffffffffffffffffffff1673ffffffffffffffffffffffffffffffffffffffff16815260200190815260200160002060009054906101000a900460ff16905090565b6000600260009054906101000a900473ffffffffffffffffffffffffffffffffffffffff16905090565b600f8181548110611b3557fe5b906000526020600020016000915090508054600181600116156101000203166002900480601f016020809104026020016040519081016040528092919081815260200182805460018160011615610100020316600290048015611bd95780601f10611bae57610100808354040283529160200191611bd9565b820191906000526020600020905b815481529060010190602001808311611bbc57829003601f168201915b505050505081565b611be961295f565b73ffffffffffffffffffffffffffffffffffffffff16600260009054906101000a900473ffffffffffffffffffffffffffffffffffffffff1673ffffffffffffffffffffffffffffffffffffffff1614611cab576040517f08c379a00000000000000000000000000000000000000000000000000000000081526004018080602001828103825260208152602001807f4f776e61626c653a2063616c6c6572206973206e6f7420746865206f776e657281525060200191505060405180910390fd5b804711611d20576040517f08c379a00000000000000000000000000000000000000000000000000000000081526004018080602001828103825260158152602001807f496e73756666696369656e742062616c616e63652e000000000000000000000081525060200191505060405180910390fd5b8173ffffffffffffffffffffffffffffffffffffffff166108fc829081150290604051600060405180830381858888f19350505050158015611d66573d6000803e3d6000fd5b505050565b611d7361295f565b73ffffffffffffffffffffffffffffffffffffffff16600260009054906101000a900473ffffffffffffffffffffffffffffffffffffffff1673ffffffffffffffffffffffffffffffffffffffff1614611e35576040517f08c379a00000000000000000000000000000000000000000000000000000000081526004018080602001828103825260208152602001807f4f776e61626c653a2063616c6c6572206973206e6f7420746865206f776e657281525060200191505060405180910390fd5b600760009054906101000a900460ff1615611e9b576040517f08c379a00000000000000000000000000000000000000000000000000000000081526004018080602001828103825260298152602001806131d66029913960400191505060405180910390fd5b60005b600a80549050811015611fb857600c6000600a8381548110611ebc57fe5b9060005260206000200160009054906101000a900473ffffffffffffffffffffffffffffffffffffffff1673ffffffffffffffffffffffffffffffffffffffff1673ffffffffffffffffffffffffffffffffffffffff16815260200190815260200160002060009055600b6000600a8381548110611f3657fe5b9060005260206000200160009054906101000a900473ffffffffffffffffffffffffffffffffffffffff1673ffffffffffffffffffffffffffffffffffffffff1673ffffffffffffffffffffffffffffffffffffffff16815260200190815260200160002060006101000a81549060ff02191690558080600101915050611e9e565b50600960009055600a6000611fcd9190613117565b611fd5612d9a565b6001600760006101000a81548160ff021916908315150217905550426008819055507e6e0c97de781a7389d44ba8fd35d1467cabb17ed04d038d166d34ab819213f36008546040518082815260200191505060405180910390a1565b60055481565b600460019054906101000a900460ff1681565b600042612064600554600854612d1290919063ffffffff16565b1161207057600061209a565b6120994261208b600554600854612d1290919063ffffffff16565b612da490919063ffffffff16565b5b905090565b60035481565b60606000600f8054905011612122576040517f08c379a00000000000000000000000000000000000000000000000000000000081526004018080602001828103825260108152602001807f4e6f742077696e6e65727320796574210000000000000000000000000000000081525060200191505060405180910390fd5b600f6001600f80549050038154811061213757fe5b906000526020600020018054600181600116156101000203166002900480601f0160208091040260200160405190810160405280929190818152602001828054600181600116156101000203166002900480156121d55780601f106121aa576101008083540402835291602001916121d5565b820191906000526020600020905b8154815290600101906020018083116121b857829003601f168201915b5050505050905090565b6121e761295f565b73ffffffffffffffffffffffffffffffffffffffff16600260009054906101000a900473ffffffffffffffffffffffffffffffffffffffff1673ffffffffffffffffffffffffffffffffffffffff16146122a9576040517f08c379a00000000000000000000000000000000000000000000000000000000081526004018080602001828103825260208152602001807f4f776e61626c653a2063616c6c6572206973206e6f7420746865206f776e657281525060200191505060405180910390fd5b600760009054906101000a900460ff161561230f576040517f08c379a00000000000000000000000000000000000000000000000000000000081526004018080602001828103825260298152602001806131d66029913960400191505060405180910390fd5b620493e081118015612325575064039ef8b00081105b61237a576040517f08c379a00000000000000000000000000000000000000000000000000000000081526004018080602001828103825260348152602001806132eb6034913960400191505060405180910390fd5b7f37ed38756959b798a76773d88a831f6ae750221b3199808c4700d970754aea5360055482604051808381526020018281526020019250505060405180910390a18060058190555050565b6123cd61295f565b73ffffffffffffffffffffffffffffffffffffffff16600260009054906101000a900473ffffffffffffffffffffffffffffffffffffffff1673ffffffffffffffffffffffffffffffffffffffff161461248f576040517f08c379a00000000000000000000000000000000000000000000000000000000081526004018080602001828103825260208152602001807f4f776e61626c653a2063616c6c6572206973206e6f7420746865206f776e657281525060200191505060405180910390fd5b600760009054906101000a900460ff1680156124b057506005546008540142105b80156124d25750600460019054906101000a900460ff1660ff16600a80549050105b612527576040517f08c379a000000000000000000000000000000000000000000000000000000000815260040180806020018281038252602981526020018061327d6029913960400191505060405180910390fd5b565b61253161295f565b73ffffffffffffffffffffffffffffffffffffffff16600260009054906101000a900473ffffffffffffffffffffffffffffffffffffffff1673ffffffffffffffffffffffffffffffffffffffff16146125f3576040517f08c379a00000000000000000000000000000000000000000000000000000000081526004018080602001828103825260208152602001807f4f776e61626c653a2063616c6c6572206973206e6f7420746865206f776e657281525060200191505060405180910390fd5b600760009054906101000a900460ff1615612659576040517f08c379a00000000000000000000000000000000000000000000000000000000081526004018080602001828103825260298152602001806131d66029913960400191505060405180910390fd5b60008160ff1611801561266f575060378160ff16105b6126c4576040517f08c379a000000000000000000000000000000000000000000000000000000000815260040180806020018281038252602481526020018061331f6024913960400191505060405180910390fd5b7f08ffe957ce49f65f4bfbd9022e67ee04ea50cbae69381ee6a4b992088e92baf2600460019054906101000a900460ff1682604051808360ff1681526020018260ff1681526020019250505060405180910390a180600460016101000a81548160ff021916908360ff16021790555050565b60085481565b61274461295f565b73ffffffffffffffffffffffffffffffffffffffff16600260009054906101000a900473ffffffffffffffffffffffffffffffffffffffff1673ffffffffffffffffffffffffffffffffffffffff1614612806576040517f08c379a00000000000000000000000000000000000000000000000000000000081526004018080602001828103825260208152602001807f4f776e61626c653a2063616c6c6572206973206e6f7420746865206f776e657281525060200191505060405180910390fd5b600073ffffffffffffffffffffffffffffffffffffffff168173ffffffffffffffffffffffffffffffffffffffff16141561288c576040517f08c379a00000000000000000000000000000000000000000000000000000000081526004018080602001828103825260268152602001806131ff6026913960400191505060405180910390fd5b8073ffffffffffffffffffffffffffffffffffffffff16600260009054906101000a900473ffffffffffffffffffffffffffffffffffffffff1673ffffffffffffffffffffffffffffffffffffffff167f8be0079c531659141344cd1fd0a4f28419497f9722a3daafe3b4186f6b6457e060405160405180910390a380600260006101000a81548173ffffffffffffffffffffffffffffffffffffffff021916908373ffffffffffffffffffffffffffffffffffffffff16021790555050565b600460009054906101000a900460ff1681565b600033905090565b600760009054906101000a900460ff16801561298857506005546008540142105b80156129aa5750600460019054906101000a900460ff1660ff16600a80549050105b6129ff576040517f08c379a000000000000000000000000000000000000000000000000000000000815260040180806020018281038252602981526020018061327d6029913960400191505060405180910390fd5b6000600760006101000a81548160ff0219169083151502179055504260098190555060008060005b600a80549050811015612b35576000600a8281548110612a4357fe5b9060005260206000200160009054906101000a900473ffffffffffffffffffffffffffffffffffffffff169050600c60008273ffffffffffffffffffffffffffffffffffffffff1673ffffffffffffffffffffffffffffffffffffffff16815260200190815260200160002054830192506000600b60008373ffffffffffffffffffffffffffffffffffffffff1673ffffffffffffffffffffffffffffffffffffffff16815260200190815260200160002060009054906101000a900460ff169050600460009054906101000a900460ff1660ff168160ff161415612b26578194505b50508080600101915050612a27565b50600073ffffffffffffffffffffffffffffffffffffffff168273ffffffffffffffffffffffffffffffffffffffff1614612ccb57612b926064612b8460065484612dee90919063ffffffff16565b612e7490919063ffffffff16565b600e60008473ffffffffffffffffffffffffffffffffffffffff1673ffffffffffffffffffffffffffffffffffffffff16815260200190815260200160002060008282540192505081905550600f600d60008473ffffffffffffffffffffffffffffffffffffffff1673ffffffffffffffffffffffffffffffffffffffff1681526020019081526020016000206040516020018082805460018160011615610100020316600290048015612c7d5780601f10612c5b576101008083540402835291820191612c7d565b820191906000526020600020905b815481529060010190602001808311612c69575b5050915050604051602081830303815290604052908060018154018082558091505060019003906000526020600020016000909190919091509080519060200190612cc9929190613138565b505b7f52b6b9d1672a7686b4e4fc93956fe428e964937964b8b188b55166f2ad86cd54600854600954604051808381526020018281526020019250505060405180910390a15050565b600080828401905083811015612d90576040517f08c379a000000000000000000000000000000000000000000000000000000000815260040180806020018281038252601b8152602001807f536166654d6174683a206164646974696f6e206f766572666c6f77000000000081525060200191505060405180910390fd5b8091505092915050565b612da2612ebe565b565b6000612de683836040518060400160405280601e81526020017f536166654d6174683a207375627472616374696f6e206f766572666c6f770000815250612f11565b905092915050565b600080831415612e015760009050612e6e565b6000828402905082848281612e1257fe5b0414612e69576040517f08c379a00000000000000000000000000000000000000000000000000000000081526004018080602001828103825260218152602001806132ca6021913960400191505060405180910390fd5b809150505b92915050565b6000612eb683836040518060400160405280601a81526020017f536166654d6174683a206469766973696f6e206279207a65726f000000000000815250612fd1565b905092915050565b60005b60368160ff161015612f0e576001810160008260ff1660368110612ee157fe5b602091828204019190066101000a81548160ff021916908360ff1602179055508080600101915050612ec1565b50565b6000838311158290612fbe576040517f08c379a00000000000000000000000000000000000000000000000000000000081526004018080602001828103825283818151815260200191508051906020019080838360005b83811015612f83578082015181840152602081019050612f68565b50505050905090810190601f168015612fb05780820380516001836020036101000a031916815260200191505b509250505060405180910390fd5b5060008385039050809150509392505050565b6000808311829061307d576040517f08c379a00000000000000000000000000000000000000000000000000000000081526004018080602001828103825283818151815260200191508051906020019080838360005b83811015613042578082015181840152602081019050613027565b50505050905090810190601f16801561306f5780820380516001836020036101000a031916815260200191505b509250505060405180910390fd5b50600083858161308957fe5b049050809150509392505050565b828054600181600116156101000203166002900490600052602060002090601f016020900481019282601f106130d857805160ff1916838001178555613106565b82800160010185558215613106579182015b828111156131055782518255916020019190600101906130ea565b5b50905061311391906131b8565b5090565b508054600082559060005260206000209081019061313591906131b8565b50565b828054600181600116156101000203166002900490600052602060002090601f016020900481019282601f1061317957805160ff19168380011785556131a7565b828001600101855582156131a7579182015b828111156131a657825182559160200191906001019061318b565b5b5090506131b491906131b8565b5090565b5b808211156131d15760008160009055506001016131b9565b509056fe4974206973206f6e6c7920617661696c61626c652061667465722073746f7070656420726f756e642e4f776e61626c653a206e6577206f776e657220697320746865207a65726f206164647265737357696e6e6572277320626f6e75732073686f756c64206265206c657373207468616e20393525206f6620616c6c20696e636f6d65732e506c61796572206d7573742070617920746f207069636b207570206120636172642e4974206973206f6e6c7920617661696c61626c65206166746572207374617274206120726f756e642e536f7272792c2062757420726f756e6420697320616c7265616479206578706972656421536166654d6174683a206d756c7469706c69636174696f6e206f766572666c6f7754696d65206c696d69742073686f756c64206265206265747765656e2035206d696e7574657320616e642036206d6f6e7468732e5069636b7570206c696d69742073686f756c64206265206c657373207468616e2035352ea26469706673582212200e9c2b41ed2bf2467045bc93c51fb68ac84f434d2b86f62a9f73b1ea89d5cab964736f6c634300060c0033",
  "immutableReferences": {},
  "source": "// SPDX-License-Identifier: MIT\n\npragma solidity ^0.6.2;\n\nimport \"./WithCards.sol\";\nimport \"./SafeMath.sol\";\nimport \"./Ownable.sol\";\n\n/**\n    [[[ Simple Playing Card Lottery ]]]\n*/\ncontract PickupLottery is WithCards, Ownable {\n    using SafeMath for uint256;\n\n    uint256 private constant MAX_TIME_LIMIT = 6 * 30 * 24 * 60 * 60 * 1000;\n    uint256 private constant MIN_TIME_LIMIT = 5 * 60 * 1000;\n    uint256 private constant MAX_BONUS_PERCENTAGE = 95;\n\n    // config params\n    uint256 public fee = 0.01 * (10**18);\n    uint8 public winningCard = 1;\n    uint8 public pickupLimit = 40;\n    // 1 week limit for single round\n    uint256 public timeLimit = 7 * 24 * 60 * 60 * 1000;\n    uint256 public bonusPercentage = 90;\n\n    bool public started = false;\n    uint256 public startedAt;\n    uint256 public endedAt;\n\n    address [] private _players;\n\n    // player address + picked-up card\n    mapping (address => uint8) private pickupStatus;\n\n    // player address + paid fee\n    mapping (address => uint256) private _balances;\n\n    // player address + nick name\n    mapping (address => bytes) private _nicknames;\n\n    // player address + awarded bonus amount\n    mapping (address => uint256) private _bonuses;\n\n    string[] public winners;\n\n    modifier onlyStopped() {\n        require (!started, \"It is only available after stopped round.\");\n        _;\n    }\n\n    modifier onlyStarted() {\n        require (\n            started && \n            (block.timestamp < startedAt + timeLimit) && \n            (_players.length < pickupLimit),\n            \"It is only available after start a round.\"\n        );\n        _;\n    }\n\n    event Started(uint256 startedTime);\n    event Stopped(uint256 startedTime, uint256 stoppedTime);\n\n    event FeeChanged(uint256 oldFee, uint256 newFee);\n    event WinningCardChanged(uint8 oldCard, uint8 newCard);\n    event PickupLimitChanged(uint8 oldLimit, uint8 newLimit);\n    event TimeLimitChanged(uint256 oldLimit, uint256 newLimit);\n    event BonusPercentageChanged(uint256 oldBonus, uint256 newBonus);\n\n    event CardPicked(uint256 numberOfPicks);\n\n    /**\n        Owner's role\n     */\n    function setFee(uint256 _fee) external onlyOwner onlyStopped {\n        require(_fee > 0, \"Fee should not be zero.\");\n        emit FeeChanged(fee, _fee);\n        fee = _fee;\n    }\n\n    function setWinningCard(uint8 _card) external onlyOwner onlyStopped onlyValidCard(_card) {\n        emit WinningCardChanged(winningCard, _card);\n        winningCard = _card;\n    }\n\n    function setPickupLimit(uint8 _limit) external onlyOwner onlyStopped {\n        require(_limit > 0 && _limit < 55, \"Pickup limit should be less than 55.\");\n        emit PickupLimitChanged(pickupLimit, _limit);\n        pickupLimit = _limit;\n    }\n\n    function setTimeLimit(uint256 _limit) external onlyOwner onlyStopped {\n        require(\n            _limit > MIN_TIME_LIMIT && _limit < MAX_TIME_LIMIT,\n            \"Time limit should be between 5 minutes and 6 months.\"\n        );\n        emit TimeLimitChanged(timeLimit, _limit);\n\n        timeLimit = _limit;\n    }\n\n    function setBonusPercentage(uint256 _bonusPercentage) external onlyOwner onlyStopped {\n        require(\n            _bonusPercentage > 0 && _bonusPercentage < MAX_BONUS_PERCENTAGE,\n            \"Winner's bonus should be less than 95% of all incomes.\"\n        );\n        emit BonusPercentageChanged(bonusPercentage, _bonusPercentage);\n        bonusPercentage = _bonusPercentage;\n    }\n\n    // start()\n    // generate randomized cards list\n    // and record start time\n    function start() external onlyOwner onlyStopped {\n        // clear previous status\n        for (uint i; i < _players.length; i++) {\n            delete _balances[_players[i]];\n            delete pickupStatus[_players[i]];\n        }\n        delete endedAt;\n        delete _players;\n\n        // reset new round\n        generateCardsList();\n        started = true;\n        startedAt = block.timestamp;\n\n        emit Started(startedAt);\n    }\n\n    function stop() external onlyOwner onlyStarted {\n        _stop();\n    }\n\n    function _stop() internal onlyStarted {\n        started = false;\n        endedAt = block.timestamp;\n        address _winner;\n\n        // calculate total income, and find winner\n        uint256 totalIncome;\n        for (uint i = 0; i < _players.length; i++) {\n            address player = _players[i];\n            totalIncome += _balances[player];\n\n            uint8 card = pickupStatus[player];\n            if (card == winningCard) {\n                _winner = player;\n            }\n        }\n\n        if (_winner != address(0)) {\n            _bonuses[_winner] += totalIncome.mul(bonusPercentage).div(100);\n            winners.push(string(abi.encodePacked(_nicknames[_winner])));\n        }\n\n        emit Stopped(startedAt, endedAt);\n    }\n\n    // This will finish the round unexpectedly, so it will refund all balances to card holders\n    // and reset all status\n    function cancel() external onlyOwner onlyStarted {\n\n    }\n\n    function transfer(address payable recipient, uint256 amount) external onlyOwner{\n        require(address(this).balance > amount, \"Insufficient balance.\");\n        recipient.transfer(amount);\n    }\n\n    /**\n        Player's role\n     */\n    function pick(bytes memory nickName) external payable onlyStarted returns (uint8 card) {\n        require(pickupStatus[msg.sender] == 0, \"Player can pick up card at once.\");\n        require(msg.value >= fee, \"Player must pay to pick up a card.\");\n\n        if (startedAt.add(timeLimit) < block.timestamp) {\n            emit Stopped(startedAt, block.timestamp);\n            revert(\"Sorry, but round is already expired!\");\n        }\n\n        // upgrade nick name\n        if (nickName.length > 0) {\n            _nicknames[msg.sender] = nickName;\n        }\n\n        pickupStatus[msg.sender] = _cardsList[_players.length];\n        _players.push(msg.sender);\n        _balances[msg.sender] = msg.value;\n        emit CardPicked(_players.length);\n\n        if (_players.length >= pickupLimit) {\n            _stop();\n        }\n        card = pickupStatus[msg.sender];\n    }\n\n    function picked() external view returns (uint8 card) {\n        return pickupStatus[msg.sender];\n    }\n\n    function bonus() external view returns (uint256) {\n        return _bonuses[msg.sender];\n    }\n\n    function withdraw() external returns (bool) {\n        require(_bonuses[msg.sender] > 0, \"Insufficient funds.\");\n        uint256 amount = _bonuses[msg.sender];\n        _bonuses[msg.sender] = 0;\n        payable(msg.sender).transfer(amount);\n        return true;\n    }\n\n    /**\n        Public role\n     */\n    function leftTime() external view returns (uint256) {\n        return (startedAt.add(timeLimit) > block.timestamp) ? \n            startedAt.add(timeLimit).sub(block.timestamp) :\n            0;\n    }\n\n    function progress() external view returns (uint) {\n        return _players.length;\n    }\n\n    // returns all picked-up cards, without holders address\n    function all() external view returns (uint8[] memory) {\n        uint8[] memory cards = new uint8[](_players.length);\n        for (uint i; i < _players.length; i++) {\n            // if started, then show only my card. and if stopped then show all cards\n            if (started) {\n                cards[i] = _players[i] == msg.sender ? pickupStatus[msg.sender] : 0;\n            } else {\n                cards[i] = pickupStatus[_players[i]];\n            }\n        }\n        return cards;\n    }\n\n    // returns latest winner\n    function winner() external view returns (string memory result) {\n        require(winners.length > 0, \"Not winners yet!\");\n        result = winners[winners.length - 1];\n    }\n}\n",
  "sourcePath": "/home/rol/Desktop/lotteryVue/lottery/contracts/PickupLottery.sol",
  "compiler": {
    "name": "solc",
    "version": "0.6.12+commit.27d51765.Emscripten.clang"
  },
  "schemaVersion": "3.4.1",
  "updatedAt": "2021-07-24T05:50:19.119Z",
  "networkType": "ethereum",
  "devdoc": {
    "kind": "dev",
    "methods": {
      "owner()": {
        "details": "Returns the address of the current owner."
      },
      "renounceOwnership()": {
        "details": "Leaves the contract without owner. It will not be possible to call `onlyOwner` functions anymore. Can only be called by the current owner. NOTE: Renouncing ownership will leave the contract without an owner, thereby removing any functionality that is only available to the owner."
      },
      "transferOwnership(address)": {
        "details": "Transfers ownership of the contract to a new account (`newOwner`). Can only be called by the current owner."
      }
    },
    "version": 1
  },
  "userdoc": {
    "kind": "user",
    "methods": {
      "leftTime()": {
        "notice": "Public role"
      },
      "pick(bytes)": {
        "notice": "Player's role"
      },
      "setFee(uint256)": {
        "notice": "Owner's role"
      }
    },
    "notice": "[[[ Simple Playing Card Lottery ]]]",
    "version": 1
  }
}