{
  "contractName": "PickupLottery",
  "abi": [
    {
      "anonymous": false,
      "inputs": [
        {
          "indexed": false,
          "internalType": "uint256",
          "name": "oldBonus",
          "type": "uint256"
        },
        {
          "indexed": false,
          "internalType": "uint256",
          "name": "newBonus",
          "type": "uint256"
        }
      ],
      "name": "BonusPercentageChanged",
      "type": "event"
    },
    {
      "anonymous": false,
      "inputs": [
        {
          "indexed": false,
          "internalType": "uint256",
          "name": "numberOfPicks",
          "type": "uint256"
        }
      ],
      "name": "CardPicked",
      "type": "event"
    },
    {
      "anonymous": false,
      "inputs": [
        {
          "indexed": false,
          "internalType": "uint256",
          "name": "oldFee",
          "type": "uint256"
        },
        {
          "indexed": false,
          "internalType": "uint256",
          "name": "newFee",
          "type": "uint256"
        }
      ],
      "name": "FeeChanged",
      "type": "event"
    },
    {
      "anonymous": false,
      "inputs": [
        {
          "indexed": true,
          "internalType": "address",
          "name": "previousOwner",
          "type": "address"
        },
        {
          "indexed": true,
          "internalType": "address",
          "name": "newOwner",
          "type": "address"
        }
      ],
      "name": "OwnershipTransferred",
      "type": "event"
    },
    {
      "anonymous": false,
      "inputs": [
        {
          "indexed": false,
          "internalType": "uint256",
          "name": "oldLimit",
          "type": "uint256"
        },
        {
          "indexed": false,
          "internalType": "uint256",
          "name": "newLimit",
          "type": "uint256"
        }
      ],
      "name": "PickupLimitChanged",
      "type": "event"
    },
    {
      "anonymous": false,
      "inputs": [
        {
          "indexed": false,
          "internalType": "uint256",
          "name": "startedTime",
          "type": "uint256"
        }
      ],
      "name": "Started",
      "type": "event"
    },
    {
      "anonymous": false,
      "inputs": [
        {
          "indexed": false,
          "internalType": "uint256",
          "name": "startedTime",
          "type": "uint256"
        },
        {
          "indexed": false,
          "internalType": "uint256",
          "name": "stoppedTime",
          "type": "uint256"
        }
      ],
      "name": "Stopped",
      "type": "event"
    },
    {
      "anonymous": false,
      "inputs": [
        {
          "indexed": false,
          "internalType": "uint256",
          "name": "oldLimit",
          "type": "uint256"
        },
        {
          "indexed": false,
          "internalType": "uint256",
          "name": "newLimit",
          "type": "uint256"
        }
      ],
      "name": "TimeLimitChanged",
      "type": "event"
    },
    {
      "anonymous": false,
      "inputs": [
        {
          "indexed": false,
          "internalType": "uint256",
          "name": "oldCard",
          "type": "uint256"
        },
        {
          "indexed": false,
          "internalType": "uint256",
          "name": "newCard",
          "type": "uint256"
        }
      ],
      "name": "WinningCardChanged",
      "type": "event"
    },
    {
      "inputs": [],
      "name": "bonusPercentage",
      "outputs": [
        {
          "internalType": "uint256",
          "name": "",
          "type": "uint256"
        }
      ],
      "stateMutability": "view",
      "type": "function",
      "constant": true
    },
    {
      "inputs": [],
      "name": "endedAt",
      "outputs": [
        {
          "internalType": "uint256",
          "name": "",
          "type": "uint256"
        }
      ],
      "stateMutability": "view",
      "type": "function",
      "constant": true
    },
    {
      "inputs": [],
      "name": "owner",
      "outputs": [
        {
          "internalType": "address",
          "name": "",
          "type": "address"
        }
      ],
      "stateMutability": "view",
      "type": "function",
      "constant": true
    },
    {
      "inputs": [],
      "name": "pickupLimit",
      "outputs": [
        {
          "internalType": "uint256",
          "name": "",
          "type": "uint256"
        }
      ],
      "stateMutability": "view",
      "type": "function",
      "constant": true
    },
    {
      "inputs": [
        {
          "internalType": "bytes32",
          "name": "requestId",
          "type": "bytes32"
        },
        {
          "internalType": "uint256",
          "name": "randomness",
          "type": "uint256"
        }
      ],
      "name": "rawFulfillRandomness",
      "outputs": [],
      "stateMutability": "nonpayable",
      "type": "function"
    },
    {
      "inputs": [],
      "name": "renounceOwnership",
      "outputs": [],
      "stateMutability": "nonpayable",
      "type": "function"
    },
    {
      "inputs": [],
      "name": "roundFee",
      "outputs": [
        {
          "internalType": "uint256",
          "name": "",
          "type": "uint256"
        }
      ],
      "stateMutability": "view",
      "type": "function",
      "constant": true
    },
    {
      "inputs": [],
      "name": "started",
      "outputs": [
        {
          "internalType": "bool",
          "name": "",
          "type": "bool"
        }
      ],
      "stateMutability": "view",
      "type": "function",
      "constant": true
    },
    {
      "inputs": [],
      "name": "startedAt",
      "outputs": [
        {
          "internalType": "uint256",
          "name": "",
          "type": "uint256"
        }
      ],
      "stateMutability": "view",
      "type": "function",
      "constant": true
    },
    {
      "inputs": [],
      "name": "timeLimit",
      "outputs": [
        {
          "internalType": "uint256",
          "name": "",
          "type": "uint256"
        }
      ],
      "stateMutability": "view",
      "type": "function",
      "constant": true
    },
    {
      "inputs": [
        {
          "internalType": "address",
          "name": "newOwner",
          "type": "address"
        }
      ],
      "name": "transferOwnership",
      "outputs": [],
      "stateMutability": "nonpayable",
      "type": "function"
    },
    {
      "inputs": [
        {
          "internalType": "uint256",
          "name": "",
          "type": "uint256"
        }
      ],
      "name": "winners",
      "outputs": [
        {
          "internalType": "string",
          "name": "",
          "type": "string"
        }
      ],
      "stateMutability": "view",
      "type": "function",
      "constant": true
    },
    {
      "inputs": [],
      "name": "winningCard",
      "outputs": [
        {
          "internalType": "uint256",
          "name": "",
          "type": "uint256"
        }
      ],
      "stateMutability": "view",
      "type": "function",
      "constant": true
    },
    {
      "inputs": [
        {
          "internalType": "uint256",
          "name": "_fee",
          "type": "uint256"
        }
      ],
      "name": "setFee",
      "outputs": [],
      "stateMutability": "nonpayable",
      "type": "function"
    },
    {
      "inputs": [
        {
          "internalType": "uint256",
          "name": "_card",
          "type": "uint256"
        }
      ],
      "name": "setWinningCard",
      "outputs": [],
      "stateMutability": "nonpayable",
      "type": "function"
    },
    {
      "inputs": [
        {
          "internalType": "uint256",
          "name": "_limit",
          "type": "uint256"
        }
      ],
      "name": "setPickupLimit",
      "outputs": [],
      "stateMutability": "nonpayable",
      "type": "function"
    },
    {
      "inputs": [
        {
          "internalType": "uint256",
          "name": "_limit",
          "type": "uint256"
        }
      ],
      "name": "setTimeLimit",
      "outputs": [],
      "stateMutability": "nonpayable",
      "type": "function"
    },
    {
      "inputs": [
        {
          "internalType": "uint256",
          "name": "_bonusPercentage",
          "type": "uint256"
        }
      ],
      "name": "setBonusPercentage",
      "outputs": [],
      "stateMutability": "nonpayable",
      "type": "function"
    },
    {
      "inputs": [],
      "name": "start",
      "outputs": [],
      "stateMutability": "nonpayable",
      "type": "function"
    },
    {
      "inputs": [],
      "name": "stop",
      "outputs": [],
      "stateMutability": "nonpayable",
      "type": "function"
    },
    {
      "inputs": [],
      "name": "cancel",
      "outputs": [],
      "stateMutability": "nonpayable",
      "type": "function"
    },
    {
      "inputs": [
        {
          "internalType": "address payable",
          "name": "recipient",
          "type": "address"
        },
        {
          "internalType": "uint256",
          "name": "amount",
          "type": "uint256"
        }
      ],
      "name": "transfer",
      "outputs": [],
      "stateMutability": "nonpayable",
      "type": "function"
    },
    {
      "inputs": [
        {
          "internalType": "bytes",
          "name": "nickName",
          "type": "bytes"
        }
      ],
      "name": "pick",
      "outputs": [
        {
          "internalType": "uint256",
          "name": "card",
          "type": "uint256"
        }
      ],
      "stateMutability": "payable",
      "type": "function",
      "payable": true
    },
    {
      "inputs": [],
      "name": "picked",
      "outputs": [
        {
          "internalType": "uint256",
          "name": "card",
          "type": "uint256"
        }
      ],
      "stateMutability": "view",
      "type": "function",
      "constant": true
    },
    {
      "inputs": [],
      "name": "bonus",
      "outputs": [
        {
          "internalType": "uint256",
          "name": "",
          "type": "uint256"
        }
      ],
      "stateMutability": "view",
      "type": "function",
      "constant": true
    },
    {
      "inputs": [],
      "name": "withdraw",
      "outputs": [
        {
          "internalType": "bool",
          "name": "",
          "type": "bool"
        }
      ],
      "stateMutability": "nonpayable",
      "type": "function"
    },
    {
      "inputs": [],
      "name": "leftTime",
      "outputs": [
        {
          "internalType": "uint256",
          "name": "",
          "type": "uint256"
        }
      ],
      "stateMutability": "view",
      "type": "function",
      "constant": true
    },
    {
      "inputs": [],
      "name": "progress",
      "outputs": [
        {
          "internalType": "uint256",
          "name": "",
          "type": "uint256"
        }
      ],
      "stateMutability": "view",
      "type": "function",
      "constant": true
    },
    {
      "inputs": [],
      "name": "all",
      "outputs": [
        {
          "internalType": "uint256[]",
          "name": "",
          "type": "uint256[]"
        }
      ],
      "stateMutability": "view",
      "type": "function",
      "constant": true
    },
    {
      "inputs": [],
      "name": "winner",
      "outputs": [
        {
          "internalType": "string",
          "name": "result",
          "type": "string"
        }
      ],
      "stateMutability": "view",
      "type": "function",
      "constant": true
    }
  ],
  "bytecode": "0x60c0604052662386f26fc10000603a556001603b556028603c5563240c8400603d55605a603e556000603f60006101000a81548160ff02191690831515021790555073dd3782915140c8f3b190b5d67eac6dc5760c46e973a36085f69e2889c224210f603d836748e7dc00888173ffffffffffffffffffffffffffffffffffffffff1660a08173ffffffffffffffffffffffffffffffffffffffff1660601b815250508073ffffffffffffffffffffffffffffffffffffffff1660808173ffffffffffffffffffffffffffffffffffffffff1660601b8152505050507f6c3699283bda56ad74f6b855546325b68d482e983852a7a82979cc4807b641f460001b60378190555067016345785d8a000060388190555060006101246101c860201b60201c565b905080603960006101000a81548173ffffffffffffffffffffffffffffffffffffffff021916908373ffffffffffffffffffffffffffffffffffffffff1602179055508073ffffffffffffffffffffffffffffffffffffffff16600073ffffffffffffffffffffffffffffffffffffffff167f8be0079c531659141344cd1fd0a4f28419497f9722a3daafe3b4186f6b6457e060405160405180910390a3506101d0565b600033905090565b60805160601c60a05160601c61375e6200020460003980611c4552806131cb52508061304b528061318f525061375e6000f3fe6080604052600436106101cd5760003560e01c80638da5cb5b116100f7578063cca38d4411610095578063ea8a1af011610064578063ea8a1af014610853578063f21f537d1461086a578063f2fde38b14610895578063f8351daf146108e6576101cd565b8063cca38d4414610732578063d78317bf1461075d578063dfbf53ae14610788578063e2889c8214610818576101cd565b8063a9059cbb116100d1578063a9059cbb1461066a578063be9a6555146106c5578063c08d1fe5146106dc578063c399b16d14610707576101cd565b80638da5cb5b1461051a57806394985ddd14610571578063a2fb1175146105b6576101cd565b8063577bd3361161016f57806375b4d78c1161013e57806375b4d78c1461045e5780637b2322d914610489578063813d6c9a146104c45780638aa83721146104ef576101cd565b8063577bd336146103a657806369fe0e2d146103d1578063715018a61461040c57806372b414fc14610423576101cd565b8063233c170e116101ab578063233c170e146102845780633bb4e262146102bf5780633ccfd60b1461034c5780633d6a71e41461037b576101cd565b806307da68f5146101d257806310c4e8b0146101e95780631f2698ab14610255575b600080fd5b3480156101de57600080fd5b506101e7610911565b005b3480156101f557600080fd5b506101fe610a6d565b6040518080602001828103825283818151815260200191508051906020019060200280838360005b83811015610241578082015181840152602081019050610226565b505050509050019250505060405180910390f35b34801561026157600080fd5b5061026a610c57565b604051808215151515815260200191505060405180910390f35b34801561029057600080fd5b506102bd600480360360208110156102a757600080fd5b8101908080359060200190929190505050610c6a565b005b610336600480360360208110156102d557600080fd5b81019080803590602001906401000000008111156102f257600080fd5b82018360208201111561030457600080fd5b8035906020019184600183028401116401000000008311171561032657600080fd5b9091929391929390505050610e4a565b6040518082815260200191505060405180910390f35b34801561035857600080fd5b50610361611289565b604051808215151515815260200191505060405180910390f35b34801561038757600080fd5b50610390611417565b6040518082815260200191505060405180910390f35b3480156103b257600080fd5b506103bb61141d565b6040518082815260200191505060405180910390f35b3480156103dd57600080fd5b5061040a600480360360208110156103f457600080fd5b810190808035906020019092919050505061142a565b005b34801561041857600080fd5b5061042161161b565b005b34801561042f57600080fd5b5061045c6004803603602081101561044657600080fd5b81019080803590602001909291905050506117a6565b005b34801561046a57600080fd5b50610473611986565b6040518082815260200191505060405180910390f35b34801561049557600080fd5b506104c2600480360360208110156104ac57600080fd5b81019080803590602001909291905050506119cd565b005b3480156104d057600080fd5b506104d9611bcc565b6040518082815260200191505060405180910390f35b3480156104fb57600080fd5b50610504611bd2565b6040518082815260200191505060405180910390f35b34801561052657600080fd5b5061052f611c19565b604051808273ffffffffffffffffffffffffffffffffffffffff1673ffffffffffffffffffffffffffffffffffffffff16815260200191505060405180910390f35b34801561057d57600080fd5b506105b46004803603604081101561059457600080fd5b810190808035906020019092919080359060200190929190505050611c43565b005b3480156105c257600080fd5b506105ef600480360360208110156105d957600080fd5b8101908080359060200190929190505050611d12565b6040518080602001828103825283818151815260200191508051906020019080838360005b8381101561062f578082015181840152602081019050610614565b50505050905090810190601f16801561065c5780820380516001836020036101000a031916815260200191505b509250505060405180910390f35b34801561067657600080fd5b506106c36004803603604081101561068d57600080fd5b81019080803573ffffffffffffffffffffffffffffffffffffffff16906020019092919080359060200190929190505050611dcb565b005b3480156106d157600080fd5b506106da611f55565b005b3480156106e857600080fd5b506106f161220f565b6040518082815260200191505060405180910390f35b34801561071357600080fd5b5061071c612215565b6040518082815260200191505060405180910390f35b34801561073e57600080fd5b5061074761221b565b6040518082815260200191505060405180910390f35b34801561076957600080fd5b50610772612221565b6040518082815260200191505060405180910390f35b34801561079457600080fd5b5061079d612276565b6040518080602001828103825283818151815260200191508051906020019080838360005b838110156107dd5780820151818401526020810190506107c2565b50505050905090810190601f16801561080a5780820380516001836020036101000a031916815260200191505b509250505060405180910390f35b34801561082457600080fd5b506108516004803603602081101561083b57600080fd5b81019080803590602001909291905050506123b0565b005b34801561085f57600080fd5b50610868612596565b005b34801561087657600080fd5b5061087f6126ea565b6040518082815260200191505060405180910390f35b3480156108a157600080fd5b506108e4600480360360208110156108b857600080fd5b81019080803573ffffffffffffffffffffffffffffffffffffffff1690602001909291905050506126f0565b005b3480156108f257600080fd5b506108fb612900565b6040518082815260200191505060405180910390f35b610919612906565b73ffffffffffffffffffffffffffffffffffffffff16603960009054906101000a900473ffffffffffffffffffffffffffffffffffffffff1673ffffffffffffffffffffffffffffffffffffffff16146109db576040517f08c379a00000000000000000000000000000000000000000000000000000000081526004018080602001828103825260208152602001807f4f776e61626c653a2063616c6c6572206973206e6f7420746865206f776e657281525060200191505060405180910390fd5b603f60009054906101000a900460ff1680156109fc5750603d546040540142105b8015610a0e5750603c54604280549050105b610a63576040517f08c379a00000000000000000000000000000000000000000000000000000000081526004018080602001828103825260298152602001806136636029913960400191505060405180910390fd5b610a6b61290e565b565b60608060428054905067ffffffffffffffff81118015610a8c57600080fd5b50604051908082528060200260200182016040528015610abb5781602001602082028036833780820191505090505b50905060005b604280549050811015610c4f57603f60009054906101000a900460ff1615610bb2573373ffffffffffffffffffffffffffffffffffffffff1660428281548110610b0757fe5b9060005260206000200160009054906101000a900473ffffffffffffffffffffffffffffffffffffffff1673ffffffffffffffffffffffffffffffffffffffff1614610b54576000610b95565b604360003373ffffffffffffffffffffffffffffffffffffffff1673ffffffffffffffffffffffffffffffffffffffff168152602001908152602001600020545b828281518110610ba157fe5b602002602001018181525050610c42565b6043600060428381548110610bc357fe5b9060005260206000200160009054906101000a900473ffffffffffffffffffffffffffffffffffffffff1673ffffffffffffffffffffffffffffffffffffffff1673ffffffffffffffffffffffffffffffffffffffff16815260200190815260200160002054828281518110610c3557fe5b6020026020010181815250505b8080600101915050610ac1565b508091505090565b603f60009054906101000a900460ff1681565b610c72612906565b73ffffffffffffffffffffffffffffffffffffffff16603960009054906101000a900473ffffffffffffffffffffffffffffffffffffffff1673ffffffffffffffffffffffffffffffffffffffff1614610d34576040517f08c379a00000000000000000000000000000000000000000000000000000000081526004018080602001828103825260208152602001807f4f776e61626c653a2063616c6c6572206973206e6f7420746865206f776e657281525060200191505060405180910390fd5b603f60009054906101000a900460ff1615610d9a576040517f08c379a00000000000000000000000000000000000000000000000000000000081526004018080602001828103825260298152602001806135916029913960400191505060405180910390fd5b600081118015610daa5750603781105b610dff576040517f08c379a00000000000000000000000000000000000000000000000000000000081526004018080602001828103825260248152602001806137056024913960400191505060405180910390fd5b7f39cc3965350f2a3f2bdb61e457f1f93c53238d3bea9a66571cbb877b674c5d34603c5482604051808381526020018281526020019250505060405180910390a180603c8190555050565b6000603f60009054906101000a900460ff168015610e6d5750603d546040540142105b8015610e7f5750603c54604280549050105b610ed4576040517f08c379a00000000000000000000000000000000000000000000000000000000081526004018080602001828103825260298152602001806136636029913960400191505060405180910390fd5b6000604360003373ffffffffffffffffffffffffffffffffffffffff1673ffffffffffffffffffffffffffffffffffffffff1681526020019081526020016000205414610f89576040517f08c379a00000000000000000000000000000000000000000000000000000000081526004018080602001828103825260208152602001807f506c617965722063616e207069636b2075702063617264206174206f6e63652e81525060200191505060405180910390fd5b603a54341015610fe4576040517f08c379a00000000000000000000000000000000000000000000000000000000081526004018080602001828103825260228152602001806136416022913960400191505060405180910390fd5b42610ffc603d54604054612c8c90919063ffffffff16565b1015611094577f52b6b9d1672a7686b4e4fc93956fe428e964937964b8b188b55166f2ad86cd5460405442604051808381526020018281526020019250505060405180910390a16040517f08c379a000000000000000000000000000000000000000000000000000000000815260040180806020018281038252602481526020018061368c6024913960400191505060405180910390fd5b60008383905011156110f0578282604560003373ffffffffffffffffffffffffffffffffffffffff1673ffffffffffffffffffffffffffffffffffffffff16815260200190815260200160002091906110ee92919061344a565b505b60016042805490506036811061110257fe5b0154604360003373ffffffffffffffffffffffffffffffffffffffff1673ffffffffffffffffffffffffffffffffffffffff168152602001908152602001600020819055506042339080600181540180825580915050600190039060005260206000200160009091909190916101000a81548173ffffffffffffffffffffffffffffffffffffffff021916908373ffffffffffffffffffffffffffffffffffffffff16021790555034604460003373ffffffffffffffffffffffffffffffffffffffff1673ffffffffffffffffffffffffffffffffffffffff168152602001908152602001600020819055507fee4358dfced78623283b935cd31843787339483c153fa8d4a72e53ba9fdd885d6042805490506040518082815260200191505060405180910390a1603c54604280549050106112415761124061290e565b5b604360003373ffffffffffffffffffffffffffffffffffffffff1673ffffffffffffffffffffffffffffffffffffffff16815260200190815260200160002054905092915050565b600080604660003373ffffffffffffffffffffffffffffffffffffffff1673ffffffffffffffffffffffffffffffffffffffff168152602001908152602001600020541161133f576040517f08c379a00000000000000000000000000000000000000000000000000000000081526004018080602001828103825260138152602001807f496e73756666696369656e742066756e64732e0000000000000000000000000081525060200191505060405180910390fd5b6000604660003373ffffffffffffffffffffffffffffffffffffffff1673ffffffffffffffffffffffffffffffffffffffff1681526020019081526020016000205490506000604660003373ffffffffffffffffffffffffffffffffffffffff1673ffffffffffffffffffffffffffffffffffffffff168152602001908152602001600020819055503373ffffffffffffffffffffffffffffffffffffffff166108fc829081150290604051600060405180830381858888f1935050505015801561140e573d6000803e3d6000fd5b50600191505090565b60415481565b6000604280549050905090565b611432612906565b73ffffffffffffffffffffffffffffffffffffffff16603960009054906101000a900473ffffffffffffffffffffffffffffffffffffffff1673ffffffffffffffffffffffffffffffffffffffff16146114f4576040517f08c379a00000000000000000000000000000000000000000000000000000000081526004018080602001828103825260208152602001807f4f776e61626c653a2063616c6c6572206973206e6f7420746865206f776e657281525060200191505060405180910390fd5b603f60009054906101000a900460ff161561155a576040517f08c379a00000000000000000000000000000000000000000000000000000000081526004018080602001828103825260298152602001806135916029913960400191505060405180910390fd5b600081116115d0576040517f08c379a00000000000000000000000000000000000000000000000000000000081526004018080602001828103825260178152602001807f4665652073686f756c64206e6f74206265207a65726f2e00000000000000000081525060200191505060405180910390fd5b7f5fc463da23c1b063e66f9e352006a7fbe8db7223c455dc429e881a2dfe2f94f1603a5482604051808381526020018281526020019250505060405180910390a180603a8190555050565b611623612906565b73ffffffffffffffffffffffffffffffffffffffff16603960009054906101000a900473ffffffffffffffffffffffffffffffffffffffff1673ffffffffffffffffffffffffffffffffffffffff16146116e5576040517f08c379a00000000000000000000000000000000000000000000000000000000081526004018080602001828103825260208152602001807f4f776e61626c653a2063616c6c6572206973206e6f7420746865206f776e657281525060200191505060405180910390fd5b600073ffffffffffffffffffffffffffffffffffffffff16603960009054906101000a900473ffffffffffffffffffffffffffffffffffffffff1673ffffffffffffffffffffffffffffffffffffffff167f8be0079c531659141344cd1fd0a4f28419497f9722a3daafe3b4186f6b6457e060405160405180910390a36000603960006101000a81548173ffffffffffffffffffffffffffffffffffffffff021916908373ffffffffffffffffffffffffffffffffffffffff160217905550565b6117ae612906565b73ffffffffffffffffffffffffffffffffffffffff16603960009054906101000a900473ffffffffffffffffffffffffffffffffffffffff1673ffffffffffffffffffffffffffffffffffffffff1614611870576040517f08c379a00000000000000000000000000000000000000000000000000000000081526004018080602001828103825260208152602001807f4f776e61626c653a2063616c6c6572206973206e6f7420746865206f776e657281525060200191505060405180910390fd5b603f60009054906101000a900460ff16156118d6576040517f08c379a00000000000000000000000000000000000000000000000000000000081526004018080602001828103825260298152602001806135916029913960400191505060405180910390fd5b6000811180156118e65750605f81105b61193b576040517f08c379a00000000000000000000000000000000000000000000000000000000081526004018080602001828103825260368152602001806135e06036913960400191505060405180910390fd5b7f6eac2ff5c5b54b2d9f88ca9f70f648236dd7f8cfc02b14fb78b9f8165bb2f73a603e5482604051808381526020018281526020019250505060405180910390a180603e8190555050565b6000604660003373ffffffffffffffffffffffffffffffffffffffff1673ffffffffffffffffffffffffffffffffffffffff16815260200190815260200160002054905090565b6119d5612906565b73ffffffffffffffffffffffffffffffffffffffff16603960009054906101000a900473ffffffffffffffffffffffffffffffffffffffff1673ffffffffffffffffffffffffffffffffffffffff1614611a97576040517f08c379a00000000000000000000000000000000000000000000000000000000081526004018080602001828103825260208152602001807f4f776e61626c653a2063616c6c6572206973206e6f7420746865206f776e657281525060200191505060405180910390fd5b603f60009054906101000a900460ff1615611afd576040517f08c379a00000000000000000000000000000000000000000000000000000000081526004018080602001828103825260298152602001806135916029913960400191505060405180910390fd5b80600081118015611b0e5750603781105b611b80576040517f08c379a000000000000000000000000000000000000000000000000000000000815260040180806020018281038252601f8152602001807f436172642073686f756c64206265206265747765656e203120616e642035340081525060200191505060405180910390fd5b7fd61483311c7379be61f9d449e46dc53c4a94236b1b32d471808169d1a1a7369f603b5483604051808381526020018281526020019250505060405180910390a181603b819055505050565b603e5481565b6000604360003373ffffffffffffffffffffffffffffffffffffffff1673ffffffffffffffffffffffffffffffffffffffff16815260200190815260200160002054905090565b6000603960009054906101000a900473ffffffffffffffffffffffffffffffffffffffff16905090565b7f000000000000000000000000000000000000000000000000000000000000000073ffffffffffffffffffffffffffffffffffffffff163373ffffffffffffffffffffffffffffffffffffffff1614611d04576040517f08c379a000000000000000000000000000000000000000000000000000000000815260040180806020018281038252601f8152602001807f4f6e6c7920565246436f6f7264696e61746f722063616e2066756c66696c6c0081525060200191505060405180910390fd5b611d0e8282612d14565b5050565b60478181548110611d1f57fe5b906000526020600020016000915090508054600181600116156101000203166002900480601f016020809104026020016040519081016040528092919081815260200182805460018160011615610100020316600290048015611dc35780601f10611d9857610100808354040283529160200191611dc3565b820191906000526020600020905b815481529060010190602001808311611da657829003601f168201915b505050505081565b611dd3612906565b73ffffffffffffffffffffffffffffffffffffffff16603960009054906101000a900473ffffffffffffffffffffffffffffffffffffffff1673ffffffffffffffffffffffffffffffffffffffff1614611e95576040517f08c379a00000000000000000000000000000000000000000000000000000000081526004018080602001828103825260208152602001807f4f776e61626c653a2063616c6c6572206973206e6f7420746865206f776e657281525060200191505060405180910390fd5b804711611f0a576040517f08c379a00000000000000000000000000000000000000000000000000000000081526004018080602001828103825260158152602001807f496e73756666696369656e742062616c616e63652e000000000000000000000081525060200191505060405180910390fd5b8173ffffffffffffffffffffffffffffffffffffffff166108fc829081150290604051600060405180830381858888f19350505050158015611f50573d6000803e3d6000fd5b505050565b611f5d612906565b73ffffffffffffffffffffffffffffffffffffffff16603960009054906101000a900473ffffffffffffffffffffffffffffffffffffffff1673ffffffffffffffffffffffffffffffffffffffff161461201f576040517f08c379a00000000000000000000000000000000000000000000000000000000081526004018080602001828103825260208152602001807f4f776e61626c653a2063616c6c6572206973206e6f7420746865206f776e657281525060200191505060405180910390fd5b603f60009054906101000a900460ff1615612085576040517f08c379a00000000000000000000000000000000000000000000000000000000081526004018080602001828103825260298152602001806135916029913960400191505060405180910390fd5b60005b6042805490508110156121965760446000604283815481106120a657fe5b9060005260206000200160009054906101000a900473ffffffffffffffffffffffffffffffffffffffff1673ffffffffffffffffffffffffffffffffffffffff1673ffffffffffffffffffffffffffffffffffffffff16815260200190815260200160002060009055604360006042838154811061212057fe5b9060005260206000200160009054906101000a900473ffffffffffffffffffffffffffffffffffffffff1673ffffffffffffffffffffffffffffffffffffffff1673ffffffffffffffffffffffffffffffffffffffff168152602001908152602001600020600090558080600101915050612088565b50604160009055604260006121ab91906134ca565b6121b3612dd7565b6001603f60006101000a81548160ff021916908315150217905550426040819055507e6e0c97de781a7389d44ba8fd35d1467cabb17ed04d038d166d34ab819213f36040546040518082815260200191505060405180910390a1565b603d5481565b603a5481565b603c5481565b60004261223b603d54604054612c8c90919063ffffffff16565b11612247576000612271565b61227042612262603d54604054612c8c90919063ffffffff16565b612dea90919063ffffffff16565b5b905090565b60606000604780549050116122f3576040517f08c379a00000000000000000000000000000000000000000000000000000000081526004018080602001828103825260108152602001807f4e6f742077696e6e65727320796574210000000000000000000000000000000081525060200191505060405180910390fd5b60476001604780549050038154811061230857fe5b906000526020600020018054600181600116156101000203166002900480601f0160208091040260200160405190810160405280929190818152602001828054600181600116156101000203166002900480156123a65780601f1061237b576101008083540402835291602001916123a6565b820191906000526020600020905b81548152906001019060200180831161238957829003601f168201915b5050505050905090565b6123b8612906565b73ffffffffffffffffffffffffffffffffffffffff16603960009054906101000a900473ffffffffffffffffffffffffffffffffffffffff1673ffffffffffffffffffffffffffffffffffffffff161461247a576040517f08c379a00000000000000000000000000000000000000000000000000000000081526004018080602001828103825260208152602001807f4f776e61626c653a2063616c6c6572206973206e6f7420746865206f776e657281525060200191505060405180910390fd5b603f60009054906101000a900460ff16156124e0576040517f08c379a00000000000000000000000000000000000000000000000000000000081526004018080602001828103825260298152602001806135916029913960400191505060405180910390fd5b620493e0811180156124f6575064039ef8b00081105b61254b576040517f08c379a00000000000000000000000000000000000000000000000000000000081526004018080602001828103825260348152602001806136d16034913960400191505060405180910390fd5b7f37ed38756959b798a76773d88a831f6ae750221b3199808c4700d970754aea53603d5482604051808381526020018281526020019250505060405180910390a180603d8190555050565b61259e612906565b73ffffffffffffffffffffffffffffffffffffffff16603960009054906101000a900473ffffffffffffffffffffffffffffffffffffffff1673ffffffffffffffffffffffffffffffffffffffff1614612660576040517f08c379a00000000000000000000000000000000000000000000000000000000081526004018080602001828103825260208152602001807f4f776e61626c653a2063616c6c6572206973206e6f7420746865206f776e657281525060200191505060405180910390fd5b603f60009054906101000a900460ff1680156126815750603d546040540142105b80156126935750603c54604280549050105b6126e8576040517f08c379a00000000000000000000000000000000000000000000000000000000081526004018080602001828103825260298152602001806136636029913960400191505060405180910390fd5b565b60405481565b6126f8612906565b73ffffffffffffffffffffffffffffffffffffffff16603960009054906101000a900473ffffffffffffffffffffffffffffffffffffffff1673ffffffffffffffffffffffffffffffffffffffff16146127ba576040517f08c379a00000000000000000000000000000000000000000000000000000000081526004018080602001828103825260208152602001807f4f776e61626c653a2063616c6c6572206973206e6f7420746865206f776e657281525060200191505060405180910390fd5b600073ffffffffffffffffffffffffffffffffffffffff168173ffffffffffffffffffffffffffffffffffffffff161415612840576040517f08c379a00000000000000000000000000000000000000000000000000000000081526004018080602001828103825260268152602001806135ba6026913960400191505060405180910390fd5b8073ffffffffffffffffffffffffffffffffffffffff16603960009054906101000a900473ffffffffffffffffffffffffffffffffffffffff1673ffffffffffffffffffffffffffffffffffffffff167f8be0079c531659141344cd1fd0a4f28419497f9722a3daafe3b4186f6b6457e060405160405180910390a380603960006101000a81548173ffffffffffffffffffffffffffffffffffffffff021916908373ffffffffffffffffffffffffffffffffffffffff16021790555050565b603b5481565b600033905090565b603f60009054906101000a900460ff16801561292f5750603d546040540142105b80156129415750603c54604280549050105b612996576040517f08c379a00000000000000000000000000000000000000000000000000000000081526004018080602001828103825260298152602001806136636029913960400191505060405180910390fd5b6000603f60006101000a81548160ff0219169083151502179055504260418190555060008060008090505b604280549050811015612aaf576000604282815481106129dd57fe5b9060005260206000200160009054906101000a900473ffffffffffffffffffffffffffffffffffffffff169050604460008273ffffffffffffffffffffffffffffffffffffffff1673ffffffffffffffffffffffffffffffffffffffff16815260200190815260200160002054830192506000604360008373ffffffffffffffffffffffffffffffffffffffff1673ffffffffffffffffffffffffffffffffffffffff168152602001908152602001600020549050603b54811415612aa0578194505b505080806001019150506129c1565b50600073ffffffffffffffffffffffffffffffffffffffff168273ffffffffffffffffffffffffffffffffffffffff1614612c4557612b0c6064612afe603e5484612e7390919063ffffffff16565b612ef990919063ffffffff16565b604660008473ffffffffffffffffffffffffffffffffffffffff1673ffffffffffffffffffffffffffffffffffffffff168152602001908152602001600020600082825401925050819055506047604560008473ffffffffffffffffffffffffffffffffffffffff1673ffffffffffffffffffffffffffffffffffffffff1681526020019081526020016000206040516020018082805460018160011615610100020316600290048015612bf75780601f10612bd5576101008083540402835291820191612bf7565b820191906000526020600020905b815481529060010190602001808311612be3575b5050915050604051602081830303815290604052908060018154018082558091505060019003906000526020600020016000909190919091509080519060200190612c439291906134eb565b505b7f52b6b9d1672a7686b4e4fc93956fe428e964937964b8b188b55166f2ad86cd54604054604154604051808381526020018281526020019250505060405180910390a15050565b600080828401905083811015612d0a576040517f08c379a000000000000000000000000000000000000000000000000000000000815260040180806020018281038252601b8152602001807f536166654d6174683a206164646974696f6e206f766572666c6f77000000000081525060200191505060405180910390fd5b8091505092915050565b60008060008090505b6036811015612dd057612d6e6036856001840160405160200180838152602001828152602001925050506040516020818303038152906040528051906020012060001c612f8890919063ffffffff16565b915080821415612d7d57612dc3565b60018160368110612d8a57fe5b0154925060018260368110612d9b57fe5b015460018260368110612daa57fe5b01819055508260018360368110612dbd57fe5b01819055505b8080600101915050612d1d565b5050505050565b612ddf613012565b612de7613044565b50565b600082821115612e62576040517f08c379a000000000000000000000000000000000000000000000000000000000815260040180806020018281038252601e8152602001807f536166654d6174683a207375627472616374696f6e206f766572666c6f77000081525060200191505060405180910390fd5b600082840390508091505092915050565b600080831415612e865760009050612ef3565b6000828402905082848281612e9757fe5b0414612eee576040517f08c379a00000000000000000000000000000000000000000000000000000000081526004018080602001828103825260218152602001806136b06021913960400191505060405180910390fd5b809150505b92915050565b6000808211612f70576040517f08c379a000000000000000000000000000000000000000000000000000000000815260040180806020018281038252601a8152602001807f536166654d6174683a206469766973696f6e206279207a65726f00000000000081525060200191505060405180910390fd5b6000828481612f7b57fe5b0490508091505092915050565b600080821415613000576040517f08c379a00000000000000000000000000000000000000000000000000000000081526004018080602001828103825260188152602001807f536166654d6174683a206d6f64756c6f206279207a65726f000000000000000081525060200191505060405180910390fd5b81838161300957fe5b06905092915050565b60005b603681101561304157600181016001826036811061302f57fe5b01819055508080600101915050613015565b50565b60006038547f000000000000000000000000000000000000000000000000000000000000000073ffffffffffffffffffffffffffffffffffffffff166370a08231306040518263ffffffff1660e01b8152600401808273ffffffffffffffffffffffffffffffffffffffff1673ffffffffffffffffffffffffffffffffffffffff16815260200191505060206040518083038186803b1580156130e657600080fd5b505afa1580156130fa573d6000803e3d6000fd5b505050506040513d602081101561311057600080fd5b81019080805190602001909291905050501015613178576040517f08c379a000000000000000000000000000000000000000000000000000000000815260040180806020018281038252602b815260200180613616602b913960400191505060405180910390fd5b61318660375460385461318b565b905090565b60007f000000000000000000000000000000000000000000000000000000000000000073ffffffffffffffffffffffffffffffffffffffff16634000aea07f00000000000000000000000000000000000000000000000000000000000000008486600060405160200180838152602001828152602001925050506040516020818303038152906040526040518463ffffffff1660e01b8152600401808473ffffffffffffffffffffffffffffffffffffffff1673ffffffffffffffffffffffffffffffffffffffff16815260200183815260200180602001828103825283818151815260200191508051906020019080838360005b8381101561329b578082015181840152602081019050613280565b50505050905090810190601f1680156132c85780820380516001836020036101000a031916815260200191505b50945050505050602060405180830381600087803b1580156132e957600080fd5b505af11580156132fd573d6000803e3d6000fd5b505050506040513d602081101561331357600080fd5b81019080805190602001909291905050505060006133468460003060008089815260200190815260200160002054613397565b905061336e600160008087815260200190815260200160002054612c8c90919063ffffffff16565b6000808681526020019081526020016000208190555061338e8482613411565b91505092915050565b600084848484604051602001808581526020018481526020018373ffffffffffffffffffffffffffffffffffffffff1673ffffffffffffffffffffffffffffffffffffffff1681526020018281526020019450505050506040516020818303038152906040528051906020012060001c9050949350505050565b60008282604051602001808381526020018281526020019250505060405160208183030381529060405280519060200120905092915050565b828054600181600116156101000203166002900490600052602060002090601f016020900481019282601f1061348b57803560ff19168380011785556134b9565b828001600101855582156134b9579182015b828111156134b857823582559160200191906001019061349d565b5b5090506134c6919061356b565b5090565b50805460008255906000526020600020908101906134e8919061356b565b50565b828054600181600116156101000203166002900490600052602060002090601f016020900481019282601f1061352c57805160ff191683800117855561355a565b8280016001018555821561355a579182015b8281111561355957825182559160200191906001019061353e565b5b509050613567919061356b565b5090565b61358d91905b80821115613589576000816000905550600101613571565b5090565b9056fe4974206973206f6e6c7920617661696c61626c652061667465722073746f7070656420726f756e642e4f776e61626c653a206e6577206f776e657220697320746865207a65726f206164647265737357696e6e6572277320626f6e75732073686f756c64206265206c657373207468616e20393525206f6620616c6c20696e636f6d65732e4e6f7420656e6f756768204c494e4b202d2066696c6c20636f6e7472616374207769746820666175636574506c61796572206d7573742070617920746f207069636b207570206120636172642e4974206973206f6e6c7920617661696c61626c65206166746572207374617274206120726f756e642e536f7272792c2062757420726f756e6420697320616c7265616479206578706972656421536166654d6174683a206d756c7469706c69636174696f6e206f766572666c6f7754696d65206c696d69742073686f756c64206265206265747765656e2035206d696e7574657320616e642036206d6f6e7468732e5069636b7570206c696d69742073686f756c64206265206c657373207468616e2035352ea2646970667358221220ee2ba64b4ff5f8746523fb1b18fb2691bbb08fb1bebb2c16de33acf0152129de64736f6c63430006060033",
  "immutableReferences": {
    "1395": [
      {
        "length": 32,
        "start": 12363
      },
      {
        "length": 32,
        "start": 12687
      }
    ],
    "1397": [
      {
        "length": 32,
        "start": 7237
      },
      {
        "length": 32,
        "start": 12747
      }
    ]
  },
  "source": "// SPDX-License-Identifier: MIT\n\npragma solidity ^0.6.2;\n\nimport \"./WithCards.sol\";\nimport \"./SafeMath.sol\";\nimport \"./Ownable.sol\";\n\n/**\n    [[[ Simple Playing Card Lottery ]]]\n*/\ncontract PickupLottery is WithCards, Ownable {\n    uint256 private constant MAX_TIME_LIMIT = 6 * 30 * 24 * 60 * 60 * 1000;\n    uint256 private constant MIN_TIME_LIMIT = 5 * 60 * 1000;\n    uint256 private constant MAX_BONUS_PERCENTAGE = 95;\n\n    // config params\n    uint256 public roundFee = 0.01 * (10**18);\n    uint256 public winningCard = 1;\n    uint256 public pickupLimit = 40;\n    // 1 week limit for single round\n    uint256 public timeLimit = 7 * 24 * 60 * 60 * 1000;\n    uint256 public bonusPercentage = 90;\n\n    bool public started = false;\n    uint256 public startedAt;\n    uint256 public endedAt;\n\n    address [] private _players;\n\n    // player address + picked-up card\n    mapping (address => uint256) private pickupStatus;\n\n    // player address + paid fee\n    mapping (address => uint256) private _balances;\n\n    // player address + nick name\n    mapping (address => bytes) private _nicknames;\n\n    // player address + awarded bonus amount\n    mapping (address => uint256) private _bonuses;\n\n    string[] public winners;\n\n    modifier onlyStopped() {\n        require (!started, \"It is only available after stopped round.\");\n        _;\n    }\n\n    modifier onlyStarted() {\n        require (\n            started && \n            (block.timestamp < startedAt + timeLimit) && \n            (_players.length < pickupLimit),\n            \"It is only available after start a round.\"\n        );\n        _;\n    }\n\n    event Started(uint256 startedTime);\n    event Stopped(uint256 startedTime, uint256 stoppedTime);\n\n    event FeeChanged(uint256 oldFee, uint256 newFee);\n    event WinningCardChanged(uint256 oldCard, uint256 newCard);\n    event PickupLimitChanged(uint256 oldLimit, uint256 newLimit);\n    event TimeLimitChanged(uint256 oldLimit, uint256 newLimit);\n    event BonusPercentageChanged(uint256 oldBonus, uint256 newBonus);\n\n    event CardPicked(uint256 numberOfPicks);\n\n    /**\n        Owner's role\n     */\n    function setFee(uint256 _fee) external onlyOwner onlyStopped {\n        require(_fee > 0, \"Fee should not be zero.\");\n        emit FeeChanged(roundFee, _fee);\n        roundFee = _fee;\n    }\n\n    function setWinningCard(uint256 _card) external onlyOwner onlyStopped onlyValidCard(_card) {\n        emit WinningCardChanged(winningCard, _card);\n        winningCard = _card;\n    }\n\n    function setPickupLimit(uint256 _limit) external onlyOwner onlyStopped {\n        require(_limit > 0 && _limit < 55, \"Pickup limit should be less than 55.\");\n        emit PickupLimitChanged(pickupLimit, _limit);\n        pickupLimit = _limit;\n    }\n\n    function setTimeLimit(uint256 _limit) external onlyOwner onlyStopped {\n        require(\n            _limit > MIN_TIME_LIMIT && _limit < MAX_TIME_LIMIT,\n            \"Time limit should be between 5 minutes and 6 months.\"\n        );\n        emit TimeLimitChanged(timeLimit, _limit);\n\n        timeLimit = _limit;\n    }\n\n    function setBonusPercentage(uint256 _bonusPercentage) external onlyOwner onlyStopped {\n        require(\n            _bonusPercentage > 0 && _bonusPercentage < MAX_BONUS_PERCENTAGE,\n            \"Winner's bonus should be less than 95% of all incomes.\"\n        );\n        emit BonusPercentageChanged(bonusPercentage, _bonusPercentage);\n        bonusPercentage = _bonusPercentage;\n    }\n\n    // start()\n    // generate randomized cards list\n    // and record start time\n    function start() external onlyOwner onlyStopped {\n        // clear previous status\n        for (uint i; i < _players.length; i++) {\n            delete _balances[_players[i]];\n            delete pickupStatus[_players[i]];\n        }\n        delete endedAt;\n        delete _players;\n\n        // reset new round\n        generateCardsList();\n        started = true;\n        startedAt = block.timestamp;\n\n        emit Started(startedAt);\n    }\n\n    function stop() external onlyOwner onlyStarted {\n        _stop();\n    }\n\n    function _stop() internal onlyStarted {\n        started = false;\n        endedAt = block.timestamp;\n        address _winner;\n\n        // calculate total income, and find winner\n        uint256 totalIncome;\n        for (uint i = 0; i < _players.length; i++) {\n            address player = _players[i];\n            totalIncome += _balances[player];\n\n            uint256 card = pickupStatus[player];\n            if (card == winningCard) {\n                _winner = player;\n            }\n        }\n\n        if (_winner != address(0)) {\n            _bonuses[_winner] += totalIncome.mul(bonusPercentage).div(100);\n            winners.push(string(abi.encodePacked(_nicknames[_winner])));\n        }\n\n        emit Stopped(startedAt, endedAt);\n    }\n\n    // This will finish the round unexpectedly, so it will refund all balances to card holders\n    // and reset all status\n    function cancel() external onlyOwner onlyStarted {\n\n    }\n\n    function transfer(address payable recipient, uint256 amount) external onlyOwner{\n        require(address(this).balance > amount, \"Insufficient balance.\");\n        recipient.transfer(amount);\n    }\n\n    /**\n        Player's role\n     */\n    function pick(bytes calldata nickName) external payable onlyStarted returns (uint256 card) {\n        require(pickupStatus[msg.sender] == 0, \"Player can pick up card at once.\");\n        require(msg.value >= roundFee, \"Player must pay to pick up a card.\");\n\n        if (startedAt.add(timeLimit) < block.timestamp) {\n            emit Stopped(startedAt, block.timestamp);\n            revert(\"Sorry, but round is already expired!\");\n        }\n\n        // upgrade nick name\n        if (nickName.length > 0) {\n            _nicknames[msg.sender] = nickName;\n        }\n\n        pickupStatus[msg.sender] = _cardsList[_players.length];\n        _players.push(msg.sender);\n        _balances[msg.sender] = msg.value;\n        emit CardPicked(_players.length);\n\n        if (_players.length >= pickupLimit) {\n            _stop();\n        }\n        card = pickupStatus[msg.sender];\n    }\n\n    function picked() external view returns (uint256 card) {\n        return pickupStatus[msg.sender];\n    }\n\n    function bonus() external view returns (uint256) {\n        return _bonuses[msg.sender];\n    }\n\n    function withdraw() external returns (bool) {\n        require(_bonuses[msg.sender] > 0, \"Insufficient funds.\");\n        uint256 amount = _bonuses[msg.sender];\n        _bonuses[msg.sender] = 0;\n        payable(msg.sender).transfer(amount);\n        return true;\n    }\n\n    /**\n        Public role\n     */\n    function leftTime() external view returns (uint256) {\n        return (startedAt.add(timeLimit) > block.timestamp) ? \n            startedAt.add(timeLimit).sub(block.timestamp) :\n            0;\n    }\n\n    function progress() external view returns (uint) {\n        return _players.length;\n    }\n\n    // returns all picked-up cards, without holders address\n    function all() external view returns (uint256[] memory) {\n        uint256[] memory cards = new uint256[](_players.length);\n        for (uint i; i < _players.length; i++) {\n            // if started, then show only my card. and if stopped then show all cards\n            if (started) {\n                cards[i] = _players[i] == msg.sender ? pickupStatus[msg.sender] : 0;\n            } else {\n                cards[i] = pickupStatus[_players[i]];\n            }\n        }\n        return cards;\n    }\n\n    // returns latest winner\n    function winner() external view returns (string memory result) {\n        require(winners.length > 0, \"Not winners yet!\");\n        result = winners[winners.length - 1];\n    }\n}\n",
  "sourcePath": "/home/rol/Desktop/lotteryVue/lottery/contracts/PickupLottery.sol",
  "compiler": {
    "name": "solc",
    "version": "0.6.6+commit.6c089d02.Emscripten.clang"
  },
  "schemaVersion": "3.4.1",
  "updatedAt": "2021-07-24T13:26:19.737Z",
  "networkType": "ethereum",
  "devdoc": {
    "methods": {
      "owner()": {
        "details": "Returns the address of the current owner."
      },
      "renounceOwnership()": {
        "details": "Leaves the contract without owner. It will not be possible to call `onlyOwner` functions anymore. Can only be called by the current owner.     * NOTE: Renouncing ownership will leave the contract without an owner, thereby removing any functionality that is only available to the owner."
      },
      "transferOwnership(address)": {
        "details": "Transfers ownership of the contract to a new account (`newOwner`). Can only be called by the current owner."
      }
    }
  },
  "userdoc": {
    "methods": {
      "leftTime()": {
        "notice": "Public role"
      },
      "pick(bytes)": {
        "notice": "Player's role"
      },
      "setFee(uint256)": {
        "notice": "Owner's role"
      }
    },
    "notice": "[[[ Simple Playing Card Lottery ]]]"
  }
}