{
  "contractName": "PickupLottery",
  "abi": [
    {
      "anonymous": false,
      "inputs": [
        {
          "indexed": false,
          "internalType": "uint256",
          "name": "oldBonus",
          "type": "uint256"
        },
        {
          "indexed": false,
          "internalType": "uint256",
          "name": "newBonus",
          "type": "uint256"
        }
      ],
      "name": "BonusPercentageChanged",
      "type": "event"
    },
    {
      "anonymous": false,
      "inputs": [
        {
          "indexed": false,
          "internalType": "uint256",
          "name": "numberOfPicks",
          "type": "uint256"
        }
      ],
      "name": "CardPicked",
      "type": "event"
    },
    {
      "anonymous": false,
      "inputs": [
        {
          "indexed": false,
          "internalType": "uint256",
          "name": "oldFee",
          "type": "uint256"
        },
        {
          "indexed": false,
          "internalType": "uint256",
          "name": "newFee",
          "type": "uint256"
        }
      ],
      "name": "FeeChanged",
      "type": "event"
    },
    {
      "anonymous": false,
      "inputs": [
        {
          "indexed": false,
          "internalType": "uint256",
          "name": "startedTime",
          "type": "uint256"
        }
      ],
      "name": "GameStarted",
      "type": "event"
    },
    {
      "anonymous": false,
      "inputs": [
        {
          "indexed": false,
          "internalType": "uint256",
          "name": "startedTime",
          "type": "uint256"
        },
        {
          "indexed": false,
          "internalType": "uint256",
          "name": "stoppedTime",
          "type": "uint256"
        }
      ],
      "name": "GameStopped",
      "type": "event"
    },
    {
      "anonymous": false,
      "inputs": [
        {
          "indexed": true,
          "internalType": "address",
          "name": "previousOwner",
          "type": "address"
        },
        {
          "indexed": true,
          "internalType": "address",
          "name": "newOwner",
          "type": "address"
        }
      ],
      "name": "OwnershipTransferred",
      "type": "event"
    },
    {
      "anonymous": false,
      "inputs": [
        {
          "indexed": false,
          "internalType": "uint8",
          "name": "oldLimit",
          "type": "uint8"
        },
        {
          "indexed": false,
          "internalType": "uint8",
          "name": "newLimit",
          "type": "uint8"
        }
      ],
      "name": "PickupLimitChanged",
      "type": "event"
    },
    {
      "anonymous": false,
      "inputs": [
        {
          "indexed": false,
          "internalType": "uint256",
          "name": "oldLimit",
          "type": "uint256"
        },
        {
          "indexed": false,
          "internalType": "uint256",
          "name": "newLimit",
          "type": "uint256"
        }
      ],
      "name": "TimeLimitChanged",
      "type": "event"
    },
    {
      "anonymous": false,
      "inputs": [
        {
          "indexed": false,
          "internalType": "uint8",
          "name": "oldCard",
          "type": "uint8"
        },
        {
          "indexed": false,
          "internalType": "uint8",
          "name": "newCard",
          "type": "uint8"
        }
      ],
      "name": "WinningCardChanged",
      "type": "event"
    },
    {
      "inputs": [],
      "name": "bonusPercentage",
      "outputs": [
        {
          "internalType": "uint256",
          "name": "",
          "type": "uint256"
        }
      ],
      "stateMutability": "view",
      "type": "function"
    },
    {
      "inputs": [],
      "name": "endTime",
      "outputs": [
        {
          "internalType": "uint256",
          "name": "",
          "type": "uint256"
        }
      ],
      "stateMutability": "view",
      "type": "function"
    },
    {
      "inputs": [],
      "name": "fee",
      "outputs": [
        {
          "internalType": "uint256",
          "name": "",
          "type": "uint256"
        }
      ],
      "stateMutability": "view",
      "type": "function"
    },
    {
      "inputs": [],
      "name": "owner",
      "outputs": [
        {
          "internalType": "address",
          "name": "",
          "type": "address"
        }
      ],
      "stateMutability": "view",
      "type": "function"
    },
    {
      "inputs": [],
      "name": "pickupLimit",
      "outputs": [
        {
          "internalType": "uint8",
          "name": "",
          "type": "uint8"
        }
      ],
      "stateMutability": "view",
      "type": "function"
    },
    {
      "inputs": [],
      "name": "renounceOwnership",
      "outputs": [],
      "stateMutability": "nonpayable",
      "type": "function"
    },
    {
      "inputs": [],
      "name": "started",
      "outputs": [
        {
          "internalType": "bool",
          "name": "",
          "type": "bool"
        }
      ],
      "stateMutability": "view",
      "type": "function"
    },
    {
      "inputs": [],
      "name": "startedTime",
      "outputs": [
        {
          "internalType": "uint256",
          "name": "",
          "type": "uint256"
        }
      ],
      "stateMutability": "view",
      "type": "function"
    },
    {
      "inputs": [],
      "name": "timeLimit",
      "outputs": [
        {
          "internalType": "uint256",
          "name": "",
          "type": "uint256"
        }
      ],
      "stateMutability": "view",
      "type": "function"
    },
    {
      "inputs": [
        {
          "internalType": "address",
          "name": "newOwner",
          "type": "address"
        }
      ],
      "name": "transferOwnership",
      "outputs": [],
      "stateMutability": "nonpayable",
      "type": "function"
    },
    {
      "inputs": [
        {
          "internalType": "uint256",
          "name": "",
          "type": "uint256"
        }
      ],
      "name": "winners",
      "outputs": [
        {
          "internalType": "bytes",
          "name": "",
          "type": "bytes"
        }
      ],
      "stateMutability": "view",
      "type": "function"
    },
    {
      "inputs": [],
      "name": "winningCard",
      "outputs": [
        {
          "internalType": "uint8",
          "name": "",
          "type": "uint8"
        }
      ],
      "stateMutability": "view",
      "type": "function"
    },
    {
      "inputs": [
        {
          "internalType": "uint256",
          "name": "_fee",
          "type": "uint256"
        }
      ],
      "name": "updateFee",
      "outputs": [],
      "stateMutability": "nonpayable",
      "type": "function"
    },
    {
      "inputs": [
        {
          "internalType": "uint8",
          "name": "_card",
          "type": "uint8"
        }
      ],
      "name": "updateWinningCard",
      "outputs": [],
      "stateMutability": "nonpayable",
      "type": "function"
    },
    {
      "inputs": [
        {
          "internalType": "uint8",
          "name": "_limit",
          "type": "uint8"
        }
      ],
      "name": "updatePickupLimit",
      "outputs": [],
      "stateMutability": "nonpayable",
      "type": "function"
    },
    {
      "inputs": [
        {
          "internalType": "uint256",
          "name": "_limit",
          "type": "uint256"
        }
      ],
      "name": "updateTimeLimit",
      "outputs": [],
      "stateMutability": "nonpayable",
      "type": "function"
    },
    {
      "inputs": [
        {
          "internalType": "uint256",
          "name": "_bonus",
          "type": "uint256"
        }
      ],
      "name": "updateBonusPercentage",
      "outputs": [],
      "stateMutability": "nonpayable",
      "type": "function"
    },
    {
      "inputs": [],
      "name": "startGame",
      "outputs": [],
      "stateMutability": "nonpayable",
      "type": "function"
    },
    {
      "inputs": [],
      "name": "stopGame",
      "outputs": [],
      "stateMutability": "nonpayable",
      "type": "function"
    },
    {
      "inputs": [],
      "name": "cancel",
      "outputs": [],
      "stateMutability": "nonpayable",
      "type": "function"
    },
    {
      "inputs": [
        {
          "internalType": "address payable",
          "name": "recipient",
          "type": "address"
        },
        {
          "internalType": "uint256",
          "name": "amount",
          "type": "uint256"
        }
      ],
      "name": "transfer",
      "outputs": [],
      "stateMutability": "nonpayable",
      "type": "function"
    },
    {
      "inputs": [
        {
          "internalType": "bytes",
          "name": "nickName",
          "type": "bytes"
        }
      ],
      "name": "pick",
      "outputs": [
        {
          "internalType": "uint8",
          "name": "card",
          "type": "uint8"
        }
      ],
      "stateMutability": "payable",
      "type": "function"
    },
    {
      "inputs": [],
      "name": "picked",
      "outputs": [
        {
          "internalType": "uint8",
          "name": "card",
          "type": "uint8"
        }
      ],
      "stateMutability": "view",
      "type": "function"
    },
    {
      "inputs": [
        {
          "internalType": "uint256",
          "name": "amount",
          "type": "uint256"
        }
      ],
      "name": "withdraw",
      "outputs": [],
      "stateMutability": "nonpayable",
      "type": "function"
    },
    {
      "inputs": [],
      "name": "leftTime",
      "outputs": [
        {
          "internalType": "uint256",
          "name": "",
          "type": "uint256"
        }
      ],
      "stateMutability": "view",
      "type": "function"
    },
    {
      "inputs": [],
      "name": "progress",
      "outputs": [
        {
          "internalType": "uint256",
          "name": "",
          "type": "uint256"
        }
      ],
      "stateMutability": "view",
      "type": "function"
    },
    {
      "inputs": [],
      "name": "allPickedUp",
      "outputs": [
        {
          "internalType": "uint8[]",
          "name": "",
          "type": "uint8[]"
        }
      ],
      "stateMutability": "view",
      "type": "function"
    },
    {
      "inputs": [],
      "name": "winner",
      "outputs": [
        {
          "internalType": "bytes",
          "name": "",
          "type": "bytes"
        }
      ],
      "stateMutability": "view",
      "type": "function"
    }
  ],
  "bytecode": "0x6080604052662386f26fc100006003556003600460006101000a81548160ff021916908360ff1602179055506028600460016101000a81548160ff021916908360ff16021790555063240c8400600555605a6006556000600760006101000a81548160ff02191690831515021790555034801561007b57600080fd5b50600061008c61013060201b60201c565b905080600260006101000a81548173ffffffffffffffffffffffffffffffffffffffff021916908373ffffffffffffffffffffffffffffffffffffffff1602179055508073ffffffffffffffffffffffffffffffffffffffff16600073ffffffffffffffffffffffffffffffffffffffff167f8be0079c531659141344cd1fd0a4f28419497f9722a3daafe3b4186f6b6457e060405160405180910390a350610138565b600033905090565b612e0280620001486000396000f3fe6080604052600436106101b75760003560e01c8063a312ac97116100ec578063ddca3f431161008a578063ee17b95911610064578063ee17b959146107d8578063f2fde38b14610816578063f8351daf14610867578063fcd95a1a14610895576101b7565b8063ddca3f4314610706578063dfbf53ae14610731578063ea8a1af0146107c1576101b7565b8063cca38d44116100c6578063cca38d441461066b578063cebc6ad514610699578063d65ab5f2146106c4578063d78317bf146106db576101b7565b8063a312ac97146105aa578063a9059cbb146105e5578063c08d1fe514610640576101b7565b8063715018a6116101595780638aa83721116101335780638aa837211461044c5780638da5cb5b1461047a5780639012c4a8146104bb578063a2fb1175146104f6576101b7565b8063715018a6146103f3578063813d6c9a1461040a57806383bd72ba14610435576101b7565b8063338d3e9a11610195578063338d3e9a1461024f57806334cf95c7146102bb5780633bb4e262146102f6578063577bd336146103c8576101b7565b80631f2698ab146101bc5780632e1a7d4d146101e95780633197cbb614610224575b600080fd5b3480156101c857600080fd5b506101d16108d3565b60405180821515815260200191505060405180910390f35b3480156101f557600080fd5b506102226004803603602081101561020c57600080fd5b81019080803590602001909291905050506108e6565b005b34801561023057600080fd5b50610239610a31565b6040518082815260200191505060405180910390f35b34801561025b57600080fd5b50610264610a37565b6040518080602001828103825283818151815260200191508051906020019060200280838360005b838110156102a757808201518184015260208101905061028c565b505050509050019250505060405180910390f35b3480156102c757600080fd5b506102f4600480360360208110156102de57600080fd5b8101908080359060200190929190505050610b69565b005b6103af6004803603602081101561030c57600080fd5b810190808035906020019064010000000081111561032957600080fd5b82018360208201111561033b57600080fd5b8035906020019184600183028401116401000000008311171561035d57600080fd5b91908080601f016020809104026020016040519081016040528093929190818152602001838380828437600081840152601f19601f820116905080830192505050505050509192919290505050610cfd565b604051808260ff16815260200191505060405180910390f35b3480156103d457600080fd5b506103dd6110a8565b6040518082815260200191505060405180910390f35b3480156103ff57600080fd5b506104086110b5565b005b34801561041657600080fd5b5061041f611240565b6040518082815260200191505060405180910390f35b34801561044157600080fd5b5061044a611246565b005b34801561045857600080fd5b50610461611366565b604051808260ff16815260200191505060405180910390f35b34801561048657600080fd5b5061048f6113ba565b604051808273ffffffffffffffffffffffffffffffffffffffff16815260200191505060405180910390f35b3480156104c757600080fd5b506104f4600480360360208110156104de57600080fd5b81019080803590602001909291905050506113e4565b005b34801561050257600080fd5b5061052f6004803603602081101561051957600080fd5b8101908080359060200190929190505050611589565b6040518080602001828103825283818151815260200191508051906020019080838360005b8381101561056f578082015181840152602081019050610554565b50505050905090810190601f16801561059c5780820380516001836020036101000a031916815260200191505b509250505060405180910390f35b3480156105b657600080fd5b506105e3600480360360208110156105cd57600080fd5b8101908080359060200190929190505050611642565b005b3480156105f157600080fd5b5061063e6004803603604081101561060857600080fd5b81019080803573ffffffffffffffffffffffffffffffffffffffff169060200190929190803590602001909291905050506117dc565b005b34801561064c57600080fd5b50610655611966565b6040518082815260200191505060405180910390f35b34801561067757600080fd5b5061068061196c565b604051808260ff16815260200191505060405180910390f35b3480156106a557600080fd5b506106ae61197f565b6040518082815260200191505060405180910390f35b3480156106d057600080fd5b506106d9611985565b005b3480156106e757600080fd5b506106f0611c34565b6040518082815260200191505060405180910390f35b34801561071257600080fd5b5061071b611c89565b6040518082815260200191505060405180910390f35b34801561073d57600080fd5b50610746611c8f565b6040518080602001828103825283818151815260200191508051906020019080838360005b8381101561078657808201518184015260208101905061076b565b50505050905090810190601f1680156107b35780820380516001836020036101000a031916815260200191505b509250505060405180910390f35b3480156107cd57600080fd5b506107d6611daa565b005b3480156107e457600080fd5b50610814600480360360208110156107fb57600080fd5b81019080803560ff169060200190929190505050611ec2565b005b34801561082257600080fd5b506108656004803603602081101561083957600080fd5b81019080803573ffffffffffffffffffffffffffffffffffffffff169060200190929190505050612083565b005b34801561087357600080fd5b5061087c612293565b604051808260ff16815260200191505060405180910390f35b3480156108a157600080fd5b506108d1600480360360208110156108b857600080fd5b81019080803560ff1690602001909291905050506122a6565b005b600760009054906101000a900460ff1681565b80600f60003373ffffffffffffffffffffffffffffffffffffffff1673ffffffffffffffffffffffffffffffffffffffff168152602001908152602001600020541161099a576040517f08c379a00000000000000000000000000000000000000000000000000000000081526004018080602001828103825260138152602001807f496e73756666696369656e742066756e64732e0000000000000000000000000081525060200191505060405180910390fd5b80600f60003373ffffffffffffffffffffffffffffffffffffffff1673ffffffffffffffffffffffffffffffffffffffff168152602001908152602001600020600082825403925050819055503373ffffffffffffffffffffffffffffffffffffffff166108fc829081150290604051600060405180830381858888f19350505050158015610a2d573d6000803e3d6000fd5b5050565b60095481565b6060600760009054906101000a900460ff1615610a5357600080fd5b6060600b8054905067ffffffffffffffff81118015610a7157600080fd5b50604051908082528060200260200182016040528015610aa05781602001602082028036833780820191505090505b50905060005b600b80549050811015610b6457600c6000600b8381548110610ac457fe5b9060005260206000200160009054906101000a900473ffffffffffffffffffffffffffffffffffffffff1673ffffffffffffffffffffffffffffffffffffffff1673ffffffffffffffffffffffffffffffffffffffff16815260200190815260200160002060009054906101000a900460ff16828281518110610b4357fe5b602002602001019060ff16908160ff16815250508080600101915050610aa6565b505090565b610b71612486565b73ffffffffffffffffffffffffffffffffffffffff16600260009054906101000a900473ffffffffffffffffffffffffffffffffffffffff1673ffffffffffffffffffffffffffffffffffffffff1614610c33576040517f08c379a00000000000000000000000000000000000000000000000000000000081526004018080602001828103825260208152602001807f4f776e61626c653a2063616c6c6572206973206e6f7420746865206f776e657281525060200191505060405180910390fd5b600760009054906101000a900460ff1615610c4d57600080fd5b600081118015610c5d5750605f81105b610cb2576040517f08c379a0000000000000000000000000000000000000000000000000000000008152600401808060200182810382526036815260200180612cfc6036913960400191505060405180910390fd5b7f6eac2ff5c5b54b2d9f88ca9f70f648236dd7f8cfc02b14fb78b9f8165bb2f73a60065482604051808381526020018281526020019250505060405180910390a18060068190555050565b6000600760009054906101000a900460ff168015610d2057506005546008540142105b8015610d425750600460019054906101000a900460ff1660ff16600b80549050105b610d4b57600080fd5b6000600c60003373ffffffffffffffffffffffffffffffffffffffff1673ffffffffffffffffffffffffffffffffffffffff16815260200190815260200160002060009054906101000a900460ff1660ff1614610e10576040517f08c379a00000000000000000000000000000000000000000000000000000000081526004018080602001828103825260208152602001807f506c617965722063616e207069636b2075702063617264206174206f6e63652e81525060200191505060405180910390fd5b600354341015610e6b576040517f08c379a0000000000000000000000000000000000000000000000000000000008152600401808060200182810382526022815260200180612d326022913960400191505060405180910390fd5b600082511115610eca5781600e60003373ffffffffffffffffffffffffffffffffffffffff1673ffffffffffffffffffffffffffffffffffffffff1681526020019081526020016000209080519060200190610ec8929190612bb1565b505b6000600b8054905060368110610edc57fe5b602091828204019190069054906101000a900460ff16600c60003373ffffffffffffffffffffffffffffffffffffffff1673ffffffffffffffffffffffffffffffffffffffff16815260200190815260200160002060006101000a81548160ff021916908360ff160217905550600b339080600181540180825580915050600190039060005260206000200160009091909190916101000a81548173ffffffffffffffffffffffffffffffffffffffff021916908373ffffffffffffffffffffffffffffffffffffffff16021790555034600d60003373ffffffffffffffffffffffffffffffffffffffff1673ffffffffffffffffffffffffffffffffffffffff168152602001908152602001600020819055507fee4358dfced78623283b935cd31843787339483c153fa8d4a72e53ba9fdd885d600b805490506040518082815260200191505060405180910390a1600460019054906101000a900460ff1660ff16600b8054905014156110545761105361248e565b5b600c60003373ffffffffffffffffffffffffffffffffffffffff1673ffffffffffffffffffffffffffffffffffffffff16815260200190815260200160002060009054906101000a900460ff169050919050565b6000600b80549050905090565b6110bd612486565b73ffffffffffffffffffffffffffffffffffffffff16600260009054906101000a900473ffffffffffffffffffffffffffffffffffffffff1673ffffffffffffffffffffffffffffffffffffffff161461117f576040517f08c379a00000000000000000000000000000000000000000000000000000000081526004018080602001828103825260208152602001807f4f776e61626c653a2063616c6c6572206973206e6f7420746865206f776e657281525060200191505060405180910390fd5b600073ffffffffffffffffffffffffffffffffffffffff16600260009054906101000a900473ffffffffffffffffffffffffffffffffffffffff1673ffffffffffffffffffffffffffffffffffffffff167f8be0079c531659141344cd1fd0a4f28419497f9722a3daafe3b4186f6b6457e060405160405180910390a36000600260006101000a81548173ffffffffffffffffffffffffffffffffffffffff021916908373ffffffffffffffffffffffffffffffffffffffff160217905550565b60065481565b61124e612486565b73ffffffffffffffffffffffffffffffffffffffff16600260009054906101000a900473ffffffffffffffffffffffffffffffffffffffff1673ffffffffffffffffffffffffffffffffffffffff1614611310576040517f08c379a00000000000000000000000000000000000000000000000000000000081526004018080602001828103825260208152602001807f4f776e61626c653a2063616c6c6572206973206e6f7420746865206f776e657281525060200191505060405180910390fd5b600760009054906101000a900460ff16801561133157506005546008540142105b80156113535750600460019054906101000a900460ff1660ff16600b80549050105b61135c57600080fd5b61136461248e565b565b6000600c60003373ffffffffffffffffffffffffffffffffffffffff1673ffffffffffffffffffffffffffffffffffffffff16815260200190815260200160002060009054906101000a900460ff16905090565b6000600260009054906101000a900473ffffffffffffffffffffffffffffffffffffffff16905090565b6113ec612486565b73ffffffffffffffffffffffffffffffffffffffff16600260009054906101000a900473ffffffffffffffffffffffffffffffffffffffff1673ffffffffffffffffffffffffffffffffffffffff16146114ae576040517f08c379a00000000000000000000000000000000000000000000000000000000081526004018080602001828103825260208152602001807f4f776e61626c653a2063616c6c6572206973206e6f7420746865206f776e657281525060200191505060405180910390fd5b600760009054906101000a900460ff16156114c857600080fd5b6000811161153e576040517f08c379a00000000000000000000000000000000000000000000000000000000081526004018080602001828103825260178152602001807f4665652073686f756c64206e6f74206265207a65726f2e00000000000000000081525060200191505060405180910390fd5b7f5fc463da23c1b063e66f9e352006a7fbe8db7223c455dc429e881a2dfe2f94f160035482604051808381526020018281526020019250505060405180910390a18060038190555050565b6010818154811061159657fe5b906000526020600020016000915090508054600181600116156101000203166002900480601f01602080910402602001604051908101604052809291908181526020018280546001816001161561010002031660029004801561163a5780601f1061160f5761010080835404028352916020019161163a565b820191906000526020600020905b81548152906001019060200180831161161d57829003601f168201915b505050505081565b61164a612486565b73ffffffffffffffffffffffffffffffffffffffff16600260009054906101000a900473ffffffffffffffffffffffffffffffffffffffff1673ffffffffffffffffffffffffffffffffffffffff161461170c576040517f08c379a00000000000000000000000000000000000000000000000000000000081526004018080602001828103825260208152602001807f4f776e61626c653a2063616c6c6572206973206e6f7420746865206f776e657281525060200191505060405180910390fd5b600760009054906101000a900460ff161561172657600080fd5b620493e08111801561173c575064039ef8b00081105b611791576040517f08c379a0000000000000000000000000000000000000000000000000000000008152600401808060200182810382526034815260200180612d996034913960400191505060405180910390fd5b7f37ed38756959b798a76773d88a831f6ae750221b3199808c4700d970754aea5360055482604051808381526020018281526020019250505060405180910390a18060058190555050565b6117e4612486565b73ffffffffffffffffffffffffffffffffffffffff16600260009054906101000a900473ffffffffffffffffffffffffffffffffffffffff1673ffffffffffffffffffffffffffffffffffffffff16146118a6576040517f08c379a00000000000000000000000000000000000000000000000000000000081526004018080602001828103825260208152602001807f4f776e61626c653a2063616c6c6572206973206e6f7420746865206f776e657281525060200191505060405180910390fd5b80471161191b576040517f08c379a00000000000000000000000000000000000000000000000000000000081526004018080602001828103825260158152602001807f496e73756666696369656e742062616c616e63652e000000000000000000000081525060200191505060405180910390fd5b8173ffffffffffffffffffffffffffffffffffffffff166108fc829081150290604051600060405180830381858888f19350505050158015611961573d6000803e3d6000fd5b505050565b60055481565b600460019054906101000a900460ff1681565b60085481565b61198d612486565b73ffffffffffffffffffffffffffffffffffffffff16600260009054906101000a900473ffffffffffffffffffffffffffffffffffffffff1673ffffffffffffffffffffffffffffffffffffffff1614611a4f576040517f08c379a00000000000000000000000000000000000000000000000000000000081526004018080602001828103825260208152602001807f4f776e61626c653a2063616c6c6572206973206e6f7420746865206f776e657281525060200191505060405180910390fd5b600760009054906101000a900460ff1615611a6957600080fd5b60005b600b80549050811015611b8657600d6000600b8381548110611a8a57fe5b9060005260206000200160009054906101000a900473ffffffffffffffffffffffffffffffffffffffff1673ffffffffffffffffffffffffffffffffffffffff1673ffffffffffffffffffffffffffffffffffffffff16815260200190815260200160002060009055600c6000600b8381548110611b0457fe5b9060005260206000200160009054906101000a900473ffffffffffffffffffffffffffffffffffffffff1673ffffffffffffffffffffffffffffffffffffffff1673ffffffffffffffffffffffffffffffffffffffff16815260200190815260200160002060006101000a81549060ff02191690558080600101915050611a6c565b506000600a60006101000a81548173ffffffffffffffffffffffffffffffffffffffff021916908373ffffffffffffffffffffffffffffffffffffffff160217905550600960009055611bd761282c565b6001600760006101000a81548160ff021916908315150217905550426008819055507f50ad08f58a27f2851d7e3a1b3a6a46b290f2ce677e99642d30ff639721e777906008546040518082815260200191505060405180910390a1565b600042611c4e60055460085461283690919063ffffffff16565b11611c5a576000611c84565b611c8342611c7560055460085461283690919063ffffffff16565b6128be90919063ffffffff16565b5b905090565b60035481565b6060600760009054906101000a900460ff1615611cab57600080fd5b600e6000600a60009054906101000a900473ffffffffffffffffffffffffffffffffffffffff1673ffffffffffffffffffffffffffffffffffffffff1673ffffffffffffffffffffffffffffffffffffffff1681526020019081526020016000208054600181600116156101000203166002900480601f016020809104026020016040519081016040528092919081815260200182805460018160011615610100020316600290048015611da05780601f10611d7557610100808354040283529160200191611da0565b820191906000526020600020905b815481529060010190602001808311611d8357829003601f168201915b5050505050905090565b611db2612486565b73ffffffffffffffffffffffffffffffffffffffff16600260009054906101000a900473ffffffffffffffffffffffffffffffffffffffff1673ffffffffffffffffffffffffffffffffffffffff1614611e74576040517f08c379a00000000000000000000000000000000000000000000000000000000081526004018080602001828103825260208152602001807f4f776e61626c653a2063616c6c6572206973206e6f7420746865206f776e657281525060200191505060405180910390fd5b600760009054906101000a900460ff168015611e9557506005546008540142105b8015611eb75750600460019054906101000a900460ff1660ff16600b80549050105b611ec057600080fd5b565b611eca612486565b73ffffffffffffffffffffffffffffffffffffffff16600260009054906101000a900473ffffffffffffffffffffffffffffffffffffffff1673ffffffffffffffffffffffffffffffffffffffff1614611f8c576040517f08c379a00000000000000000000000000000000000000000000000000000000081526004018080602001828103825260208152602001807f4f776e61626c653a2063616c6c6572206973206e6f7420746865206f776e657281525060200191505060405180910390fd5b600760009054906101000a900460ff1615611fa657600080fd5b60008160ff16118015611fbc575060378160ff16105b612011576040517f08c379a0000000000000000000000000000000000000000000000000000000008152600401808060200182810382526024815260200180612d546024913960400191505060405180910390fd5b7f08ffe957ce49f65f4bfbd9022e67ee04ea50cbae69381ee6a4b992088e92baf2600460019054906101000a900460ff1682604051808360ff1681526020018260ff1681526020019250505060405180910390a180600460016101000a81548160ff021916908360ff16021790555050565b61208b612486565b73ffffffffffffffffffffffffffffffffffffffff16600260009054906101000a900473ffffffffffffffffffffffffffffffffffffffff1673ffffffffffffffffffffffffffffffffffffffff161461214d576040517f08c379a00000000000000000000000000000000000000000000000000000000081526004018080602001828103825260208152602001807f4f776e61626c653a2063616c6c6572206973206e6f7420746865206f776e657281525060200191505060405180910390fd5b600073ffffffffffffffffffffffffffffffffffffffff168173ffffffffffffffffffffffffffffffffffffffff1614156121d3576040517f08c379a0000000000000000000000000000000000000000000000000000000008152600401808060200182810382526026815260200180612cd66026913960400191505060405180910390fd5b8073ffffffffffffffffffffffffffffffffffffffff16600260009054906101000a900473ffffffffffffffffffffffffffffffffffffffff1673ffffffffffffffffffffffffffffffffffffffff167f8be0079c531659141344cd1fd0a4f28419497f9722a3daafe3b4186f6b6457e060405160405180910390a380600260006101000a81548173ffffffffffffffffffffffffffffffffffffffff021916908373ffffffffffffffffffffffffffffffffffffffff16021790555050565b600460009054906101000a900460ff1681565b6122ae612486565b73ffffffffffffffffffffffffffffffffffffffff16600260009054906101000a900473ffffffffffffffffffffffffffffffffffffffff1673ffffffffffffffffffffffffffffffffffffffff1614612370576040517f08c379a00000000000000000000000000000000000000000000000000000000081526004018080602001828103825260208152602001807f4f776e61626c653a2063616c6c6572206973206e6f7420746865206f776e657281525060200191505060405180910390fd5b600760009054906101000a900460ff161561238a57600080fd5b8060008160ff161180156123a1575060378160ff16105b612413576040517f08c379a000000000000000000000000000000000000000000000000000000000815260040180806020018281038252601f8152602001807f436172642073686f756c64206265206265747765656e203120616e642035340081525060200191505060405180910390fd5b7fd22b6c3345433538a352435840df7684278d269505c0582991d5d5bc6895663e600460009054906101000a900460ff1683604051808360ff1681526020018260ff1681526020019250505060405180910390a181600460006101000a81548160ff021916908360ff1602179055505050565b600033905090565b600760009054906101000a900460ff1680156124af57506005546008540142105b80156124d15750600460019054906101000a900460ff1660ff16600b80549050105b6124da57600080fd5b6000600760006101000a81548160ff02191690831515021790555042600981905550600080600090505b600b80549050811015612650576000600b828154811061252057fe5b9060005260206000200160009054906101000a900473ffffffffffffffffffffffffffffffffffffffff169050600d60008273ffffffffffffffffffffffffffffffffffffffff1673ffffffffffffffffffffffffffffffffffffffff16815260200190815260200160002054830192506000600c60008373ffffffffffffffffffffffffffffffffffffffff1673ffffffffffffffffffffffffffffffffffffffff16815260200190815260200160002060009054906101000a900460ff169050600460009054906101000a900460ff1660ff168160ff1614156126415781600a60006101000a81548173ffffffffffffffffffffffffffffffffffffffff021916908373ffffffffffffffffffffffffffffffffffffffff1602179055505b50508080600101915050612504565b50600073ffffffffffffffffffffffffffffffffffffffff16600a60009054906101000a900473ffffffffffffffffffffffffffffffffffffffff1673ffffffffffffffffffffffffffffffffffffffff16146127e6576126cf60646126c16006548461290890919063ffffffff16565b61298e90919063ffffffff16565b600f6000600a60009054906101000a900473ffffffffffffffffffffffffffffffffffffffff1673ffffffffffffffffffffffffffffffffffffffff1673ffffffffffffffffffffffffffffffffffffffff168152602001908152602001600020600082825401925050819055506010600e6000600a60009054906101000a900473ffffffffffffffffffffffffffffffffffffffff1673ffffffffffffffffffffffffffffffffffffffff1673ffffffffffffffffffffffffffffffffffffffff1681526020019081526020016000209080600181540180825580915050600190039060005260206000200160009091909190915090805460018160011615610100020316600290046127e4929190612c31565b505b7f51f7785f5272b0852134145e42b1101dcee2a73ce47a4723e65c2ac5d8458110600854600954604051808381526020018281526020019250505060405180910390a150565b6128346129d8565b565b6000808284019050838110156128b4576040517f08c379a000000000000000000000000000000000000000000000000000000000815260040180806020018281038252601b8152602001807f536166654d6174683a206164646974696f6e206f766572666c6f77000000000081525060200191505060405180910390fd5b8091505092915050565b600061290083836040518060400160405280601e81526020017f536166654d6174683a207375627472616374696f6e206f766572666c6f770000815250612a2b565b905092915050565b60008083141561291b5760009050612988565b600082840290508284828161292c57fe5b0414612983576040517f08c379a0000000000000000000000000000000000000000000000000000000008152600401808060200182810382526021815260200180612d786021913960400191505060405180910390fd5b809150505b92915050565b60006129d083836040518060400160405280601a81526020017f536166654d6174683a206469766973696f6e206279207a65726f000000000000815250612aeb565b905092915050565b60005b60368160ff161015612a28576001810160008260ff16603681106129fb57fe5b602091828204019190066101000a81548160ff021916908360ff16021790555080806001019150506129db565b50565b6000838311158290612ad8576040517f08c379a00000000000000000000000000000000000000000000000000000000081526004018080602001828103825283818151815260200191508051906020019080838360005b83811015612a9d578082015181840152602081019050612a82565b50505050905090810190601f168015612aca5780820380516001836020036101000a031916815260200191505b509250505060405180910390fd5b5060008385039050809150509392505050565b60008083118290612b97576040517f08c379a00000000000000000000000000000000000000000000000000000000081526004018080602001828103825283818151815260200191508051906020019080838360005b83811015612b5c578082015181840152602081019050612b41565b50505050905090810190601f168015612b895780820380516001836020036101000a031916815260200191505b509250505060405180910390fd5b506000838581612ba357fe5b049050809150509392505050565b828054600181600116156101000203166002900490600052602060002090601f016020900481019282601f10612bf257805160ff1916838001178555612c20565b82800160010185558215612c20579182015b82811115612c1f578251825591602001919060010190612c04565b5b509050612c2d9190612cb8565b5090565b828054600181600116156101000203166002900490600052602060002090601f016020900481019282601f10612c6a5780548555612ca7565b82800160010185558215612ca757600052602060002091601f016020900482015b82811115612ca6578254825591600101919060010190612c8b565b5b509050612cb49190612cb8565b5090565b5b80821115612cd1576000816000905550600101612cb9565b509056fe4f776e61626c653a206e6577206f776e657220697320746865207a65726f206164647265737357696e6e6572277320626f6e75732073686f756c64206265206c657373207468616e20393525206f6620616c6c20696e636f6d65732e506c61796572206d7573742070617920746f207069636b207570206120636172642e5069636b7570206c696d69742073686f756c64206265206c657373207468616e2035342e536166654d6174683a206d756c7469706c69636174696f6e206f766572666c6f7754696d65206c696d69742073686f756c64206265206265747765656e2035206d696e7574657320616e642036206d6f6e7468732ea26469706673582212207bada7ddf0d669e0a21e6ac3d08e0fc8ac92ded3e45e9dc9f04c0b538ccc87da64736f6c634300060c0033",
  "immutableReferences": {},
  "source": "// SPDX-License-Identifier: MIT\n\npragma solidity ^0.6.2;\n\nimport \"./WithCards.sol\";\nimport \"./SafeMath.sol\";\nimport \"./Ownable.sol\";\n\n/**\n    [[[ Simple Playing Card Lottery Game ]]]\n*/\ncontract PickupLottery is WithCards, Ownable {\n    using SafeMath for uint256;\n    \n    uint256 public fee = 0.01 * (10**18);\n    uint8 public winningCard = 3;\n    uint8 public pickupLimit = 40;\n    // 1 week limit for single game\n    uint256 public timeLimit = 7 * 24 * 60 * 60 * 1000;\n    uint256 public bonusPercentage = 90;\n\n    uint256 private constant MAX_TIME_LIMIT = 6 * 30 * 24 * 60 * 60 * 1000;\n    uint256 private constant MIN_TIME_LIMIT = 5 * 60 * 1000;\n    uint256 private constant MAX_BONUS_PERCENTAGE = 95;\n\n    bool public started = false;\n    uint256 public startedTime;\n    uint256 public endTime;\n\n    address private _winner;\n\n    address [] private players;\n\n    // player address + picked-up card\n    mapping (address => uint8) private pickupStatus;\n\n    // player address + paid fee\n    mapping (address => uint256) private balances;\n\n    // player address + nick name\n    mapping (address => bytes) private nicknames;\n\n    // player address + awarded bonus amount\n    mapping (address => uint256) private bonuses;\n\n    bytes[] public winners;\n\n    modifier onlyStopped() {\n        require (!started);\n        _;\n    }\n\n    modifier onlyStarted() {\n        require (\n            started && \n            (block.timestamp < startedTime + timeLimit) && \n            (players.length < pickupLimit)\n        );\n        _;\n    }\n\n    event GameStarted(uint256 startedTime);\n    event GameStopped(uint256 startedTime, uint256 stoppedTime);\n\n    event FeeChanged(uint256 oldFee, uint256 newFee);\n    event WinningCardChanged(uint8 oldCard, uint8 newCard);\n    event PickupLimitChanged(uint8 oldLimit, uint8 newLimit);\n    event TimeLimitChanged(uint256 oldLimit, uint256 newLimit);\n    event BonusPercentageChanged(uint256 oldBonus, uint256 newBonus);\n\n    event CardPicked(uint256 numberOfPicks);\n\n    /**\n        Owner's role\n     */\n    function updateFee(uint256 _fee) external onlyOwner onlyStopped {\n        require(_fee > 0, \"Fee should not be zero.\");\n        emit FeeChanged(fee, _fee);\n        fee = _fee;\n    }\n\n    function updateWinningCard(uint8 _card) external onlyOwner onlyStopped onlyValidCard(_card) {\n        emit WinningCardChanged(winningCard, _card);\n        winningCard = _card;\n    }\n\n    function updatePickupLimit(uint8 _limit) external onlyOwner onlyStopped {\n        require(_limit > 0 && _limit < 55, \"Pickup limit should be less than 54.\");\n        emit PickupLimitChanged(pickupLimit, _limit);\n        pickupLimit = _limit;\n    }\n\n    function updateTimeLimit(uint256 _limit) external onlyOwner onlyStopped {\n        require(\n            _limit > MIN_TIME_LIMIT && _limit < MAX_TIME_LIMIT,\n            \"Time limit should be between 5 minutes and 6 months.\"\n        );\n        emit TimeLimitChanged(timeLimit, _limit);\n\n        timeLimit = _limit;\n    }\n\n    function updateBonusPercentage(uint256 _bonus) external onlyOwner onlyStopped {\n        require(\n            _bonus > 0 && _bonus < MAX_BONUS_PERCENTAGE,\n            \"Winner's bonus should be less than 95% of all incomes.\"\n        );\n        emit BonusPercentageChanged(bonusPercentage, _bonus);\n        bonusPercentage = _bonus;\n    }\n\n    // startGame()\n    // generate randomized cards list\n    // and record start time\n    function startGame() external onlyOwner onlyStopped {\n        // clear previous status\n        for (uint i; i < players.length; i++) {\n            delete balances[players[i]];\n            delete pickupStatus[players[i]];\n        }\n        _winner = address(0);\n        delete endTime;\n\n        // reset new game\n        generateCardsList();\n        started = true;\n        startedTime = block.timestamp;\n\n        emit GameStarted(startedTime);\n    }\n\n    function stopGame() external onlyOwner onlyStarted {\n        _stopGame();\n    }\n\n    function _stopGame() internal onlyStarted {\n        started = false;\n        endTime = block.timestamp;\n\n        // calculate total income, and find winner\n        uint256 totalIncome;\n        for (uint i = 0; i < players.length; i++) {\n            address player = players[i];\n            totalIncome += balances[player];\n\n            uint8 card = pickupStatus[player];\n            if (card == winningCard) {\n                _winner = player;\n            }\n        }\n\n        if (_winner != address(0)) {\n            bonuses[_winner] += totalIncome.mul(bonusPercentage).div(100);\n            winners.push(nicknames[_winner]);\n        }\n\n        emit GameStopped(startedTime, endTime);\n    }\n\n    // This will finish the game unexpectedly, so it will refund all balances to card holders\n    // and reset all status\n    function cancel() external onlyOwner onlyStarted {\n\n    }\n\n    function transfer(address payable recipient, uint256 amount) external onlyOwner{\n        require(address(this).balance > amount, \"Insufficient balance.\");\n        recipient.transfer(amount);\n    }\n\n    /**\n        Player's role\n     */\n    function pick(bytes memory nickName) external payable onlyStarted returns (uint8 card) {\n        require(pickupStatus[msg.sender] == 0, \"Player can pick up card at once.\");\n        require(msg.value >= fee, \"Player must pay to pick up a card.\");\n\n        // upgrade nick name\n        if (nickName.length > 0) {\n            nicknames[msg.sender] = nickName;\n        }\n\n        pickupStatus[msg.sender] = _cardsList[players.length];\n        players.push(msg.sender);\n        balances[msg.sender] = msg.value;\n        emit CardPicked(players.length);\n\n        if (players.length == pickupLimit) {\n            _stopGame();\n        }\n        card = pickupStatus[msg.sender];\n    }\n\n    function picked() external view returns (uint8 card) {\n        return pickupStatus[msg.sender];\n    }\n\n    function withdraw(uint256 amount) external {\n        require(bonuses[msg.sender] > amount, \"Insufficient funds.\");\n        bonuses[msg.sender] -= amount;\n        payable(msg.sender).transfer(amount);\n    }\n\n    /**\n        Public role\n     */\n    function leftTime() external view returns (uint256) {\n        return (startedTime.add(timeLimit) > block.timestamp) ? \n            startedTime.add(timeLimit).sub(block.timestamp) :\n            0;\n    }\n\n    function progress() external view returns (uint) {\n        return players.length;\n    }\n\n    // returns all picked-up cards, without holders address\n    function allPickedUp() external view onlyStopped returns (uint8[] memory) {\n        uint8[] memory cards = new uint8[](players.length);\n        for (uint i; i<players.length; i++) {\n            cards[i] = pickupStatus[players[i]];\n        }\n    }\n\n    function winner() external view onlyStopped returns (bytes memory) {\n        return nicknames[_winner];\n    }\n}\n",
  "sourcePath": "/home/rol/Desktop/lottery/contracts/PickupLottery.sol",
  "compiler": {
    "name": "solc",
    "version": "0.6.12+commit.27d51765.Emscripten.clang"
  },
  "schemaVersion": "3.4.1",
  "updatedAt": "2021-07-21T02:47:13.745Z",
  "devdoc": {
    "kind": "dev",
    "methods": {
      "owner()": {
        "details": "Returns the address of the current owner."
      },
      "renounceOwnership()": {
        "details": "Leaves the contract without owner. It will not be possible to call `onlyOwner` functions anymore. Can only be called by the current owner. NOTE: Renouncing ownership will leave the contract without an owner, thereby removing any functionality that is only available to the owner."
      },
      "transferOwnership(address)": {
        "details": "Transfers ownership of the contract to a new account (`newOwner`). Can only be called by the current owner."
      }
    },
    "version": 1
  },
  "userdoc": {
    "kind": "user",
    "methods": {
      "leftTime()": {
        "notice": "Public role"
      },
      "pick(bytes)": {
        "notice": "Player's role"
      },
      "updateFee(uint256)": {
        "notice": "Owner's role"
      }
    },
    "notice": "[[[ Simple Playing Card Lottery Game ]]]",
    "version": 1
  }
}