{
  "contractName": "PickupLottery",
  "abi": [
    {
      "anonymous": false,
      "inputs": [
        {
          "indexed": false,
          "internalType": "uint256",
          "name": "oldBonus",
          "type": "uint256"
        },
        {
          "indexed": false,
          "internalType": "uint256",
          "name": "newBonus",
          "type": "uint256"
        }
      ],
      "name": "BonusPercentageChanged",
      "type": "event"
    },
    {
      "anonymous": false,
      "inputs": [
        {
          "indexed": false,
          "internalType": "uint256",
          "name": "numberOfPicks",
          "type": "uint256"
        }
      ],
      "name": "CardPicked",
      "type": "event"
    },
    {
      "anonymous": false,
      "inputs": [
        {
          "indexed": false,
          "internalType": "uint256",
          "name": "oldFee",
          "type": "uint256"
        },
        {
          "indexed": false,
          "internalType": "uint256",
          "name": "newFee",
          "type": "uint256"
        }
      ],
      "name": "FeeChanged",
      "type": "event"
    },
    {
      "anonymous": false,
      "inputs": [
        {
          "indexed": false,
          "internalType": "uint256",
          "name": "startedTime",
          "type": "uint256"
        }
      ],
      "name": "GameStarted",
      "type": "event"
    },
    {
      "anonymous": false,
      "inputs": [
        {
          "indexed": false,
          "internalType": "uint256",
          "name": "startedTime",
          "type": "uint256"
        },
        {
          "indexed": false,
          "internalType": "uint256",
          "name": "stoppedTime",
          "type": "uint256"
        }
      ],
      "name": "GameStopped",
      "type": "event"
    },
    {
      "anonymous": false,
      "inputs": [
        {
          "indexed": true,
          "internalType": "address",
          "name": "previousOwner",
          "type": "address"
        },
        {
          "indexed": true,
          "internalType": "address",
          "name": "newOwner",
          "type": "address"
        }
      ],
      "name": "OwnershipTransferred",
      "type": "event"
    },
    {
      "anonymous": false,
      "inputs": [
        {
          "indexed": false,
          "internalType": "uint8",
          "name": "oldLimit",
          "type": "uint8"
        },
        {
          "indexed": false,
          "internalType": "uint8",
          "name": "newLimit",
          "type": "uint8"
        }
      ],
      "name": "PickupLimitChanged",
      "type": "event"
    },
    {
      "anonymous": false,
      "inputs": [
        {
          "indexed": false,
          "internalType": "uint256",
          "name": "oldLimit",
          "type": "uint256"
        },
        {
          "indexed": false,
          "internalType": "uint256",
          "name": "newLimit",
          "type": "uint256"
        }
      ],
      "name": "TimeLimitChanged",
      "type": "event"
    },
    {
      "anonymous": false,
      "inputs": [
        {
          "indexed": false,
          "internalType": "uint8",
          "name": "oldCard",
          "type": "uint8"
        },
        {
          "indexed": false,
          "internalType": "uint8",
          "name": "newCard",
          "type": "uint8"
        }
      ],
      "name": "WinningCardChanged",
      "type": "event"
    },
    {
      "inputs": [],
      "name": "bonusPercentage",
      "outputs": [
        {
          "internalType": "uint256",
          "name": "",
          "type": "uint256"
        }
      ],
      "stateMutability": "view",
      "type": "function"
    },
    {
      "inputs": [],
      "name": "endTime",
      "outputs": [
        {
          "internalType": "uint256",
          "name": "",
          "type": "uint256"
        }
      ],
      "stateMutability": "view",
      "type": "function"
    },
    {
      "inputs": [],
      "name": "fee",
      "outputs": [
        {
          "internalType": "uint256",
          "name": "",
          "type": "uint256"
        }
      ],
      "stateMutability": "view",
      "type": "function"
    },
    {
      "inputs": [],
      "name": "owner",
      "outputs": [
        {
          "internalType": "address",
          "name": "",
          "type": "address"
        }
      ],
      "stateMutability": "view",
      "type": "function"
    },
    {
      "inputs": [],
      "name": "pickupLimit",
      "outputs": [
        {
          "internalType": "uint8",
          "name": "",
          "type": "uint8"
        }
      ],
      "stateMutability": "view",
      "type": "function"
    },
    {
      "inputs": [],
      "name": "renounceOwnership",
      "outputs": [],
      "stateMutability": "nonpayable",
      "type": "function"
    },
    {
      "inputs": [],
      "name": "started",
      "outputs": [
        {
          "internalType": "bool",
          "name": "",
          "type": "bool"
        }
      ],
      "stateMutability": "view",
      "type": "function"
    },
    {
      "inputs": [],
      "name": "startedTime",
      "outputs": [
        {
          "internalType": "uint256",
          "name": "",
          "type": "uint256"
        }
      ],
      "stateMutability": "view",
      "type": "function"
    },
    {
      "inputs": [],
      "name": "timeLimit",
      "outputs": [
        {
          "internalType": "uint256",
          "name": "",
          "type": "uint256"
        }
      ],
      "stateMutability": "view",
      "type": "function"
    },
    {
      "inputs": [
        {
          "internalType": "address",
          "name": "newOwner",
          "type": "address"
        }
      ],
      "name": "transferOwnership",
      "outputs": [],
      "stateMutability": "nonpayable",
      "type": "function"
    },
    {
      "inputs": [
        {
          "internalType": "uint256",
          "name": "",
          "type": "uint256"
        }
      ],
      "name": "winners",
      "outputs": [
        {
          "internalType": "string",
          "name": "",
          "type": "string"
        }
      ],
      "stateMutability": "view",
      "type": "function"
    },
    {
      "inputs": [],
      "name": "winningCard",
      "outputs": [
        {
          "internalType": "uint8",
          "name": "",
          "type": "uint8"
        }
      ],
      "stateMutability": "view",
      "type": "function"
    },
    {
      "inputs": [
        {
          "internalType": "uint256",
          "name": "_fee",
          "type": "uint256"
        }
      ],
      "name": "updateFee",
      "outputs": [],
      "stateMutability": "nonpayable",
      "type": "function"
    },
    {
      "inputs": [
        {
          "internalType": "uint8",
          "name": "_card",
          "type": "uint8"
        }
      ],
      "name": "updateWinningCard",
      "outputs": [],
      "stateMutability": "nonpayable",
      "type": "function"
    },
    {
      "inputs": [
        {
          "internalType": "uint8",
          "name": "_limit",
          "type": "uint8"
        }
      ],
      "name": "updatePickupLimit",
      "outputs": [],
      "stateMutability": "nonpayable",
      "type": "function"
    },
    {
      "inputs": [
        {
          "internalType": "uint256",
          "name": "_limit",
          "type": "uint256"
        }
      ],
      "name": "updateTimeLimit",
      "outputs": [],
      "stateMutability": "nonpayable",
      "type": "function"
    },
    {
      "inputs": [
        {
          "internalType": "uint256",
          "name": "_bonus",
          "type": "uint256"
        }
      ],
      "name": "updateBonusPercentage",
      "outputs": [],
      "stateMutability": "nonpayable",
      "type": "function"
    },
    {
      "inputs": [],
      "name": "startGame",
      "outputs": [],
      "stateMutability": "nonpayable",
      "type": "function"
    },
    {
      "inputs": [],
      "name": "stopGame",
      "outputs": [],
      "stateMutability": "nonpayable",
      "type": "function"
    },
    {
      "inputs": [],
      "name": "cancel",
      "outputs": [],
      "stateMutability": "nonpayable",
      "type": "function"
    },
    {
      "inputs": [
        {
          "internalType": "address payable",
          "name": "recipient",
          "type": "address"
        },
        {
          "internalType": "uint256",
          "name": "amount",
          "type": "uint256"
        }
      ],
      "name": "transfer",
      "outputs": [],
      "stateMutability": "nonpayable",
      "type": "function"
    },
    {
      "inputs": [
        {
          "internalType": "bytes",
          "name": "nickName",
          "type": "bytes"
        }
      ],
      "name": "pick",
      "outputs": [
        {
          "internalType": "uint8",
          "name": "card",
          "type": "uint8"
        }
      ],
      "stateMutability": "payable",
      "type": "function"
    },
    {
      "inputs": [],
      "name": "picked",
      "outputs": [
        {
          "internalType": "uint8",
          "name": "card",
          "type": "uint8"
        }
      ],
      "stateMutability": "view",
      "type": "function"
    },
    {
      "inputs": [],
      "name": "myBonus",
      "outputs": [
        {
          "internalType": "uint256",
          "name": "",
          "type": "uint256"
        }
      ],
      "stateMutability": "view",
      "type": "function"
    },
    {
      "inputs": [
        {
          "internalType": "uint256",
          "name": "amount",
          "type": "uint256"
        }
      ],
      "name": "withdraw",
      "outputs": [],
      "stateMutability": "nonpayable",
      "type": "function"
    },
    {
      "inputs": [],
      "name": "leftTime",
      "outputs": [
        {
          "internalType": "uint256",
          "name": "",
          "type": "uint256"
        }
      ],
      "stateMutability": "view",
      "type": "function"
    },
    {
      "inputs": [],
      "name": "progress",
      "outputs": [
        {
          "internalType": "uint256",
          "name": "",
          "type": "uint256"
        }
      ],
      "stateMutability": "view",
      "type": "function"
    },
    {
      "inputs": [],
      "name": "allPickedUp",
      "outputs": [
        {
          "internalType": "uint8[]",
          "name": "",
          "type": "uint8[]"
        }
      ],
      "stateMutability": "view",
      "type": "function"
    },
    {
      "inputs": [],
      "name": "winner",
      "outputs": [
        {
          "internalType": "string",
          "name": "",
          "type": "string"
        }
      ],
      "stateMutability": "view",
      "type": "function"
    },
    {
      "inputs": [],
      "name": "winnersCount",
      "outputs": [
        {
          "internalType": "uint256",
          "name": "",
          "type": "uint256"
        }
      ],
      "stateMutability": "view",
      "type": "function"
    }
  ],
  "bytecode": "0x6080604052662386f26fc100006003556001600460006101000a81548160ff021916908360ff1602179055506028600460016101000a81548160ff021916908360ff16021790555063240c8400600555605a6006556000600760006101000a81548160ff02191690831515021790555034801561007b57600080fd5b50600061008c61013060201b60201c565b905080600260006101000a81548173ffffffffffffffffffffffffffffffffffffffff021916908373ffffffffffffffffffffffffffffffffffffffff1602179055508073ffffffffffffffffffffffffffffffffffffffff16600073ffffffffffffffffffffffffffffffffffffffff167f8be0079c531659141344cd1fd0a4f28419497f9722a3daafe3b4186f6b6457e060405160405180910390a350610138565b600033905090565b61343b80620001486000396000f3fe6080604052600436106101cd5760003560e01c8063a2fb1175116100f7578063d78317bf11610095578063ee17b95911610064578063ee17b95914610844578063f2fde38b14610882578063f8351daf146108d3578063fcd95a1a14610901576101cd565b8063d78317bf14610747578063ddca3f4314610772578063dfbf53ae1461079d578063ea8a1af01461082d576101cd565b8063c08d1fe5116100d1578063c08d1fe5146106ac578063cca38d44146106d7578063cebc6ad514610705578063d65ab5f214610730576101cd565b8063a2fb117514610562578063a312ac9714610616578063a9059cbb14610651576101cd565b8063577bd3361161016f5780638aa837211161013e5780638aa837211461048d5780638da5cb5b146104bb5780639012c4a8146104fc57806391d4357b14610537576101cd565b8063577bd33614610409578063715018a614610434578063813d6c9a1461044b57806383bd72ba14610476576101cd565b8063338d3e9a116101ab578063338d3e9a1461026557806334cf95c7146102d15780633bb4e2621461030c57806349713811146103de576101cd565b80631f2698ab146101d25780632e1a7d4d146101ff5780633197cbb61461023a575b600080fd5b3480156101de57600080fd5b506101e761093f565b60405180821515815260200191505060405180910390f35b34801561020b57600080fd5b506102386004803603602081101561022257600080fd5b8101908080359060200190929190505050610952565b005b34801561024657600080fd5b5061024f610a9d565b6040518082815260200191505060405180910390f35b34801561027157600080fd5b5061027a610aa3565b6040518080602001828103825283818151815260200191508051906020019060200280838360005b838110156102bd5780820151818401526020810190506102a2565b505050509050019250505060405180910390f35b3480156102dd57600080fd5b5061030a600480360360208110156102f457600080fd5b8101908080359060200190929190505050610c80565b005b6103c56004803603602081101561032257600080fd5b810190808035906020019064010000000081111561033f57600080fd5b82018360208201111561035157600080fd5b8035906020019184600183028401116401000000008311171561037357600080fd5b91908080601f016020809104026020016040519081016040528093929190818152602001838380828437600081840152601f19601f820116905080830192505050505050509192919290505050610e60565b604051808260ff16815260200191505060405180910390f35b3480156103ea57600080fd5b506103f3611307565b6040518082815260200191505060405180910390f35b34801561041557600080fd5b5061041e611314565b6040518082815260200191505060405180910390f35b34801561044057600080fd5b50610449611321565b005b34801561045757600080fd5b506104606114ac565b6040518082815260200191505060405180910390f35b34801561048257600080fd5b5061048b6114b2565b005b34801561049957600080fd5b506104a261161e565b604051808260ff16815260200191505060405180910390f35b3480156104c757600080fd5b506104d0611672565b604051808273ffffffffffffffffffffffffffffffffffffffff16815260200191505060405180910390f35b34801561050857600080fd5b506105356004803603602081101561051f57600080fd5b810190808035906020019092919050505061169c565b005b34801561054357600080fd5b5061054c61188d565b6040518082815260200191505060405180910390f35b34801561056e57600080fd5b5061059b6004803603602081101561058557600080fd5b81019080803590602001909291905050506118d4565b6040518080602001828103825283818151815260200191508051906020019080838360005b838110156105db5780820151818401526020810190506105c0565b50505050905090810190601f1680156106085780820380516001836020036101000a031916815260200191505b509250505060405180910390f35b34801561062257600080fd5b5061064f6004803603602081101561063957600080fd5b810190808035906020019092919050505061198d565b005b34801561065d57600080fd5b506106aa6004803603604081101561067457600080fd5b81019080803573ffffffffffffffffffffffffffffffffffffffff16906020019092919080359060200190929190505050611b73565b005b3480156106b857600080fd5b506106c1611cfd565b6040518082815260200191505060405180910390f35b3480156106e357600080fd5b506106ec611d03565b604051808260ff16815260200191505060405180910390f35b34801561071157600080fd5b5061071a611d16565b6040518082815260200191505060405180910390f35b34801561073c57600080fd5b50610745611d1c565b005b34801561075357600080fd5b5061075c612025565b6040518082815260200191505060405180910390f35b34801561077e57600080fd5b5061078761207a565b6040518082815260200191505060405180910390f35b3480156107a957600080fd5b506107b2612080565b6040518080602001828103825283818151815260200191508051906020019080838360005b838110156107f25780820151818401526020810190506107d7565b50505050905090810190601f16801561081f5780820380516001836020036101000a031916815260200191505b509250505060405180910390f35b34801561083957600080fd5b506108426121c0565b005b34801561085057600080fd5b506108806004803603602081101561086757600080fd5b81019080803560ff169060200190929190505050612324565b005b34801561088e57600080fd5b506108d1600480360360208110156108a557600080fd5b81019080803573ffffffffffffffffffffffffffffffffffffffff169060200190929190505050612531565b005b3480156108df57600080fd5b506108e8612741565b604051808260ff16815260200191505060405180910390f35b34801561090d57600080fd5b5061093d6004803603602081101561092457600080fd5b81019080803560ff169060200190929190505050612754565b005b600760009054906101000a900460ff1681565b80600f60003373ffffffffffffffffffffffffffffffffffffffff1673ffffffffffffffffffffffffffffffffffffffff1681526020019081526020016000205411610a06576040517f08c379a00000000000000000000000000000000000000000000000000000000081526004018080602001828103825260138152602001807f496e73756666696369656e742066756e64732e0000000000000000000000000081525060200191505060405180910390fd5b80600f60003373ffffffffffffffffffffffffffffffffffffffff1673ffffffffffffffffffffffffffffffffffffffff168152602001908152602001600020600082825403925050819055503373ffffffffffffffffffffffffffffffffffffffff166108fc829081150290604051600060405180830381858888f19350505050158015610a99573d6000803e3d6000fd5b5050565b60095481565b606080600b8054905067ffffffffffffffff81118015610ac257600080fd5b50604051908082528060200260200182016040528015610af15781602001602082028036833780820191505090505b50905060005b600b80549050811015610c7857600760009054906101000a900460ff1615610bfd573373ffffffffffffffffffffffffffffffffffffffff16600b8281548110610b3d57fe5b9060005260206000200160009054906101000a900473ffffffffffffffffffffffffffffffffffffffff1673ffffffffffffffffffffffffffffffffffffffff1614610b8a576000610bd8565b600c60003373ffffffffffffffffffffffffffffffffffffffff1673ffffffffffffffffffffffffffffffffffffffff16815260200190815260200160002060009054906101000a900460ff165b828281518110610be457fe5b602002602001019060ff16908160ff1681525050610c6b565b600c60003373ffffffffffffffffffffffffffffffffffffffff1673ffffffffffffffffffffffffffffffffffffffff16815260200190815260200160002060009054906101000a900460ff16828281518110610c5657fe5b602002602001019060ff16908160ff16815250505b8080600101915050610af7565b508091505090565b610c88612980565b73ffffffffffffffffffffffffffffffffffffffff16600260009054906101000a900473ffffffffffffffffffffffffffffffffffffffff1673ffffffffffffffffffffffffffffffffffffffff1614610d4a576040517f08c379a00000000000000000000000000000000000000000000000000000000081526004018080602001828103825260208152602001807f4f776e61626c653a2063616c6c6572206973206e6f7420746865206f776e657281525060200191505060405180910390fd5b600760009054906101000a900460ff1615610db0576040517f08c379a00000000000000000000000000000000000000000000000000000000081526004018080602001828103825260288152602001806133b66028913960400191505060405180910390fd5b600081118015610dc05750605f81105b610e15576040517f08c379a00000000000000000000000000000000000000000000000000000000081526004018080602001828103825260368152602001806132c26036913960400191505060405180910390fd5b7f6eac2ff5c5b54b2d9f88ca9f70f648236dd7f8cfc02b14fb78b9f8165bb2f73a60065482604051808381526020018281526020019250505060405180910390a18060068190555050565b6000600760009054906101000a900460ff168015610e8357506005546008540142105b8015610ea55750600460019054906101000a900460ff1660ff16600b80549050105b610efa576040517f08c379a00000000000000000000000000000000000000000000000000000000081526004018080602001828103825260288152602001806133de6028913960400191505060405180910390fd5b6000600c60003373ffffffffffffffffffffffffffffffffffffffff1673ffffffffffffffffffffffffffffffffffffffff16815260200190815260200160002060009054906101000a900460ff1660ff1614610fbf576040517f08c379a00000000000000000000000000000000000000000000000000000000081526004018080602001828103825260208152602001807f506c617965722063616e207069636b2075702063617264206174206f6e63652e81525060200191505060405180910390fd5b60035434101561101a576040517f08c379a00000000000000000000000000000000000000000000000000000000081526004018080602001828103825260228152602001806132f86022913960400191505060405180910390fd5b4261103260055460085461298890919063ffffffff16565b10156110ca577f51f7785f5272b0852134145e42b1101dcee2a73ce47a4723e65c2ac5d845811060085442604051808381526020018281526020019250505060405180910390a16040517f08c379a000000000000000000000000000000000000000000000000000000000815260040180806020018281038252602381526020018061335f6023913960400191505060405180910390fd5b6000825111156111295781600e60003373ffffffffffffffffffffffffffffffffffffffff1673ffffffffffffffffffffffffffffffffffffffff168152602001908152602001600020908051906020019061112792919061315d565b505b6000600b805490506036811061113b57fe5b602091828204019190069054906101000a900460ff16600c60003373ffffffffffffffffffffffffffffffffffffffff1673ffffffffffffffffffffffffffffffffffffffff16815260200190815260200160002060006101000a81548160ff021916908360ff160217905550600b339080600181540180825580915050600190039060005260206000200160009091909190916101000a81548173ffffffffffffffffffffffffffffffffffffffff021916908373ffffffffffffffffffffffffffffffffffffffff16021790555034600d60003373ffffffffffffffffffffffffffffffffffffffff1673ffffffffffffffffffffffffffffffffffffffff168152602001908152602001600020819055507fee4358dfced78623283b935cd31843787339483c153fa8d4a72e53ba9fdd885d600b805490506040518082815260200191505060405180910390a1600460019054906101000a900460ff1660ff16600b8054905014156112b3576112b2612a10565b5b600c60003373ffffffffffffffffffffffffffffffffffffffff1673ffffffffffffffffffffffffffffffffffffffff16815260200190815260200160002060009054906101000a900460ff169050919050565b6000601080549050905090565b6000600b80549050905090565b611329612980565b73ffffffffffffffffffffffffffffffffffffffff16600260009054906101000a900473ffffffffffffffffffffffffffffffffffffffff1673ffffffffffffffffffffffffffffffffffffffff16146113eb576040517f08c379a00000000000000000000000000000000000000000000000000000000081526004018080602001828103825260208152602001807f4f776e61626c653a2063616c6c6572206973206e6f7420746865206f776e657281525060200191505060405180910390fd5b600073ffffffffffffffffffffffffffffffffffffffff16600260009054906101000a900473ffffffffffffffffffffffffffffffffffffffff1673ffffffffffffffffffffffffffffffffffffffff167f8be0079c531659141344cd1fd0a4f28419497f9722a3daafe3b4186f6b6457e060405160405180910390a36000600260006101000a81548173ffffffffffffffffffffffffffffffffffffffff021916908373ffffffffffffffffffffffffffffffffffffffff160217905550565b60065481565b6114ba612980565b73ffffffffffffffffffffffffffffffffffffffff16600260009054906101000a900473ffffffffffffffffffffffffffffffffffffffff1673ffffffffffffffffffffffffffffffffffffffff161461157c576040517f08c379a00000000000000000000000000000000000000000000000000000000081526004018080602001828103825260208152602001807f4f776e61626c653a2063616c6c6572206973206e6f7420746865206f776e657281525060200191505060405180910390fd5b600760009054906101000a900460ff16801561159d57506005546008540142105b80156115bf5750600460019054906101000a900460ff1660ff16600b80549050105b611614576040517f08c379a00000000000000000000000000000000000000000000000000000000081526004018080602001828103825260288152602001806133de6028913960400191505060405180910390fd5b61161c612a10565b565b6000600c60003373ffffffffffffffffffffffffffffffffffffffff1673ffffffffffffffffffffffffffffffffffffffff16815260200190815260200160002060009054906101000a900460ff16905090565b6000600260009054906101000a900473ffffffffffffffffffffffffffffffffffffffff16905090565b6116a4612980565b73ffffffffffffffffffffffffffffffffffffffff16600260009054906101000a900473ffffffffffffffffffffffffffffffffffffffff1673ffffffffffffffffffffffffffffffffffffffff1614611766576040517f08c379a00000000000000000000000000000000000000000000000000000000081526004018080602001828103825260208152602001807f4f776e61626c653a2063616c6c6572206973206e6f7420746865206f776e657281525060200191505060405180910390fd5b600760009054906101000a900460ff16156117cc576040517f08c379a00000000000000000000000000000000000000000000000000000000081526004018080602001828103825260288152602001806133b66028913960400191505060405180910390fd5b60008111611842576040517f08c379a00000000000000000000000000000000000000000000000000000000081526004018080602001828103825260178152602001807f4665652073686f756c64206e6f74206265207a65726f2e00000000000000000081525060200191505060405180910390fd5b7f5fc463da23c1b063e66f9e352006a7fbe8db7223c455dc429e881a2dfe2f94f160035482604051808381526020018281526020019250505060405180910390a18060038190555050565b6000600f60003373ffffffffffffffffffffffffffffffffffffffff1673ffffffffffffffffffffffffffffffffffffffff16815260200190815260200160002054905090565b601081815481106118e157fe5b906000526020600020016000915090508054600181600116156101000203166002900480601f0160208091040260200160405190810160405280929190818152602001828054600181600116156101000203166002900480156119855780601f1061195a57610100808354040283529160200191611985565b820191906000526020600020905b81548152906001019060200180831161196857829003601f168201915b505050505081565b611995612980565b73ffffffffffffffffffffffffffffffffffffffff16600260009054906101000a900473ffffffffffffffffffffffffffffffffffffffff1673ffffffffffffffffffffffffffffffffffffffff1614611a57576040517f08c379a00000000000000000000000000000000000000000000000000000000081526004018080602001828103825260208152602001807f4f776e61626c653a2063616c6c6572206973206e6f7420746865206f776e657281525060200191505060405180910390fd5b600760009054906101000a900460ff1615611abd576040517f08c379a00000000000000000000000000000000000000000000000000000000081526004018080602001828103825260288152602001806133b66028913960400191505060405180910390fd5b620493e081118015611ad3575064039ef8b00081105b611b28576040517f08c379a00000000000000000000000000000000000000000000000000000000081526004018080602001828103825260348152602001806133826034913960400191505060405180910390fd5b7f37ed38756959b798a76773d88a831f6ae750221b3199808c4700d970754aea5360055482604051808381526020018281526020019250505060405180910390a18060058190555050565b611b7b612980565b73ffffffffffffffffffffffffffffffffffffffff16600260009054906101000a900473ffffffffffffffffffffffffffffffffffffffff1673ffffffffffffffffffffffffffffffffffffffff1614611c3d576040517f08c379a00000000000000000000000000000000000000000000000000000000081526004018080602001828103825260208152602001807f4f776e61626c653a2063616c6c6572206973206e6f7420746865206f776e657281525060200191505060405180910390fd5b804711611cb2576040517f08c379a00000000000000000000000000000000000000000000000000000000081526004018080602001828103825260158152602001807f496e73756666696369656e742062616c616e63652e000000000000000000000081525060200191505060405180910390fd5b8173ffffffffffffffffffffffffffffffffffffffff166108fc829081150290604051600060405180830381858888f19350505050158015611cf8573d6000803e3d6000fd5b505050565b60055481565b600460019054906101000a900460ff1681565b60085481565b611d24612980565b73ffffffffffffffffffffffffffffffffffffffff16600260009054906101000a900473ffffffffffffffffffffffffffffffffffffffff1673ffffffffffffffffffffffffffffffffffffffff1614611de6576040517f08c379a00000000000000000000000000000000000000000000000000000000081526004018080602001828103825260208152602001807f4f776e61626c653a2063616c6c6572206973206e6f7420746865206f776e657281525060200191505060405180910390fd5b600760009054906101000a900460ff1615611e4c576040517f08c379a00000000000000000000000000000000000000000000000000000000081526004018080602001828103825260288152602001806133b66028913960400191505060405180910390fd5b60005b600b80549050811015611f6957600d6000600b8381548110611e6d57fe5b9060005260206000200160009054906101000a900473ffffffffffffffffffffffffffffffffffffffff1673ffffffffffffffffffffffffffffffffffffffff1673ffffffffffffffffffffffffffffffffffffffff16815260200190815260200160002060009055600c6000600b8381548110611ee757fe5b9060005260206000200160009054906101000a900473ffffffffffffffffffffffffffffffffffffffff1673ffffffffffffffffffffffffffffffffffffffff1673ffffffffffffffffffffffffffffffffffffffff16815260200190815260200160002060006101000a81549060ff02191690558080600101915050611e4f565b506000600a60006101000a81548173ffffffffffffffffffffffffffffffffffffffff021916908373ffffffffffffffffffffffffffffffffffffffff160217905550600960009055600b6000611fc091906131dd565b611fc8612e60565b6001600760006101000a81548160ff021916908315150217905550426008819055507f50ad08f58a27f2851d7e3a1b3a6a46b290f2ce677e99642d30ff639721e777906008546040518082815260200191505060405180910390a1565b60004261203f60055460085461298890919063ffffffff16565b1161204b576000612075565b6120744261206660055460085461298890919063ffffffff16565b612e6a90919063ffffffff16565b5b905090565b60035481565b6060600760009054906101000a900460ff16156120e8576040517f08c379a00000000000000000000000000000000000000000000000000000000081526004018080602001828103825260288152602001806133b66028913960400191505060405180910390fd5b600e6000600a60009054906101000a900473ffffffffffffffffffffffffffffffffffffffff1673ffffffffffffffffffffffffffffffffffffffff1673ffffffffffffffffffffffffffffffffffffffff16815260200190815260200160002060405160200180828054600181600116156101000203166002900480156121a75780601f106121855761010080835404028352918201916121a7565b820191906000526020600020905b815481529060010190602001808311612193575b5050915050604051602081830303815290604052905090565b6121c8612980565b73ffffffffffffffffffffffffffffffffffffffff16600260009054906101000a900473ffffffffffffffffffffffffffffffffffffffff1673ffffffffffffffffffffffffffffffffffffffff161461228a576040517f08c379a00000000000000000000000000000000000000000000000000000000081526004018080602001828103825260208152602001807f4f776e61626c653a2063616c6c6572206973206e6f7420746865206f776e657281525060200191505060405180910390fd5b600760009054906101000a900460ff1680156122ab57506005546008540142105b80156122cd5750600460019054906101000a900460ff1660ff16600b80549050105b612322576040517f08c379a00000000000000000000000000000000000000000000000000000000081526004018080602001828103825260288152602001806133de6028913960400191505060405180910390fd5b565b61232c612980565b73ffffffffffffffffffffffffffffffffffffffff16600260009054906101000a900473ffffffffffffffffffffffffffffffffffffffff1673ffffffffffffffffffffffffffffffffffffffff16146123ee576040517f08c379a00000000000000000000000000000000000000000000000000000000081526004018080602001828103825260208152602001807f4f776e61626c653a2063616c6c6572206973206e6f7420746865206f776e657281525060200191505060405180910390fd5b600760009054906101000a900460ff1615612454576040517f08c379a00000000000000000000000000000000000000000000000000000000081526004018080602001828103825260288152602001806133b66028913960400191505060405180910390fd5b60008160ff1611801561246a575060378160ff16105b6124bf576040517f08c379a000000000000000000000000000000000000000000000000000000000815260040180806020018281038252602481526020018061331a6024913960400191505060405180910390fd5b7f08ffe957ce49f65f4bfbd9022e67ee04ea50cbae69381ee6a4b992088e92baf2600460019054906101000a900460ff1682604051808360ff1681526020018260ff1681526020019250505060405180910390a180600460016101000a81548160ff021916908360ff16021790555050565b612539612980565b73ffffffffffffffffffffffffffffffffffffffff16600260009054906101000a900473ffffffffffffffffffffffffffffffffffffffff1673ffffffffffffffffffffffffffffffffffffffff16146125fb576040517f08c379a00000000000000000000000000000000000000000000000000000000081526004018080602001828103825260208152602001807f4f776e61626c653a2063616c6c6572206973206e6f7420746865206f776e657281525060200191505060405180910390fd5b600073ffffffffffffffffffffffffffffffffffffffff168173ffffffffffffffffffffffffffffffffffffffff161415612681576040517f08c379a000000000000000000000000000000000000000000000000000000000815260040180806020018281038252602681526020018061329c6026913960400191505060405180910390fd5b8073ffffffffffffffffffffffffffffffffffffffff16600260009054906101000a900473ffffffffffffffffffffffffffffffffffffffff1673ffffffffffffffffffffffffffffffffffffffff167f8be0079c531659141344cd1fd0a4f28419497f9722a3daafe3b4186f6b6457e060405160405180910390a380600260006101000a81548173ffffffffffffffffffffffffffffffffffffffff021916908373ffffffffffffffffffffffffffffffffffffffff16021790555050565b600460009054906101000a900460ff1681565b61275c612980565b73ffffffffffffffffffffffffffffffffffffffff16600260009054906101000a900473ffffffffffffffffffffffffffffffffffffffff1673ffffffffffffffffffffffffffffffffffffffff161461281e576040517f08c379a00000000000000000000000000000000000000000000000000000000081526004018080602001828103825260208152602001807f4f776e61626c653a2063616c6c6572206973206e6f7420746865206f776e657281525060200191505060405180910390fd5b600760009054906101000a900460ff1615612884576040517f08c379a00000000000000000000000000000000000000000000000000000000081526004018080602001828103825260288152602001806133b66028913960400191505060405180910390fd5b8060008160ff1611801561289b575060378160ff16105b61290d576040517f08c379a000000000000000000000000000000000000000000000000000000000815260040180806020018281038252601f8152602001807f436172642073686f756c64206265206265747765656e203120616e642035340081525060200191505060405180910390fd5b7fd22b6c3345433538a352435840df7684278d269505c0582991d5d5bc6895663e600460009054906101000a900460ff1683604051808360ff1681526020018260ff1681526020019250505060405180910390a181600460006101000a81548160ff021916908360ff1602179055505050565b600033905090565b600080828401905083811015612a06576040517f08c379a000000000000000000000000000000000000000000000000000000000815260040180806020018281038252601b8152602001807f536166654d6174683a206164646974696f6e206f766572666c6f77000000000081525060200191505060405180910390fd5b8091505092915050565b600760009054906101000a900460ff168015612a3157506005546008540142105b8015612a535750600460019054906101000a900460ff1660ff16600b80549050105b612aa8576040517f08c379a00000000000000000000000000000000000000000000000000000000081526004018080602001828103825260288152602001806133de6028913960400191505060405180910390fd5b6000600760006101000a81548160ff02191690831515021790555042600981905550600080600090505b600b80549050811015612c1e576000600b8281548110612aee57fe5b9060005260206000200160009054906101000a900473ffffffffffffffffffffffffffffffffffffffff169050600d60008273ffffffffffffffffffffffffffffffffffffffff1673ffffffffffffffffffffffffffffffffffffffff16815260200190815260200160002054830192506000600c60008373ffffffffffffffffffffffffffffffffffffffff1673ffffffffffffffffffffffffffffffffffffffff16815260200190815260200160002060009054906101000a900460ff169050600460009054906101000a900460ff1660ff168160ff161415612c0f5781600a60006101000a81548173ffffffffffffffffffffffffffffffffffffffff021916908373ffffffffffffffffffffffffffffffffffffffff1602179055505b50508080600101915050612ad2565b50600073ffffffffffffffffffffffffffffffffffffffff16600a60009054906101000a900473ffffffffffffffffffffffffffffffffffffffff1673ffffffffffffffffffffffffffffffffffffffff1614612e1a57612c9d6064612c8f60065484612eb490919063ffffffff16565b612f3a90919063ffffffff16565b600f6000600a60009054906101000a900473ffffffffffffffffffffffffffffffffffffffff1673ffffffffffffffffffffffffffffffffffffffff1673ffffffffffffffffffffffffffffffffffffffff168152602001908152602001600020600082825401925050819055506010600e6000600a60009054906101000a900473ffffffffffffffffffffffffffffffffffffffff1673ffffffffffffffffffffffffffffffffffffffff1673ffffffffffffffffffffffffffffffffffffffff1681526020019081526020016000206040516020018082805460018160011615610100020316600290048015612dcc5780601f10612daa576101008083540402835291820191612dcc565b820191906000526020600020905b815481529060010190602001808311612db8575b5050915050604051602081830303815290604052908060018154018082558091505060019003906000526020600020016000909190919091509080519060200190612e189291906131fe565b505b7f51f7785f5272b0852134145e42b1101dcee2a73ce47a4723e65c2ac5d8458110600854600954604051808381526020018281526020019250505060405180910390a150565b612e68612f84565b565b6000612eac83836040518060400160405280601e81526020017f536166654d6174683a207375627472616374696f6e206f766572666c6f770000815250612fd7565b905092915050565b600080831415612ec75760009050612f34565b6000828402905082848281612ed857fe5b0414612f2f576040517f08c379a000000000000000000000000000000000000000000000000000000000815260040180806020018281038252602181526020018061333e6021913960400191505060405180910390fd5b809150505b92915050565b6000612f7c83836040518060400160405280601a81526020017f536166654d6174683a206469766973696f6e206279207a65726f000000000000815250613097565b905092915050565b60005b60368160ff161015612fd4576001810160008260ff1660368110612fa757fe5b602091828204019190066101000a81548160ff021916908360ff1602179055508080600101915050612f87565b50565b6000838311158290613084576040517f08c379a00000000000000000000000000000000000000000000000000000000081526004018080602001828103825283818151815260200191508051906020019080838360005b8381101561304957808201518184015260208101905061302e565b50505050905090810190601f1680156130765780820380516001836020036101000a031916815260200191505b509250505060405180910390fd5b5060008385039050809150509392505050565b60008083118290613143576040517f08c379a00000000000000000000000000000000000000000000000000000000081526004018080602001828103825283818151815260200191508051906020019080838360005b838110156131085780820151818401526020810190506130ed565b50505050905090810190601f1680156131355780820380516001836020036101000a031916815260200191505b509250505060405180910390fd5b50600083858161314f57fe5b049050809150509392505050565b828054600181600116156101000203166002900490600052602060002090601f016020900481019282601f1061319e57805160ff19168380011785556131cc565b828001600101855582156131cc579182015b828111156131cb5782518255916020019190600101906131b0565b5b5090506131d9919061327e565b5090565b50805460008255906000526020600020908101906131fb919061327e565b50565b828054600181600116156101000203166002900490600052602060002090601f016020900481019282601f1061323f57805160ff191683800117855561326d565b8280016001018555821561326d579182015b8281111561326c578251825591602001919060010190613251565b5b50905061327a919061327e565b5090565b5b8082111561329757600081600090555060010161327f565b509056fe4f776e61626c653a206e6577206f776e657220697320746865207a65726f206164647265737357696e6e6572277320626f6e75732073686f756c64206265206c657373207468616e20393525206f6620616c6c20696e636f6d65732e506c61796572206d7573742070617920746f207069636b207570206120636172642e5069636b7570206c696d69742073686f756c64206265206c657373207468616e2035342e536166654d6174683a206d756c7469706c69636174696f6e206f766572666c6f77536f7272792c206275742067616d6520697320616c726561647920657870697265642154696d65206c696d69742073686f756c64206265206265747765656e2035206d696e7574657320616e642036206d6f6e7468732e4974206973206f6e6c7920617661696c61626c652061667465722073746f707065642067616d652e4974206973206f6e6c7920617661696c61626c6520616674657220737461727420612067616d652ea264697066735822122042eb9f6081629322e15dc60e278f60c02b5329e7006f6fb39fc9c05c4f7b569c64736f6c634300060c0033",
  "immutableReferences": {},
  "source": "// SPDX-License-Identifier: MIT\n\npragma solidity ^0.6.2;\n\nimport \"./WithCards.sol\";\nimport \"./SafeMath.sol\";\nimport \"./Ownable.sol\";\n\n/**\n    [[[ Simple Playing Card Lottery Game ]]]\n*/\ncontract PickupLottery is WithCards, Ownable {\n    using SafeMath for uint256;\n    \n    uint256 public fee = 0.01 * (10**18);\n    uint8 public winningCard = 1;\n    uint8 public pickupLimit = 40;\n    // 1 week limit for single game\n    uint256 public timeLimit = 7 * 24 * 60 * 60 * 1000;\n    uint256 public bonusPercentage = 90;\n\n    uint256 private constant MAX_TIME_LIMIT = 6 * 30 * 24 * 60 * 60 * 1000;\n    uint256 private constant MIN_TIME_LIMIT = 5 * 60 * 1000;\n    uint256 private constant MAX_BONUS_PERCENTAGE = 95;\n\n    bool public started = false;\n    uint256 public startedTime;\n    uint256 public endTime;\n\n    address private _winner;\n\n    address [] private players;\n\n    // player address + picked-up card\n    mapping (address => uint8) private pickupStatus;\n\n    // player address + paid fee\n    mapping (address => uint256) private balances;\n\n    // player address + nick name\n    mapping (address => bytes) private nicknames;\n\n    // player address + awarded bonus amount\n    mapping (address => uint256) private bonuses;\n\n    string[] public winners;\n\n    modifier onlyStopped() {\n        require (!started, \"It is only available after stopped game.\");\n        _;\n    }\n\n    modifier onlyStarted() {\n        require (\n            started && \n            (block.timestamp < startedTime + timeLimit) && \n            (players.length < pickupLimit),\n            \"It is only available after start a game.\"\n        );\n        _;\n    }\n\n    event GameStarted(uint256 startedTime);\n    event GameStopped(uint256 startedTime, uint256 stoppedTime);\n\n    event FeeChanged(uint256 oldFee, uint256 newFee);\n    event WinningCardChanged(uint8 oldCard, uint8 newCard);\n    event PickupLimitChanged(uint8 oldLimit, uint8 newLimit);\n    event TimeLimitChanged(uint256 oldLimit, uint256 newLimit);\n    event BonusPercentageChanged(uint256 oldBonus, uint256 newBonus);\n\n    event CardPicked(uint256 numberOfPicks);\n\n    /**\n        Owner's role\n     */\n    function updateFee(uint256 _fee) external onlyOwner onlyStopped {\n        require(_fee > 0, \"Fee should not be zero.\");\n        emit FeeChanged(fee, _fee);\n        fee = _fee;\n    }\n\n    function updateWinningCard(uint8 _card) external onlyOwner onlyStopped onlyValidCard(_card) {\n        emit WinningCardChanged(winningCard, _card);\n        winningCard = _card;\n    }\n\n    function updatePickupLimit(uint8 _limit) external onlyOwner onlyStopped {\n        require(_limit > 0 && _limit < 55, \"Pickup limit should be less than 54.\");\n        emit PickupLimitChanged(pickupLimit, _limit);\n        pickupLimit = _limit;\n    }\n\n    function updateTimeLimit(uint256 _limit) external onlyOwner onlyStopped {\n        require(\n            _limit > MIN_TIME_LIMIT && _limit < MAX_TIME_LIMIT,\n            \"Time limit should be between 5 minutes and 6 months.\"\n        );\n        emit TimeLimitChanged(timeLimit, _limit);\n\n        timeLimit = _limit;\n    }\n\n    function updateBonusPercentage(uint256 _bonus) external onlyOwner onlyStopped {\n        require(\n            _bonus > 0 && _bonus < MAX_BONUS_PERCENTAGE,\n            \"Winner's bonus should be less than 95% of all incomes.\"\n        );\n        emit BonusPercentageChanged(bonusPercentage, _bonus);\n        bonusPercentage = _bonus;\n    }\n\n    // startGame()\n    // generate randomized cards list\n    // and record start time\n    function startGame() external onlyOwner onlyStopped {\n        // clear previous status\n        for (uint i; i < players.length; i++) {\n            delete balances[players[i]];\n            delete pickupStatus[players[i]];\n        }\n        _winner = address(0);\n        delete endTime;\n        delete players;\n\n        // reset new game\n        generateCardsList();\n        started = true;\n        startedTime = block.timestamp;\n\n        emit GameStarted(startedTime);\n    }\n\n    function stopGame() external onlyOwner onlyStarted {\n        _stopGame();\n    }\n\n    function _stopGame() internal onlyStarted {\n        started = false;\n        endTime = block.timestamp;\n\n        // calculate total income, and find winner\n        uint256 totalIncome;\n        for (uint i = 0; i < players.length; i++) {\n            address player = players[i];\n            totalIncome += balances[player];\n\n            uint8 card = pickupStatus[player];\n            if (card == winningCard) {\n                _winner = player;\n            }\n        }\n\n        if (_winner != address(0)) {\n            bonuses[_winner] += totalIncome.mul(bonusPercentage).div(100);\n            winners.push(string(abi.encodePacked(nicknames[_winner])));\n        }\n\n        emit GameStopped(startedTime, endTime);\n    }\n\n    // This will finish the game unexpectedly, so it will refund all balances to card holders\n    // and reset all status\n    function cancel() external onlyOwner onlyStarted {\n\n    }\n\n    function transfer(address payable recipient, uint256 amount) external onlyOwner{\n        require(address(this).balance > amount, \"Insufficient balance.\");\n        recipient.transfer(amount);\n    }\n\n    /**\n        Player's role\n     */\n    function pick(bytes memory nickName) external payable onlyStarted returns (uint8 card) {\n        require(pickupStatus[msg.sender] == 0, \"Player can pick up card at once.\");\n        require(msg.value >= fee, \"Player must pay to pick up a card.\");\n\n        if (startedTime.add(timeLimit) < block.timestamp) {\n            emit GameStopped(startedTime, block.timestamp);\n            revert(\"Sorry, but game is already expired!\");\n        }\n\n        // upgrade nick name\n        if (nickName.length > 0) {\n            nicknames[msg.sender] = nickName;\n        }\n\n        pickupStatus[msg.sender] = _cardsList[players.length];\n        players.push(msg.sender);\n        balances[msg.sender] = msg.value;\n        emit CardPicked(players.length);\n\n        if (players.length == pickupLimit) {\n            _stopGame();\n        }\n        card = pickupStatus[msg.sender];\n    }\n\n    function picked() external view returns (uint8 card) {\n        return pickupStatus[msg.sender];\n    }\n\n    function myBonus() external view returns (uint256) {\n        return bonuses[msg.sender];\n    }\n\n    function withdraw(uint256 amount) external {\n        require(bonuses[msg.sender] > amount, \"Insufficient funds.\");\n        bonuses[msg.sender] -= amount;\n        payable(msg.sender).transfer(amount);\n    }\n\n    /**\n        Public role\n     */\n    function leftTime() external view returns (uint256) {\n        return (startedTime.add(timeLimit) > block.timestamp) ? \n            startedTime.add(timeLimit).sub(block.timestamp) :\n            0;\n    }\n\n    function progress() external view returns (uint) {\n        return players.length;\n    }\n\n    // returns all picked-up cards, without holders address\n    function allPickedUp() external view returns (uint8[] memory) {\n        uint8[] memory cards = new uint8[](players.length);\n        for (uint i; i < players.length; i++) {\n            // if started, then show only my card. and if stopped then show all cards\n            if (started) {\n                cards[i] = players[i] == msg.sender ? pickupStatus[msg.sender] : 0;\n            } else {\n                cards[i] = pickupStatus[msg.sender];\n            }\n        }\n        return cards;\n    }\n\n    function winner() external view onlyStopped returns (string memory) {\n        return string(abi.encodePacked(nicknames[_winner]));\n    }\n\n    function winnersCount() external view returns (uint256) {\n        return winners.length;\n    }\n}\n",
  "sourcePath": "/home/rol/Desktop/lotteryVue/lottery/contracts/PickupLottery.sol",
  "compiler": {
    "name": "solc",
    "version": "0.6.12+commit.27d51765.Emscripten.clang"
  },
  "schemaVersion": "3.4.1",
  "updatedAt": "2021-07-22T09:13:42.329Z",
  "devdoc": {
    "kind": "dev",
    "methods": {
      "owner()": {
        "details": "Returns the address of the current owner."
      },
      "renounceOwnership()": {
        "details": "Leaves the contract without owner. It will not be possible to call `onlyOwner` functions anymore. Can only be called by the current owner. NOTE: Renouncing ownership will leave the contract without an owner, thereby removing any functionality that is only available to the owner."
      },
      "transferOwnership(address)": {
        "details": "Transfers ownership of the contract to a new account (`newOwner`). Can only be called by the current owner."
      }
    },
    "version": 1
  },
  "userdoc": {
    "kind": "user",
    "methods": {
      "leftTime()": {
        "notice": "Public role"
      },
      "pick(bytes)": {
        "notice": "Player's role"
      },
      "updateFee(uint256)": {
        "notice": "Owner's role"
      }
    },
    "notice": "[[[ Simple Playing Card Lottery Game ]]]",
    "version": 1
  }
}