{
  "contractName": "WithCards",
  "abi": [
    {
      "inputs": [],
      "stateMutability": "nonpayable",
      "type": "constructor"
    },
    {
      "inputs": [
        {
          "internalType": "bytes32",
          "name": "requestId",
          "type": "bytes32"
        },
        {
          "internalType": "uint256",
          "name": "randomness",
          "type": "uint256"
        }
      ],
      "name": "rawFulfillRandomness",
      "outputs": [],
      "stateMutability": "nonpayable",
      "type": "function"
    }
  ],
  "bytecode": "0x60c060405234801561001057600080fd5b5073dd3782915140c8f3b190b5d67eac6dc5760c46e973a36085f69e2889c224210f603d836748e7dc00888173ffffffffffffffffffffffffffffffffffffffff1660a08173ffffffffffffffffffffffffffffffffffffffff1660601b815250508073ffffffffffffffffffffffffffffffffffffffff1660808173ffffffffffffffffffffffffffffffffffffffff1660601b8152505050507f6c3699283bda56ad74f6b855546325b68d482e983852a7a82979cc4807b641f460001b60378190555067016345785d8a000060388190555060805160601c60a05160601c6102ba61010760003980606a5250506102ba6000f3fe608060405234801561001057600080fd5b506004361061002b5760003560e01c806394985ddd14610030575b600080fd5b6100666004803603604081101561004657600080fd5b810190808035906020019092919080359060200190929190505050610068565b005b7f000000000000000000000000000000000000000000000000000000000000000073ffffffffffffffffffffffffffffffffffffffff163373ffffffffffffffffffffffffffffffffffffffff1614610129576040517f08c379a000000000000000000000000000000000000000000000000000000000815260040180806020018281038252601f8152602001807f4f6e6c7920565246436f6f7264696e61746f722063616e2066756c66696c6c0081525060200191505060405180910390fd5b6101338282610137565b5050565b60008060008090505b60368110156101f3576101916036856001840160405160200180838152602001828152602001925050506040516020818303038152906040528051906020012060001c6101fa90919063ffffffff16565b9150808214156101a0576101e6565b600181603681106101ad57fe5b01549250600182603681106101be57fe5b0154600182603681106101cd57fe5b018190555082600183603681106101e057fe5b01819055505b8080600101915050610140565b5050505050565b600080821415610272576040517f08c379a00000000000000000000000000000000000000000000000000000000081526004018080602001828103825260188152602001807f536166654d6174683a206d6f64756c6f206279207a65726f000000000000000081525060200191505060405180910390fd5b81838161027b57fe5b0690509291505056fea2646970667358221220f03d6ebbc38be23bf6f66ad21e2f7dc2ab25beb041e210927e282be243f3961e64736f6c63430006060033",
  "immutableReferences": {
    "6761": [
      {
        "length": 32,
        "start": 106
      }
    ]
  },
  "source": "// SPDX-License-Identifier: MIT\n\npragma solidity ^0.6.2;\n\nimport \"./v0.6/VRFConsumerBase.sol\";\n\n/**\n    Playing Card\n\n    01 ~ 13: Heart A - K\n    14 ~ 26: Spade A - K\n    27 ~ 39: Diamond A - K\n    40 ~ 52: Club A - K\n    53: Black Joker\n    54: Red Joker\n */\n\ncontract WithCards is VRFConsumerBase {\n    uint256[54] internal _cardsList;\n\n    address private constant VRFCoordinator = address(0xdD3782915140c8f3b190B5D67eAc6dc5760C46E9);\n    address private constant LinkToken = address(0xa36085F69e2889c224210F603D836748e7dC0088);\n    bytes32 internal keyHash;\n    uint256 internal fee;\n\n    modifier onlyValidCard(uint256 _card) {\n        require(_card > 0 && _card < 55, \"Card should be between 1 and 54\");\n        _;\n    }\n\n    constructor() VRFConsumerBase(VRFCoordinator, LinkToken) public {\n        keyHash = 0x6c3699283bda56ad74f6b855546325b68d482e983852a7a82979cc4807b641f4;\n        fee = 0.1 * 10 ** 18; // 0.1 LINK (Varies by network)\n    }\n\n    // Request randomness\n    function requestShuffle() internal returns (bytes32 requestId) {\n        require(LINK.balanceOf(address(this)) >= fee, \"Not enough LINK - fill contract with faucet\");\n        return requestRandomness(keyHash, fee);\n    }\n\n    // Callback used by VRF Coordinator\n    function fulfillRandomness(bytes32 requestId, uint256 randomness) internal override {\n        uint256 temp;\n        uint256 pairId;\n        // shuffle cards based on random number\n        for (uint256 i = 0; i < 54; i++) {\n            pairId = uint256(keccak256(abi.encode(randomness, i+1))).mod(54);\n            if (pairId == i) {\n                continue;\n            }\n            temp = _cardsList[i];\n            _cardsList[i] = _cardsList[pairId];\n            _cardsList[pairId] = temp;\n        }\n    }\n\n    function initCardsList() internal {\n        for (uint256 i; i<54; i++) {\n            _cardsList[i] = i + 1;\n        }\n    }\n\n    function generateCardsList() internal {\n        initCardsList();\n        requestShuffle();\n    }\n}",
  "sourcePath": "/home/rol/Desktop/lotteryVue/lottery/contracts/WithCards.sol",
  "compiler": {
    "name": "solc",
    "version": "0.6.6+commit.6c089d02.Emscripten.clang"
  },
  "schemaVersion": "3.4.1",
  "updatedAt": "2021-07-24T09:01:27.996Z",
  "devdoc": {
    "methods": {}
  },
  "userdoc": {
    "methods": {},
    "notice": "Playing Card 01 ~ 13: Heart A - K 14 ~ 26: Spade A - K 27 ~ 39: Diamond A - K 40 ~ 52: Club A - K 53: Black Joker 54: Red Joker"
  }
}